{"contracts/BatchToken.sol":{"BatchToken":{"abi":[{"inputs":[],"stateMutability":"nonpayable","type":"constructor"},{"anonymous":false,"inputs":[{"indexed":true,"internalType":"address","name":"actor","type":"address"}],"name":"ActorAdded","type":"event"},{"anonymous":false,"inputs":[{"indexed":true,"internalType":"address","name":"actor","type":"address"}],"name":"ActorRemoved","type":"event"},{"anonymous":false,"inputs":[{"indexed":false,"internalType":"string","name":"batchExternalId","type":"string"},{"indexed":false,"internalType":"string","name":"itemId","type":"string"}],"name":"ItemLinked","type":"event"},{"anonymous":false,"inputs":[{"indexed":true,"internalType":"uint256","name":"transferId","type":"uint256"},{"indexed":true,"internalType":"address","name":"by","type":"address"}],"name":"TransferConfirmed","type":"event"},{"anonymous":false,"inputs":[{"indexed":true,"internalType":"uint256","name":"transferId","type":"uint256"},{"indexed":true,"internalType":"address","name":"from","type":"address"},{"indexed":true,"internalType":"address","name":"to","type":"address"},{"indexed":false,"internalType":"uint256","name":"plannedShipDate","type":"uint256"},{"indexed":false,"internalType":"uint256","name":"quantity","type":"uint256"}],"name":"TransferProposed","type":"event"},{"anonymous":false,"inputs":[{"indexed":true,"internalType":"uint256","name":"transferId","type":"uint256"}],"name":"TransferReceived","type":"event"},{"anonymous":false,"inputs":[{"indexed":true,"internalType":"uint256","name":"transferId","type":"uint256"}],"name":"TransferShipped","type":"event"},{"inputs":[{"internalType":"address","name":"actor","type":"address"}],"name":"addActor","outputs":[],"stateMutability":"nonpayable","type":"function"},{"inputs":[],"name":"admin","outputs":[{"internalType":"address","name":"","type":"address"}],"stateMutability":"view","type":"function"},{"inputs":[{"internalType":"uint256","name":"","type":"uint256"}],"name":"batchOf","outputs":[{"internalType":"string","name":"","type":"string"}],"stateMutability":"view","type":"function"},{"inputs":[{"internalType":"uint256","name":"transferId","type":"uint256"}],"name":"confirmTransfer","outputs":[],"stateMutability":"nonpayable","type":"function"},{"inputs":[{"internalType":"address","name":"","type":"address"}],"name":"isActor","outputs":[{"internalType":"bool","name":"","type":"bool"}],"stateMutability":"view","type":"function"},{"inputs":[{"internalType":"string","name":"","type":"string"}],"name":"itemOfBatch","outputs":[{"internalType":"string","name":"","type":"string"}],"stateMutability":"view","type":"function"},{"inputs":[{"internalType":"address","name":"to","type":"address"},{"internalType":"uint256","name":"plannedShipDate","type":"uint256"},{"internalType":"string","name":"batchExternalId","type":"string"},{"internalType":"uint256","name":"quantity","type":"uint256"}],"name":"proposeTransfer","outputs":[{"internalType":"uint256","name":"transferId","type":"uint256"}],"stateMutability":"nonpayable","type":"function"},{"inputs":[{"internalType":"address","name":"to","type":"address"},{"internalType":"uint256","name":"plannedShipDate","type":"uint256"},{"internalType":"string","name":"batchExternalId","type":"string"},{"internalType":"string","name":"itemId","type":"string"},{"internalType":"uint256","name":"quantity","type":"uint256"}],"name":"proposeTransfer","outputs":[{"internalType":"uint256","name":"transferId","type":"uint256"}],"stateMutability":"nonpayable","type":"function"},{"inputs":[{"internalType":"uint256","name":"","type":"uint256"}],"name":"quantityOf","outputs":[{"internalType":"uint256","name":"","type":"uint256"}],"stateMutability":"view","type":"function"},{"inputs":[{"internalType":"uint256","name":"transferId","type":"uint256"}],"name":"receiveTransfer","outputs":[],"stateMutability":"nonpayable","type":"function"},{"inputs":[{"internalType":"uint256","name":"","type":"uint256"}],"name":"recipientOf","outputs":[{"internalType":"address","name":"","type":"address"}],"stateMutability":"view","type":"function"},{"inputs":[{"internalType":"address","name":"actor","type":"address"}],"name":"removeActor","outputs":[],"stateMutability":"nonpayable","type":"function"},{"inputs":[{"internalType":"uint256","name":"","type":"uint256"}],"name":"senderOf","outputs":[{"internalType":"address","name":"","type":"address"}],"stateMutability":"view","type":"function"},{"inputs":[{"internalType":"string","name":"batchExternalId","type":"string"},{"internalType":"string","name":"itemId","type":"string"}],"name":"setItemForBatch","outputs":[],"stateMutability":"nonpayable","type":"function"},{"inputs":[{"internalType":"uint256","name":"transferId","type":"uint256"}],"name":"shipTransfer","outputs":[],"stateMutability":"nonpayable","type":"function"},{"inputs":[{"internalType":"uint256","name":"","type":"uint256"}],"name":"status","outputs":[{"internalType":"enum BatchToken.Status","name":"","type":"uint8"}],"stateMutability":"view","type":"function"},{"inputs":[{"internalType":"enum BatchToken.Status","name":"s","type":"uint8"}],"name":"transfersInStatus","outputs":[{"internalType":"uint256[]","name":"","type":"uint256[]"}],"stateMutability":"view","type":"function"}],"evm":{"bytecode":{"linkReferences":{},"object":"6080604052600160005534801561001557600080fd5b5033600860006101000a81548173ffffffffffffffffffffffffffffffffffffffff021916908373ffffffffffffffffffffffffffffffffffffffff160217905550613001806100666000396000f3fe608060405234801561001057600080fd5b506004361061010b5760003560e01c80635f82ad07116100a2578063e288b62a11610071578063e288b62a146102d8578063ed554f0614610308578063f14cf04514610338578063f851a44014610368578063f9fb8cf1146103865761010b565b80635f82ad071461022c57806391355cc31461025c578063b18cbdad1461028c578063c7fe23a3146102a85761010b565b806342d21ef7116100de57806342d21ef7146101a85780634306386c146101d857806349d55d9d146101f457806356158044146102105761010b565b80631227840714610110578063170322a71461014057806318c108851461015c5780632c48e7db1461018c575b600080fd5b61012a60048036038101906101259190611d47565b6103b6565b6040516101379190611dde565b60405180910390f35b61015a60048036038101906101559190611df9565b6104f7565b005b61017660048036038101906101719190611e7a565b6105fa565b6040516101839190611f37565b60405180910390f35b6101a660048036038101906101a19190611e7a565b61069a565b005b6101c260048036038101906101bd9190611e7a565b6109ce565b6040516101cf9190611fd0565b60405180910390f35b6101f260048036038101906101ed9190611feb565b6109ee565b005b61020e60048036038101906102099190611e7a565b610ba9565b005b61022a60048036038101906102259190611feb565b610ec4565b005b61024660048036038101906102419190611e7a565b61107e565b6040516102539190611dde565b60405180910390f35b61027660048036038101906102719190611e7a565b611096565b6040516102839190612027565b60405180910390f35b6102a660048036038101906102a19190611e7a565b6110c9565b005b6102c260048036038101906102bd9190611feb565b6113e6565b6040516102cf919061205d565b60405180910390f35b6102f260048036038101906102ed91906121a8565b611406565b6040516102ff9190611f37565b60405180910390f35b610322600480360381019061031d9190612216565b6114bc565b60405161032f9190612301565b60405180910390f35b610352600480360381019061034d9190611e7a565b61153f565b60405161035f9190612027565b60405180910390f35b610370611572565b60405161037d9190612027565b60405180910390f35b6103a0600480360381019061039b9190612323565b611598565b6040516103ad9190611dde565b60405180910390f35b6000600960003373ffffffffffffffffffffffffffffffffffffffff1673ffffffffffffffffffffffffffffffffffffffff16815260200190815260200160002060009054906101000a900460ff168061045d5750600860009054906101000a900473ffffffffffffffffffffffffffffffffffffffff1673ffffffffffffffffffffffffffffffffffffffff163373ffffffffffffffffffffffffffffffffffffffff16145b61049c576040517f08c379a00000000000000000000000000000000000000000000000000000000081526004016104939061242b565b60405180910390fd5b6104ec868686868080601f016020809104026020016040519081016040528093929190818152602001838380828437600081840152601f19601f820116905080830192505050505050508561183c565b905095945050505050565b600860009054906101000a900473ffffffffffffffffffffffffffffffffffffffff1673ffffffffffffffffffffffffffffffffffffffff163373ffffffffffffffffffffffffffffffffffffffff1614610587576040517f08c379a000000000000000000000000000000000000000000000000000000000815260040161057e90612497565b60405180910390fd5b8181600a868660405161059b9291906124e7565b908152602001604051809103902091826105b6929190612717565b507f814e0ee4d86911d8252fcf2f504e81549099783d27d63a57e817aa7d157478f4848484846040516105ec9493929190612814565b60405180910390a150505050565b600660205280600052604060002060009150905080546106199061253a565b80601f01602080910402602001604051908101604052809291908181526020018280546106459061253a565b80156106925780601f1061066757610100808354040283529160200191610692565b820191906000526020600020905b81548152906001019060200180831161067557829003601f168201915b505050505081565b600960003373ffffffffffffffffffffffffffffffffffffffff1673ffffffffffffffffffffffffffffffffffffffff16815260200190815260200160002060009054906101000a900460ff168061073f5750600860009054906101000a900473ffffffffffffffffffffffffffffffffffffffff1673ffffffffffffffffffffffffffffffffffffffff163373ffffffffffffffffffffffffffffffffffffffff16145b61077e576040517f08c379a00000000000000000000000000000000000000000000000000000000081526004016107759061242b565b60405180910390fd5b6001600481111561079257610791611f59565b5b6001600083815260200190815260200160002060009054906101000a900460ff1660048111156107c5576107c4611f59565b5b14610805576040517f08c379a00000000000000000000000000000000000000000000000000000000081526004016107fc9061289b565b60405180910390fd5b6005600082815260200190815260200160002060009054906101000a900473ffffffffffffffffffffffffffffffffffffffff1673ffffffffffffffffffffffffffffffffffffffff163373ffffffffffffffffffffffffffffffffffffffff16146108a6576040517f08c379a000000000000000000000000000000000000000000000000000000000815260040161089d90612907565b60405180910390fd5b6108b1816001611b53565b60026001600083815260200190815260200160002060006101000a81548160ff021916908360048111156108e8576108e7611f59565b5b0217905550600260006002600481111561090557610904611f59565b5b60ff1660ff168152602001908152602001600020805490506003600083815260200190815260200160002081905550600260006002600481111561094c5761094b611f59565b5b60ff1660ff1681526020019081526020016000208190806001815401808255809150506001900390600052602060002001600090919091909150553373ffffffffffffffffffffffffffffffffffffffff16817f88f3a431c8e7503e1205db0131787d8fdd671a45c660e4c9083954584993912f60405160405180910390a350565b60016020528060005260406000206000915054906101000a900460ff1681565b600860009054906101000a900473ffffffffffffffffffffffffffffffffffffffff1673ffffffffffffffffffffffffffffffffffffffff163373ffffffffffffffffffffffffffffffffffffffff1614610a7e576040517f08c379a0000000000000000000000000000000000000000000000000000000008152600401610a7590612497565b60405180910390fd5b600960008273ffffffffffffffffffffffffffffffffffffffff1673ffffffffffffffffffffffffffffffffffffffff16815260200190815260200160002060009054906101000a900460ff1615610b0b576040517f08c379a0000000000000000000000000000000000000000000000000000000008152600401610b0290612973565b60405180910390fd5b6001600960008373ffffffffffffffffffffffffffffffffffffffff1673ffffffffffffffffffffffffffffffffffffffff16815260200190815260200160002060006101000a81548160ff0219169083151502179055508073ffffffffffffffffffffffffffffffffffffffff167f54d4b1f3751e8659884e4ad0e7bb337ee7cff867bbd7d99be0d9018ea9c5ed7460405160405180910390a250565b600960003373ffffffffffffffffffffffffffffffffffffffff1673ffffffffffffffffffffffffffffffffffffffff16815260200190815260200160002060009054906101000a900460ff1680610c4e5750600860009054906101000a900473ffffffffffffffffffffffffffffffffffffffff1673ffffffffffffffffffffffffffffffffffffffff163373ffffffffffffffffffffffffffffffffffffffff16145b610c8d576040517f08c379a0000000000000000000000000000000000000000000000000000000008152600401610c849061242b565b60405180910390fd5b60036004811115610ca157610ca0611f59565b5b6001600083815260200190815260200160002060009054906101000a900460ff166004811115610cd457610cd3611f59565b5b14610d14576040517f08c379a0000000000000000000000000000000000000000000000000000000008152600401610d0b906129df565b60405180910390fd5b6005600082815260200190815260200160002060009054906101000a900473ffffffffffffffffffffffffffffffffffffffff1673ffffffffffffffffffffffffffffffffffffffff163373ffffffffffffffffffffffffffffffffffffffff1614610db5576040517f08c379a0000000000000000000000000000000000000000000000000000000008152600401610dac90612907565b60405180910390fd5b610dc0816003611b53565b60046001600083815260200190815260200160002060006101000a81548160ff02191690836004811115610df757610df6611f59565b5b021790555060026000600480811115610e1357610e12611f59565b5b60ff1660ff16815260200190815260200160002080549050600360008381526020019081526020016000208190555060026000600480811115610e5957610e58611f59565b5b60ff1660ff168152602001908152602001600020819080600181540180825580915050600190039060005260206000200160009091909190915055807fbbec0b967a4a7047807d3b3aabef6c5fe63b7284be1a4c4750a5729541e7140760405160405180910390a250565b600860009054906101000a900473ffffffffffffffffffffffffffffffffffffffff1673ffffffffffffffffffffffffffffffffffffffff163373ffffffffffffffffffffffffffffffffffffffff1614610f54576040517f08c379a0000000000000000000000000000000000000000000000000000000008152600401610f4b90612497565b60405180910390fd5b600960008273ffffffffffffffffffffffffffffffffffffffff1673ffffffffffffffffffffffffffffffffffffffff16815260200190815260200160002060009054906101000a900460ff16610fe0576040517f08c379a0000000000000000000000000000000000000000000000000000000008152600401610fd790612a4b565b60405180910390fd5b6000600960008373ffffffffffffffffffffffffffffffffffffffff1673ffffffffffffffffffffffffffffffffffffffff16815260200190815260200160002060006101000a81548160ff0219169083151502179055508073ffffffffffffffffffffffffffffffffffffffff167fa1a654053d0241d9a21038d7afc0a939aa3be322b6ab46323ddf73d6fbc1b6e160405160405180910390a250565b60076020528060005260406000206000915090505481565b60046020528060005260406000206000915054906101000a900473ffffffffffffffffffffffffffffffffffffffff1681565b600960003373ffffffffffffffffffffffffffffffffffffffff1673ffffffffffffffffffffffffffffffffffffffff16815260200190815260200160002060009054906101000a900460ff168061116e5750600860009054906101000a900473ffffffffffffffffffffffffffffffffffffffff1673ffffffffffffffffffffffffffffffffffffffff163373ffffffffffffffffffffffffffffffffffffffff16145b6111ad576040517f08c379a00000000000000000000000000000000000000000000000000000000081526004016111a49061242b565b60405180910390fd5b600260048111156111c1576111c0611f59565b5b6001600083815260200190815260200160002060009054906101000a900460ff1660048111156111f4576111f3611f59565b5b14611234576040517f08c379a000000000000000000000000000000000000000000000000000000000815260040161122b90612ab7565b60405180910390fd5b6004600082815260200190815260200160002060009054906101000a900473ffffffffffffffffffffffffffffffffffffffff1673ffffffffffffffffffffffffffffffffffffffff163373ffffffffffffffffffffffffffffffffffffffff16146112d5576040517f08c379a00000000000000000000000000000000000000000000000000000000081526004016112cc90612b23565b60405180910390fd5b6112e0816002611b53565b60036001600083815260200190815260200160002060006101000a81548160ff0219169083600481111561131757611316611f59565b5b0217905550600260006003600481111561133457611333611f59565b5b60ff1660ff168152602001908152602001600020805490506003600083815260200190815260200160002081905550600260006003600481111561137b5761137a611f59565b5b60ff1660ff168152602001908152602001600020819080600181540180825580915050600190039060005260206000200160009091909190915055807f679d820d524425ab4ee5896bd007960ee535fc991a63e905474e17168a99949b60405160405180910390a250565b60096020528060005260406000206000915054906101000a900460ff1681565b600a81805160208101820180518482526020830160208501208183528095505050505050600091509050805461143b9061253a565b80601f01602080910402602001604051908101604052809291908181526020018280546114679061253a565b80156114b45780601f10611489576101008083540402835291602001916114b4565b820191906000526020600020905b81548152906001019060200180831161149757829003601f168201915b505050505081565b6060600260008360048111156114d5576114d4611f59565b5b60ff1660ff16815260200190815260200160002080548060200260200160405190810160405280929190818152602001828054801561153357602002820191906000526020600020905b81548152602001906001019080831161151f575b50505050509050919050565b60056020528060005260406000206000915054906101000a900473ffffffffffffffffffffffffffffffffffffffff1681565b600860009054906101000a900473ffffffffffffffffffffffffffffffffffffffff1681565b6000600960003373ffffffffffffffffffffffffffffffffffffffff1673ffffffffffffffffffffffffffffffffffffffff16815260200190815260200160002060009054906101000a900460ff168061163f5750600860009054906101000a900473ffffffffffffffffffffffffffffffffffffffff1673ffffffffffffffffffffffffffffffffffffffff163373ffffffffffffffffffffffffffffffffffffffff16145b61167e576040517f08c379a00000000000000000000000000000000000000000000000000000000081526004016116759061242b565b60405180910390fd5b600084849050036116c4576040517f08c379a00000000000000000000000000000000000000000000000000000000081526004016116bb90612b8f565b60405180910390fd5b6000600a87876040516116d89291906124e7565b9081526020016040518091039020905060008180546116f69061253a565b90500361176f578484600a89896040516117119291906124e7565b9081526020016040518091039020918261172c929190612717565b507f814e0ee4d86911d8252fcf2f504e81549099783d27d63a57e817aa7d157478f4878787876040516117629493929190612814565b60405180910390a16117de565b848460405161177f929190612bdf565b6040518091039020816040516117959190612c90565b6040518091039020146117dd576040517f08c379a00000000000000000000000000000000000000000000000000000000081526004016117d490612cf3565b60405180910390fd5b5b61182e898989898080601f016020809104026020016040519081016040528093929190818152602001838380828437600081840152601f19601f820116905080830192505050505050508661183c565b915050979650505050505050565b60003373ffffffffffffffffffffffffffffffffffffffff168573ffffffffffffffffffffffffffffffffffffffff16036118ac576040517f08c379a00000000000000000000000000000000000000000000000000000000081526004016118a390612d5f565b60405180910390fd5b6000600a846040516118be9190612db0565b908152602001604051809103902080546118d79061253a565b905003611919576040517f08c379a000000000000000000000000000000000000000000000000000000000815260040161191090612b8f565b60405180910390fd5b60008081548092919061192b90612df6565b919050559050336004600083815260200190815260200160002060006101000a81548173ffffffffffffffffffffffffffffffffffffffff021916908373ffffffffffffffffffffffffffffffffffffffff160217905550846005600083815260200190815260200160002060006101000a81548173ffffffffffffffffffffffffffffffffffffffff021916908373ffffffffffffffffffffffffffffffffffffffff160217905550826006600083815260200190815260200160002090816119f59190612e3e565b50816007600083815260200190815260200160002081905550600180600083815260200190815260200160002060006101000a81548160ff02191690836004811115611a4457611a43611f59565b5b02179055506002600060016004811115611a6157611a60611f59565b5b60ff1660ff1681526020019081526020016000208054905060036000838152602001908152602001600020819055506002600060016004811115611aa857611aa7611f59565b5b60ff1660ff1681526020019081526020016000208190806001815401808255809150506001900390600052602060002001600090919091909150558473ffffffffffffffffffffffffffffffffffffffff163373ffffffffffffffffffffffffffffffffffffffff16827f31ba85b55025ddb5be9fe39085effb86a3e5b63876cf18f1d9e5926f7b84c01a8786604051611b43929190612f10565b60405180910390a4949350505050565b6000816004811115611b6857611b67611f59565b5b90506000600360008581526020019081526020016000205490506000600260008460ff1660ff168152602001908152602001600020905060008160018380549050611bb39190612f39565b81548110611bc457611bc3612f6d565b5b9060005260206000200154905080828481548110611be557611be4612f6d565b5b906000526020600020018190555082600360008381526020019081526020016000208190555081805480611c1c57611c1b612f9c565b5b60019003818190600052602060002001600090559055505050505050565b6000604051905090565b600080fd5b600080fd5b600073ffffffffffffffffffffffffffffffffffffffff82169050919050565b6000611c7982611c4e565b9050919050565b611c8981611c6e565b8114611c9457600080fd5b50565b600081359050611ca681611c80565b92915050565b6000819050919050565b611cbf81611cac565b8114611cca57600080fd5b50565b600081359050611cdc81611cb6565b92915050565b600080fd5b600080fd5b600080fd5b60008083601f840112611d0757611d06611ce2565b5b8235905067ffffffffffffffff811115611d2457611d23611ce7565b5b602083019150836001820283011115611d4057611d3f611cec565b5b9250929050565b600080600080600060808688031215611d6357611d62611c44565b5b6000611d7188828901611c97565b9550506020611d8288828901611ccd565b945050604086013567ffffffffffffffff811115611da357611da2611c49565b5b611daf88828901611cf1565b93509350506060611dc288828901611ccd565b9150509295509295909350565b611dd881611cac565b82525050565b6000602082019050611df36000830184611dcf565b92915050565b60008060008060408587031215611e1357611e12611c44565b5b600085013567ffffffffffffffff811115611e3157611e30611c49565b5b611e3d87828801611cf1565b9450945050602085013567ffffffffffffffff811115611e6057611e5f611c49565b5b611e6c87828801611cf1565b925092505092959194509250565b600060208284031215611e9057611e8f611c44565b5b6000611e9e84828501611ccd565b91505092915050565b600081519050919050565b600082825260208201905092915050565b60005b83811015611ee1578082015181840152602081019050611ec6565b60008484015250505050565b6000601f19601f8301169050919050565b6000611f0982611ea7565b611f138185611eb2565b9350611f23818560208601611ec3565b611f2c81611eed565b840191505092915050565b60006020820190508181036000830152611f518184611efe565b905092915050565b7f4e487b7100000000000000000000000000000000000000000000000000000000600052602160045260246000fd5b60058110611f9957611f98611f59565b5b50565b6000819050611faa82611f88565b919050565b6000611fba82611f9c565b9050919050565b611fca81611faf565b82525050565b6000602082019050611fe56000830184611fc1565b92915050565b60006020828403121561200157612000611c44565b5b600061200f84828501611c97565b91505092915050565b61202181611c6e565b82525050565b600060208201905061203c6000830184612018565b92915050565b60008115159050919050565b61205781612042565b82525050565b6000602082019050612072600083018461204e565b92915050565b600080fd5b7f4e487b7100000000000000000000000000000000000000000000000000000000600052604160045260246000fd5b6120b582611eed565b810181811067ffffffffffffffff821117156120d4576120d361207d565b5b80604052505050565b60006120e7611c3a565b90506120f382826120ac565b919050565b600067ffffffffffffffff8211156121135761211261207d565b5b61211c82611eed565b9050602081019050919050565b82818337600083830152505050565b600061214b612146846120f8565b6120dd565b90508281526020810184848401111561216757612166612078565b5b612172848285612129565b509392505050565b600082601f83011261218f5761218e611ce2565b5b813561219f848260208601612138565b91505092915050565b6000602082840312156121be576121bd611c44565b5b600082013567ffffffffffffffff8111156121dc576121db611c49565b5b6121e88482850161217a565b91505092915050565b600581106121fe57600080fd5b50565b600081359050612210816121f1565b92915050565b60006020828403121561222c5761222b611c44565b5b600061223a84828501612201565b91505092915050565b600081519050919050565b600082825260208201905092915050565b6000819050602082019050919050565b61227881611cac565b82525050565b600061228a838361226f565b60208301905092915050565b6000602082019050919050565b60006122ae82612243565b6122b8818561224e565b93506122c38361225f565b8060005b838110156122f45781516122db888261227e565b97506122e683612296565b9250506001810190506122c7565b5085935050505092915050565b6000602082019050818103600083015261231b81846122a3565b905092915050565b600080600080600080600060a0888a03121561234257612341611c44565b5b60006123508a828b01611c97565b97505060206123618a828b01611ccd565b965050604088013567ffffffffffffffff81111561238257612381611c49565b5b61238e8a828b01611cf1565b9550955050606088013567ffffffffffffffff8111156123b1576123b0611c49565b5b6123bd8a828b01611cf1565b935093505060806123d08a828b01611ccd565b91505092959891949750929550565b7f6f6e6c79206163746f7200000000000000000000000000000000000000000000600082015250565b6000612415600a83611eb2565b9150612420826123df565b602082019050919050565b6000602082019050818103600083015261244481612408565b9050919050565b7f6f6e6c792061646d696e00000000000000000000000000000000000000000000600082015250565b6000612481600a83611eb2565b915061248c8261244b565b602082019050919050565b600060208201905081810360008301526124b081612474565b9050919050565b600081905092915050565b60006124ce83856124b7565b93506124db838584612129565b82840190509392505050565b60006124f48284866124c2565b91508190509392505050565b600082905092915050565b7f4e487b7100000000000000000000000000000000000000000000000000000000600052602260045260246000fd5b6000600282049050600182168061255257607f821691505b6020821081036125655761256461250b565b5b50919050565b60008190508160005260206000209050919050565b60006020601f8301049050919050565b600082821b905092915050565b6000600883026125cd7fffffffffffffffffffffffffffffffffffffffffffffffffffffffffffffffff82612590565b6125d78683612590565b95508019841693508086168417925050509392505050565b6000819050919050565b600061261461260f61260a84611cac565b6125ef565b611cac565b9050919050565b6000819050919050565b61262e836125f9565b61264261263a8261261b565b84845461259d565b825550505050565b600090565b61265761264a565b612662818484612625565b505050565b5b818110156126865761267b60008261264f565b600181019050612668565b5050565b601f8211156126cb5761269c8161256b565b6126a584612580565b810160208510156126b4578190505b6126c86126c085612580565b830182612667565b50505b505050565b600082821c905092915050565b60006126ee600019846008026126d0565b1980831691505092915050565b600061270783836126dd565b9150826002028217905092915050565b6127218383612500565b67ffffffffffffffff81111561273a5761273961207d565b5b612744825461253a565b61274f82828561268a565b6000601f83116001811461277e576000841561276c578287013590505b61277685826126fb565b8655506127de565b601f19841661278c8661256b565b60005b828110156127b45784890135825560018201915060208501945060208101905061278f565b868310156127d157848901356127cd601f8916826126dd565b8355505b6001600288020188555050505b50505050505050565b60006127f38385611eb2565b9350612800838584612129565b61280983611eed565b840190509392505050565b6000604082019050818103600083015261282f8186886127e7565b905081810360208301526128448184866127e7565b905095945050505050565b7f6e6f742070726f706f7365640000000000000000000000000000000000000000600082015250565b6000612885600c83611eb2565b91506128908261284f565b602082019050919050565b600060208201905081810360008301526128b481612878565b9050919050565b7f6f6e6c7920726563697069656e74000000000000000000000000000000000000600082015250565b60006128f1600e83611eb2565b91506128fc826128bb565b602082019050919050565b60006020820190508181036000830152612920816128e4565b9050919050565b7f616c7265616479206163746f7200000000000000000000000000000000000000600082015250565b600061295d600d83611eb2565b915061296882612927565b602082019050919050565b6000602082019050818103600083015261298c81612950565b9050919050565b7f6e6f742073686970706564000000000000000000000000000000000000000000600082015250565b60006129c9600b83611eb2565b91506129d482612993565b602082019050919050565b600060208201905081810360008301526129f8816129bc565b9050919050565b7f6e6f74206163746f720000000000000000000000000000000000000000000000600082015250565b6000612a35600983611eb2565b9150612a40826129ff565b602082019050919050565b60006020820190508181036000830152612a6481612a28565b9050919050565b7f6e6f7420636f6e6669726d656400000000000000000000000000000000000000600082015250565b6000612aa1600d83611eb2565b9150612aac82612a6b565b602082019050919050565b60006020820190508181036000830152612ad081612a94565b9050919050565b7f6f6e6c792073656e646572000000000000000000000000000000000000000000600082015250565b6000612b0d600b83611eb2565b9150612b1882612ad7565b602082019050919050565b60006020820190508181036000830152612b3c81612b00565b9050919050565b7f6974656d20726571756972656400000000000000000000000000000000000000600082015250565b6000612b79600d83611eb2565b9150612b8482612b43565b602082019050919050565b60006020820190508181036000830152612ba881612b6c565b9050919050565b600081905092915050565b6000612bc68385612baf565b9350612bd3838584612129565b82840190509392505050565b6000612bec828486612bba565b91508190509392505050565b60008190508160005260206000209050919050565b60008154612c1a8161253a565b612c248186612baf565b94506001821660008114612c3f5760018114612c5457612c87565b60ff1983168652811515820286019350612c87565b612c5d85612bf8565b60005b83811015612c7f57815481890152600182019150602081019050612c60565b838801955050505b50505092915050565b6000612c9c8284612c0d565b915081905092915050565b7f6974656d206d69736d6174636800000000000000000000000000000000000000600082015250565b6000612cdd600d83611eb2565b9150612ce882612ca7565b602082019050919050565b60006020820190508181036000830152612d0c81612cd0565b9050919050565b7f696e76616c696420726563697069656e74000000000000000000000000000000600082015250565b6000612d49601183611eb2565b9150612d5482612d13565b602082019050919050565b60006020820190508181036000830152612d7881612d3c565b9050919050565b6000612d8a82611ea7565b612d9481856124b7565b9350612da4818560208601611ec3565b80840191505092915050565b6000612dbc8284612d7f565b915081905092915050565b7f4e487b7100000000000000000000000000000000000000000000000000000000600052601160045260246000fd5b6000612e0182611cac565b91507fffffffffffffffffffffffffffffffffffffffffffffffffffffffffffffffff8203612e3357612e32612dc7565b5b600182019050919050565b612e4782611ea7565b67ffffffffffffffff811115612e6057612e5f61207d565b5b612e6a825461253a565b612e7582828561268a565b600060209050601f831160018114612ea85760008415612e96578287015190505b612ea085826126fb565b865550612f08565b601f198416612eb68661256b565b60005b82811015612ede57848901518255600182019150602085019450602081019050612eb9565b86831015612efb5784890151612ef7601f8916826126dd565b8355505b6001600288020188555050505b505050505050565b6000604082019050612f256000830185611dcf565b612f326020830184611dcf565b9392505050565b6000612f4482611cac565b9150612f4f83611cac565b9250828203905081811115612f6757612f66612dc7565b5b92915050565b7f4e487b7100000000000000000000000000000000000000000000000000000000600052603260045260246000fd5b7f4e487b7100000000000000000000000000000000000000000000000000000000600052603160045260246000fdfea2646970667358221220664f9c40620cfad2d9396fd743fcff1b3e4b869aa71060cf9a34c98064ccb8a264736f6c63430008140033","opcodes":"PUSH1 0x80 PUSH1 0x40 MSTORE PUSH1 0x1 PUSH1 0x0 SSTORE CALLVALUE DUP1 ISZERO PUSH2 0x15 JUMPI PUSH1 0x0 DUP1 REVERT JUMPDEST POP CALLER PUSH1 0x8 PUSH1 0x0 PUSH2 0x100 EXP DUP2 SLOAD DUP2 PUSH20 0xFFFFFFFFFFFFFFFFFFFFFFFFFFFFFFFFFFFFFFFF MUL NOT AND SWAP1 DUP4 PUSH20 0xFFFFFFFFFFFFFFFFFFFFFFFFFFFFFFFFFFFFFFFF AND MUL OR SWAP1 SSTORE POP PUSH2 0x3001 DUP1 PUSH2 0x66 PUSH1 0x0 CODECOPY PUSH1 0x0 RETURN INVALID PUSH1 0x80 PUSH1 0x40 MSTORE CALLVALUE DUP1 ISZERO PUSH2 0x10 JUMPI PUSH1 0x0 DUP1 REVERT JUMPDEST POP PUSH1 0x4 CALLDATASIZE LT PUSH2 0x10B JUMPI PUSH1 0x0 CALLDATALOAD PUSH1 0xE0 SHR DUP1 PUSH4 0x5F82AD07 GT PUSH2 0xA2 JUMPI DUP1 PUSH4 0xE288B62A GT PUSH2 0x71 JUMPI DUP1 PUSH4 0xE288B62A EQ PUSH2 0x2D8 JUMPI DUP1 PUSH4 0xED554F06 EQ PUSH2 0x308 JUMPI DUP1 PUSH4 0xF14CF045 EQ PUSH2 0x338 JUMPI DUP1 PUSH4 0xF851A440 EQ PUSH2 0x368 JUMPI DUP1 PUSH4 0xF9FB8CF1 EQ PUSH2 0x386 JUMPI PUSH2 0x10B JUMP JUMPDEST DUP1 PUSH4 0x5F82AD07 EQ PUSH2 0x22C JUMPI DUP1 PUSH4 0x91355CC3 EQ PUSH2 0x25C JUMPI DUP1 PUSH4 0xB18CBDAD EQ PUSH2 0x28C JUMPI DUP1 PUSH4 0xC7FE23A3 EQ PUSH2 0x2A8 JUMPI PUSH2 0x10B JUMP JUMPDEST DUP1 PUSH4 0x42D21EF7 GT PUSH2 0xDE JUMPI DUP1 PUSH4 0x42D21EF7 EQ PUSH2 0x1A8 JUMPI DUP1 PUSH4 0x4306386C EQ PUSH2 0x1D8 JUMPI DUP1 PUSH4 0x49D55D9D EQ PUSH2 0x1F4 JUMPI DUP1 PUSH4 0x56158044 EQ PUSH2 0x210 JUMPI PUSH2 0x10B JUMP JUMPDEST DUP1 PUSH4 0x12278407 EQ PUSH2 0x110 JUMPI DUP1 PUSH4 0x170322A7 EQ PUSH2 0x140 JUMPI DUP1 PUSH4 0x18C10885 EQ PUSH2 0x15C JUMPI DUP1 PUSH4 0x2C48E7DB EQ PUSH2 0x18C JUMPI JUMPDEST PUSH1 0x0 DUP1 REVERT JUMPDEST PUSH2 0x12A PUSH1 0x4 DUP1 CALLDATASIZE SUB DUP2 ADD SWAP1 PUSH2 0x125 SWAP2 SWAP1 PUSH2 0x1D47 JUMP JUMPDEST PUSH2 0x3B6 JUMP JUMPDEST PUSH1 0x40 MLOAD PUSH2 0x137 SWAP2 SWAP1 PUSH2 0x1DDE JUMP JUMPDEST PUSH1 0x40 MLOAD DUP1 SWAP2 SUB SWAP1 RETURN JUMPDEST PUSH2 0x15A PUSH1 0x4 DUP1 CALLDATASIZE SUB DUP2 ADD SWAP1 PUSH2 0x155 SWAP2 SWAP1 PUSH2 0x1DF9 JUMP JUMPDEST PUSH2 0x4F7 JUMP JUMPDEST STOP JUMPDEST PUSH2 0x176 PUSH1 0x4 DUP1 CALLDATASIZE SUB DUP2 ADD SWAP1 PUSH2 0x171 SWAP2 SWAP1 PUSH2 0x1E7A JUMP JUMPDEST PUSH2 0x5FA JUMP JUMPDEST PUSH1 0x40 MLOAD PUSH2 0x183 SWAP2 SWAP1 PUSH2 0x1F37 JUMP JUMPDEST PUSH1 0x40 MLOAD DUP1 SWAP2 SUB SWAP1 RETURN JUMPDEST PUSH2 0x1A6 PUSH1 0x4 DUP1 CALLDATASIZE SUB DUP2 ADD SWAP1 PUSH2 0x1A1 SWAP2 SWAP1 PUSH2 0x1E7A JUMP JUMPDEST PUSH2 0x69A JUMP JUMPDEST STOP JUMPDEST PUSH2 0x1C2 PUSH1 0x4 DUP1 CALLDATASIZE SUB DUP2 ADD SWAP1 PUSH2 0x1BD SWAP2 SWAP1 PUSH2 0x1E7A JUMP JUMPDEST PUSH2 0x9CE JUMP JUMPDEST PUSH1 0x40 MLOAD PUSH2 0x1CF SWAP2 SWAP1 PUSH2 0x1FD0 JUMP JUMPDEST PUSH1 0x40 MLOAD DUP1 SWAP2 SUB SWAP1 RETURN JUMPDEST PUSH2 0x1F2 PUSH1 0x4 DUP1 CALLDATASIZE SUB DUP2 ADD SWAP1 PUSH2 0x1ED SWAP2 SWAP1 PUSH2 0x1FEB JUMP JUMPDEST PUSH2 0x9EE JUMP JUMPDEST STOP JUMPDEST PUSH2 0x20E PUSH1 0x4 DUP1 CALLDATASIZE SUB DUP2 ADD SWAP1 PUSH2 0x209 SWAP2 SWAP1 PUSH2 0x1E7A JUMP JUMPDEST PUSH2 0xBA9 JUMP JUMPDEST STOP JUMPDEST PUSH2 0x22A PUSH1 0x4 DUP1 CALLDATASIZE SUB DUP2 ADD SWAP1 PUSH2 0x225 SWAP2 SWAP1 PUSH2 0x1FEB JUMP JUMPDEST PUSH2 0xEC4 JUMP JUMPDEST STOP JUMPDEST PUSH2 0x246 PUSH1 0x4 DUP1 CALLDATASIZE SUB DUP2 ADD SWAP1 PUSH2 0x241 SWAP2 SWAP1 PUSH2 0x1E7A JUMP JUMPDEST PUSH2 0x107E JUMP JUMPDEST PUSH1 0x40 MLOAD PUSH2 0x253 SWAP2 SWAP1 PUSH2 0x1DDE JUMP JUMPDEST PUSH1 0x40 MLOAD DUP1 SWAP2 SUB SWAP1 RETURN JUMPDEST PUSH2 0x276 PUSH1 0x4 DUP1 CALLDATASIZE SUB DUP2 ADD SWAP1 PUSH2 0x271 SWAP2 SWAP1 PUSH2 0x1E7A JUMP JUMPDEST PUSH2 0x1096 JUMP JUMPDEST PUSH1 0x40 MLOAD PUSH2 0x283 SWAP2 SWAP1 PUSH2 0x2027 JUMP JUMPDEST PUSH1 0x40 MLOAD DUP1 SWAP2 SUB SWAP1 RETURN JUMPDEST PUSH2 0x2A6 PUSH1 0x4 DUP1 CALLDATASIZE SUB DUP2 ADD SWAP1 PUSH2 0x2A1 SWAP2 SWAP1 PUSH2 0x1E7A JUMP JUMPDEST PUSH2 0x10C9 JUMP JUMPDEST STOP JUMPDEST PUSH2 0x2C2 PUSH1 0x4 DUP1 CALLDATASIZE SUB DUP2 ADD SWAP1 PUSH2 0x2BD SWAP2 SWAP1 PUSH2 0x1FEB JUMP JUMPDEST PUSH2 0x13E6 JUMP JUMPDEST PUSH1 0x40 MLOAD PUSH2 0x2CF SWAP2 SWAP1 PUSH2 0x205D JUMP JUMPDEST PUSH1 0x40 MLOAD DUP1 SWAP2 SUB SWAP1 RETURN JUMPDEST PUSH2 0x2F2 PUSH1 0x4 DUP1 CALLDATASIZE SUB DUP2 ADD SWAP1 PUSH2 0x2ED SWAP2 SWAP1 PUSH2 0x21A8 JUMP JUMPDEST PUSH2 0x1406 JUMP JUMPDEST PUSH1 0x40 MLOAD PUSH2 0x2FF SWAP2 SWAP1 PUSH2 0x1F37 JUMP JUMPDEST PUSH1 0x40 MLOAD DUP1 SWAP2 SUB SWAP1 RETURN JUMPDEST PUSH2 0x322 PUSH1 0x4 DUP1 CALLDATASIZE SUB DUP2 ADD SWAP1 PUSH2 0x31D SWAP2 SWAP1 PUSH2 0x2216 JUMP JUMPDEST PUSH2 0x14BC JUMP JUMPDEST PUSH1 0x40 MLOAD PUSH2 0x32F SWAP2 SWAP1 PUSH2 0x2301 JUMP JUMPDEST PUSH1 0x40 MLOAD DUP1 SWAP2 SUB SWAP1 RETURN JUMPDEST PUSH2 0x352 PUSH1 0x4 DUP1 CALLDATASIZE SUB DUP2 ADD SWAP1 PUSH2 0x34D SWAP2 SWAP1 PUSH2 0x1E7A JUMP JUMPDEST PUSH2 0x153F JUMP JUMPDEST PUSH1 0x40 MLOAD PUSH2 0x35F SWAP2 SWAP1 PUSH2 0x2027 JUMP JUMPDEST PUSH1 0x40 MLOAD DUP1 SWAP2 SUB SWAP1 RETURN JUMPDEST PUSH2 0x370 PUSH2 0x1572 JUMP JUMPDEST PUSH1 0x40 MLOAD PUSH2 0x37D SWAP2 SWAP1 PUSH2 0x2027 JUMP JUMPDEST PUSH1 0x40 MLOAD DUP1 SWAP2 SUB SWAP1 RETURN JUMPDEST PUSH2 0x3A0 PUSH1 0x4 DUP1 CALLDATASIZE SUB DUP2 ADD SWAP1 PUSH2 0x39B SWAP2 SWAP1 PUSH2 0x2323 JUMP JUMPDEST PUSH2 0x1598 JUMP JUMPDEST PUSH1 0x40 MLOAD PUSH2 0x3AD SWAP2 SWAP1 PUSH2 0x1DDE JUMP JUMPDEST PUSH1 0x40 MLOAD DUP1 SWAP2 SUB SWAP1 RETURN JUMPDEST PUSH1 0x0 PUSH1 0x9 PUSH1 0x0 CALLER PUSH20 0xFFFFFFFFFFFFFFFFFFFFFFFFFFFFFFFFFFFFFFFF AND PUSH20 0xFFFFFFFFFFFFFFFFFFFFFFFFFFFFFFFFFFFFFFFF AND DUP2 MSTORE PUSH1 0x20 ADD SWAP1 DUP2 MSTORE PUSH1 0x20 ADD PUSH1 0x0 KECCAK256 PUSH1 0x0 SWAP1 SLOAD SWAP1 PUSH2 0x100 EXP SWAP1 DIV PUSH1 0xFF AND DUP1 PUSH2 0x45D JUMPI POP PUSH1 0x8 PUSH1 0x0 SWAP1 SLOAD SWAP1 PUSH2 0x100 EXP SWAP1 DIV PUSH20 0xFFFFFFFFFFFFFFFFFFFFFFFFFFFFFFFFFFFFFFFF AND PUSH20 0xFFFFFFFFFFFFFFFFFFFFFFFFFFFFFFFFFFFFFFFF AND CALLER PUSH20 0xFFFFFFFFFFFFFFFFFFFFFFFFFFFFFFFFFFFFFFFF AND EQ JUMPDEST PUSH2 0x49C JUMPI PUSH1 0x40 MLOAD PUSH32 0x8C379A000000000000000000000000000000000000000000000000000000000 DUP2 MSTORE PUSH1 0x4 ADD PUSH2 0x493 SWAP1 PUSH2 0x242B JUMP JUMPDEST PUSH1 0x40 MLOAD DUP1 SWAP2 SUB SWAP1 REVERT JUMPDEST PUSH2 0x4EC DUP7 DUP7 DUP7 DUP7 DUP1 DUP1 PUSH1 0x1F ADD PUSH1 0x20 DUP1 SWAP2 DIV MUL PUSH1 0x20 ADD PUSH1 0x40 MLOAD SWAP1 DUP2 ADD PUSH1 0x40 MSTORE DUP1 SWAP4 SWAP3 SWAP2 SWAP1 DUP2 DUP2 MSTORE PUSH1 0x20 ADD DUP4 DUP4 DUP1 DUP3 DUP5 CALLDATACOPY PUSH1 0x0 DUP2 DUP5 ADD MSTORE PUSH1 0x1F NOT PUSH1 0x1F DUP3 ADD AND SWAP1 POP DUP1 DUP4 ADD SWAP3 POP POP POP POP POP POP POP DUP6 PUSH2 0x183C JUMP JUMPDEST SWAP1 POP SWAP6 SWAP5 POP POP POP POP POP JUMP JUMPDEST PUSH1 0x8 PUSH1 0x0 SWAP1 SLOAD SWAP1 PUSH2 0x100 EXP SWAP1 DIV PUSH20 0xFFFFFFFFFFFFFFFFFFFFFFFFFFFFFFFFFFFFFFFF AND PUSH20 0xFFFFFFFFFFFFFFFFFFFFFFFFFFFFFFFFFFFFFFFF AND CALLER PUSH20 0xFFFFFFFFFFFFFFFFFFFFFFFFFFFFFFFFFFFFFFFF AND EQ PUSH2 0x587 JUMPI PUSH1 0x40 MLOAD PUSH32 0x8C379A000000000000000000000000000000000000000000000000000000000 DUP2 MSTORE PUSH1 0x4 ADD PUSH2 0x57E SWAP1 PUSH2 0x2497 JUMP JUMPDEST PUSH1 0x40 MLOAD DUP1 SWAP2 SUB SWAP1 REVERT JUMPDEST DUP2 DUP2 PUSH1 0xA DUP7 DUP7 PUSH1 0x40 MLOAD PUSH2 0x59B SWAP3 SWAP2 SWAP1 PUSH2 0x24E7 JUMP JUMPDEST SWAP1 DUP2 MSTORE PUSH1 0x20 ADD PUSH1 0x40 MLOAD DUP1 SWAP2 SUB SWAP1 KECCAK256 SWAP2 DUP3 PUSH2 0x5B6 SWAP3 SWAP2 SWAP1 PUSH2 0x2717 JUMP JUMPDEST POP PUSH32 0x814E0EE4D86911D8252FCF2F504E81549099783D27D63A57E817AA7D157478F4 DUP5 DUP5 DUP5 DUP5 PUSH1 0x40 MLOAD PUSH2 0x5EC SWAP5 SWAP4 SWAP3 SWAP2 SWAP1 PUSH2 0x2814 JUMP JUMPDEST PUSH1 0x40 MLOAD DUP1 SWAP2 SUB SWAP1 LOG1 POP POP POP POP JUMP JUMPDEST PUSH1 0x6 PUSH1 0x20 MSTORE DUP1 PUSH1 0x0 MSTORE PUSH1 0x40 PUSH1 0x0 KECCAK256 PUSH1 0x0 SWAP2 POP SWAP1 POP DUP1 SLOAD PUSH2 0x619 SWAP1 PUSH2 0x253A JUMP JUMPDEST DUP1 PUSH1 0x1F ADD PUSH1 0x20 DUP1 SWAP2 DIV MUL PUSH1 0x20 ADD PUSH1 0x40 MLOAD SWAP1 DUP2 ADD PUSH1 0x40 MSTORE DUP1 SWAP3 SWAP2 SWAP1 DUP2 DUP2 MSTORE PUSH1 0x20 ADD DUP3 DUP1 SLOAD PUSH2 0x645 SWAP1 PUSH2 0x253A JUMP JUMPDEST DUP1 ISZERO PUSH2 0x692 JUMPI DUP1 PUSH1 0x1F LT PUSH2 0x667 JUMPI PUSH2 0x100 DUP1 DUP4 SLOAD DIV MUL DUP4 MSTORE SWAP2 PUSH1 0x20 ADD SWAP2 PUSH2 0x692 JUMP JUMPDEST DUP3 ADD SWAP2 SWAP1 PUSH1 0x0 MSTORE PUSH1 0x20 PUSH1 0x0 KECCAK256 SWAP1 JUMPDEST DUP2 SLOAD DUP2 MSTORE SWAP1 PUSH1 0x1 ADD SWAP1 PUSH1 0x20 ADD DUP1 DUP4 GT PUSH2 0x675 JUMPI DUP3 SWAP1 SUB PUSH1 0x1F AND DUP3 ADD SWAP2 JUMPDEST POP POP POP POP POP DUP2 JUMP JUMPDEST PUSH1 0x9 PUSH1 0x0 CALLER PUSH20 0xFFFFFFFFFFFFFFFFFFFFFFFFFFFFFFFFFFFFFFFF AND PUSH20 0xFFFFFFFFFFFFFFFFFFFFFFFFFFFFFFFFFFFFFFFF AND DUP2 MSTORE PUSH1 0x20 ADD SWAP1 DUP2 MSTORE PUSH1 0x20 ADD PUSH1 0x0 KECCAK256 PUSH1 0x0 SWAP1 SLOAD SWAP1 PUSH2 0x100 EXP SWAP1 DIV PUSH1 0xFF AND DUP1 PUSH2 0x73F JUMPI POP PUSH1 0x8 PUSH1 0x0 SWAP1 SLOAD SWAP1 PUSH2 0x100 EXP SWAP1 DIV PUSH20 0xFFFFFFFFFFFFFFFFFFFFFFFFFFFFFFFFFFFFFFFF AND PUSH20 0xFFFFFFFFFFFFFFFFFFFFFFFFFFFFFFFFFFFFFFFF AND CALLER PUSH20 0xFFFFFFFFFFFFFFFFFFFFFFFFFFFFFFFFFFFFFFFF AND EQ JUMPDEST PUSH2 0x77E JUMPI PUSH1 0x40 MLOAD PUSH32 0x8C379A000000000000000000000000000000000000000000000000000000000 DUP2 MSTORE PUSH1 0x4 ADD PUSH2 0x775 SWAP1 PUSH2 0x242B JUMP JUMPDEST PUSH1 0x40 MLOAD DUP1 SWAP2 SUB SWAP1 REVERT JUMPDEST PUSH1 0x1 PUSH1 0x4 DUP2 GT ISZERO PUSH2 0x792 JUMPI PUSH2 0x791 PUSH2 0x1F59 JUMP JUMPDEST JUMPDEST PUSH1 0x1 PUSH1 0x0 DUP4 DUP2 MSTORE PUSH1 0x20 ADD SWAP1 DUP2 MSTORE PUSH1 0x20 ADD PUSH1 0x0 KECCAK256 PUSH1 0x0 SWAP1 SLOAD SWAP1 PUSH2 0x100 EXP SWAP1 DIV PUSH1 0xFF AND PUSH1 0x4 DUP2 GT ISZERO PUSH2 0x7C5 JUMPI PUSH2 0x7C4 PUSH2 0x1F59 JUMP JUMPDEST JUMPDEST EQ PUSH2 0x805 JUMPI PUSH1 0x40 MLOAD PUSH32 0x8C379A000000000000000000000000000000000000000000000000000000000 DUP2 MSTORE PUSH1 0x4 ADD PUSH2 0x7FC SWAP1 PUSH2 0x289B JUMP JUMPDEST PUSH1 0x40 MLOAD DUP1 SWAP2 SUB SWAP1 REVERT JUMPDEST PUSH1 0x5 PUSH1 0x0 DUP3 DUP2 MSTORE PUSH1 0x20 ADD SWAP1 DUP2 MSTORE PUSH1 0x20 ADD PUSH1 0x0 KECCAK256 PUSH1 0x0 SWAP1 SLOAD SWAP1 PUSH2 0x100 EXP SWAP1 DIV PUSH20 0xFFFFFFFFFFFFFFFFFFFFFFFFFFFFFFFFFFFFFFFF AND PUSH20 0xFFFFFFFFFFFFFFFFFFFFFFFFFFFFFFFFFFFFFFFF AND CALLER PUSH20 0xFFFFFFFFFFFFFFFFFFFFFFFFFFFFFFFFFFFFFFFF AND EQ PUSH2 0x8A6 JUMPI PUSH1 0x40 MLOAD PUSH32 0x8C379A000000000000000000000000000000000000000000000000000000000 DUP2 MSTORE PUSH1 0x4 ADD PUSH2 0x89D SWAP1 PUSH2 0x2907 JUMP JUMPDEST PUSH1 0x40 MLOAD DUP1 SWAP2 SUB SWAP1 REVERT JUMPDEST PUSH2 0x8B1 DUP2 PUSH1 0x1 PUSH2 0x1B53 JUMP JUMPDEST PUSH1 0x2 PUSH1 0x1 PUSH1 0x0 DUP4 DUP2 MSTORE PUSH1 0x20 ADD SWAP1 DUP2 MSTORE PUSH1 0x20 ADD PUSH1 0x0 KECCAK256 PUSH1 0x0 PUSH2 0x100 EXP DUP2 SLOAD DUP2 PUSH1 0xFF MUL NOT AND SWAP1 DUP4 PUSH1 0x4 DUP2 GT ISZERO PUSH2 0x8E8 JUMPI PUSH2 0x8E7 PUSH2 0x1F59 JUMP JUMPDEST JUMPDEST MUL OR SWAP1 SSTORE POP PUSH1 0x2 PUSH1 0x0 PUSH1 0x2 PUSH1 0x4 DUP2 GT ISZERO PUSH2 0x905 JUMPI PUSH2 0x904 PUSH2 0x1F59 JUMP JUMPDEST JUMPDEST PUSH1 0xFF AND PUSH1 0xFF AND DUP2 MSTORE PUSH1 0x20 ADD SWAP1 DUP2 MSTORE PUSH1 0x20 ADD PUSH1 0x0 KECCAK256 DUP1 SLOAD SWAP1 POP PUSH1 0x3 PUSH1 0x0 DUP4 DUP2 MSTORE PUSH1 0x20 ADD SWAP1 DUP2 MSTORE PUSH1 0x20 ADD PUSH1 0x0 KECCAK256 DUP2 SWAP1 SSTORE POP PUSH1 0x2 PUSH1 0x0 PUSH1 0x2 PUSH1 0x4 DUP2 GT ISZERO PUSH2 0x94C JUMPI PUSH2 0x94B PUSH2 0x1F59 JUMP JUMPDEST JUMPDEST PUSH1 0xFF AND PUSH1 0xFF AND DUP2 MSTORE PUSH1 0x20 ADD SWAP1 DUP2 MSTORE PUSH1 0x20 ADD PUSH1 0x0 KECCAK256 DUP2 SWAP1 DUP1 PUSH1 0x1 DUP2 SLOAD ADD DUP1 DUP3 SSTORE DUP1 SWAP2 POP POP PUSH1 0x1 SWAP1 SUB SWAP1 PUSH1 0x0 MSTORE PUSH1 0x20 PUSH1 0x0 KECCAK256 ADD PUSH1 0x0 SWAP1 SWAP2 SWAP1 SWAP2 SWAP1 SWAP2 POP SSTORE CALLER PUSH20 0xFFFFFFFFFFFFFFFFFFFFFFFFFFFFFFFFFFFFFFFF AND DUP2 PUSH32 0x88F3A431C8E7503E1205DB0131787D8FDD671A45C660E4C9083954584993912F PUSH1 0x40 MLOAD PUSH1 0x40 MLOAD DUP1 SWAP2 SUB SWAP1 LOG3 POP JUMP JUMPDEST PUSH1 0x1 PUSH1 0x20 MSTORE DUP1 PUSH1 0x0 MSTORE PUSH1 0x40 PUSH1 0x0 KECCAK256 PUSH1 0x0 SWAP2 POP SLOAD SWAP1 PUSH2 0x100 EXP SWAP1 DIV PUSH1 0xFF AND DUP2 JUMP JUMPDEST PUSH1 0x8 PUSH1 0x0 SWAP1 SLOAD SWAP1 PUSH2 0x100 EXP SWAP1 DIV PUSH20 0xFFFFFFFFFFFFFFFFFFFFFFFFFFFFFFFFFFFFFFFF AND PUSH20 0xFFFFFFFFFFFFFFFFFFFFFFFFFFFFFFFFFFFFFFFF AND CALLER PUSH20 0xFFFFFFFFFFFFFFFFFFFFFFFFFFFFFFFFFFFFFFFF AND EQ PUSH2 0xA7E JUMPI PUSH1 0x40 MLOAD PUSH32 0x8C379A000000000000000000000000000000000000000000000000000000000 DUP2 MSTORE PUSH1 0x4 ADD PUSH2 0xA75 SWAP1 PUSH2 0x2497 JUMP JUMPDEST PUSH1 0x40 MLOAD DUP1 SWAP2 SUB SWAP1 REVERT JUMPDEST PUSH1 0x9 PUSH1 0x0 DUP3 PUSH20 0xFFFFFFFFFFFFFFFFFFFFFFFFFFFFFFFFFFFFFFFF AND PUSH20 0xFFFFFFFFFFFFFFFFFFFFFFFFFFFFFFFFFFFFFFFF AND DUP2 MSTORE PUSH1 0x20 ADD SWAP1 DUP2 MSTORE PUSH1 0x20 ADD PUSH1 0x0 KECCAK256 PUSH1 0x0 SWAP1 SLOAD SWAP1 PUSH2 0x100 EXP SWAP1 DIV PUSH1 0xFF AND ISZERO PUSH2 0xB0B JUMPI PUSH1 0x40 MLOAD PUSH32 0x8C379A000000000000000000000000000000000000000000000000000000000 DUP2 MSTORE PUSH1 0x4 ADD PUSH2 0xB02 SWAP1 PUSH2 0x2973 JUMP JUMPDEST PUSH1 0x40 MLOAD DUP1 SWAP2 SUB SWAP1 REVERT JUMPDEST PUSH1 0x1 PUSH1 0x9 PUSH1 0x0 DUP4 PUSH20 0xFFFFFFFFFFFFFFFFFFFFFFFFFFFFFFFFFFFFFFFF AND PUSH20 0xFFFFFFFFFFFFFFFFFFFFFFFFFFFFFFFFFFFFFFFF AND DUP2 MSTORE PUSH1 0x20 ADD SWAP1 DUP2 MSTORE PUSH1 0x20 ADD PUSH1 0x0 KECCAK256 PUSH1 0x0 PUSH2 0x100 EXP DUP2 SLOAD DUP2 PUSH1 0xFF MUL NOT AND SWAP1 DUP4 ISZERO ISZERO MUL OR SWAP1 SSTORE POP DUP1 PUSH20 0xFFFFFFFFFFFFFFFFFFFFFFFFFFFFFFFFFFFFFFFF AND PUSH32 0x54D4B1F3751E8659884E4AD0E7BB337EE7CFF867BBD7D99BE0D9018EA9C5ED74 PUSH1 0x40 MLOAD PUSH1 0x40 MLOAD DUP1 SWAP2 SUB SWAP1 LOG2 POP JUMP JUMPDEST PUSH1 0x9 PUSH1 0x0 CALLER PUSH20 0xFFFFFFFFFFFFFFFFFFFFFFFFFFFFFFFFFFFFFFFF AND PUSH20 0xFFFFFFFFFFFFFFFFFFFFFFFFFFFFFFFFFFFFFFFF AND DUP2 MSTORE PUSH1 0x20 ADD SWAP1 DUP2 MSTORE PUSH1 0x20 ADD PUSH1 0x0 KECCAK256 PUSH1 0x0 SWAP1 SLOAD SWAP1 PUSH2 0x100 EXP SWAP1 DIV PUSH1 0xFF AND DUP1 PUSH2 0xC4E JUMPI POP PUSH1 0x8 PUSH1 0x0 SWAP1 SLOAD SWAP1 PUSH2 0x100 EXP SWAP1 DIV PUSH20 0xFFFFFFFFFFFFFFFFFFFFFFFFFFFFFFFFFFFFFFFF AND PUSH20 0xFFFFFFFFFFFFFFFFFFFFFFFFFFFFFFFFFFFFFFFF AND CALLER PUSH20 0xFFFFFFFFFFFFFFFFFFFFFFFFFFFFFFFFFFFFFFFF AND EQ JUMPDEST PUSH2 0xC8D JUMPI PUSH1 0x40 MLOAD PUSH32 0x8C379A000000000000000000000000000000000000000000000000000000000 DUP2 MSTORE PUSH1 0x4 ADD PUSH2 0xC84 SWAP1 PUSH2 0x242B JUMP JUMPDEST PUSH1 0x40 MLOAD DUP1 SWAP2 SUB SWAP1 REVERT JUMPDEST PUSH1 0x3 PUSH1 0x4 DUP2 GT ISZERO PUSH2 0xCA1 JUMPI PUSH2 0xCA0 PUSH2 0x1F59 JUMP JUMPDEST JUMPDEST PUSH1 0x1 PUSH1 0x0 DUP4 DUP2 MSTORE PUSH1 0x20 ADD SWAP1 DUP2 MSTORE PUSH1 0x20 ADD PUSH1 0x0 KECCAK256 PUSH1 0x0 SWAP1 SLOAD SWAP1 PUSH2 0x100 EXP SWAP1 DIV PUSH1 0xFF AND PUSH1 0x4 DUP2 GT ISZERO PUSH2 0xCD4 JUMPI PUSH2 0xCD3 PUSH2 0x1F59 JUMP JUMPDEST JUMPDEST EQ PUSH2 0xD14 JUMPI PUSH1 0x40 MLOAD PUSH32 0x8C379A000000000000000000000000000000000000000000000000000000000 DUP2 MSTORE PUSH1 0x4 ADD PUSH2 0xD0B SWAP1 PUSH2 0x29DF JUMP JUMPDEST PUSH1 0x40 MLOAD DUP1 SWAP2 SUB SWAP1 REVERT JUMPDEST PUSH1 0x5 PUSH1 0x0 DUP3 DUP2 MSTORE PUSH1 0x20 ADD SWAP1 DUP2 MSTORE PUSH1 0x20 ADD PUSH1 0x0 KECCAK256 PUSH1 0x0 SWAP1 SLOAD SWAP1 PUSH2 0x100 EXP SWAP1 DIV PUSH20 0xFFFFFFFFFFFFFFFFFFFFFFFFFFFFFFFFFFFFFFFF AND PUSH20 0xFFFFFFFFFFFFFFFFFFFFFFFFFFFFFFFFFFFFFFFF AND CALLER PUSH20 0xFFFFFFFFFFFFFFFFFFFFFFFFFFFFFFFFFFFFFFFF AND EQ PUSH2 0xDB5 JUMPI PUSH1 0x40 MLOAD PUSH32 0x8C379A000000000000000000000000000000000000000000000000000000000 DUP2 MSTORE PUSH1 0x4 ADD PUSH2 0xDAC SWAP1 PUSH2 0x2907 JUMP JUMPDEST PUSH1 0x40 MLOAD DUP1 SWAP2 SUB SWAP1 REVERT JUMPDEST PUSH2 0xDC0 DUP2 PUSH1 0x3 PUSH2 0x1B53 JUMP JUMPDEST PUSH1 0x4 PUSH1 0x1 PUSH1 0x0 DUP4 DUP2 MSTORE PUSH1 0x20 ADD SWAP1 DUP2 MSTORE PUSH1 0x20 ADD PUSH1 0x0 KECCAK256 PUSH1 0x0 PUSH2 0x100 EXP DUP2 SLOAD DUP2 PUSH1 0xFF MUL NOT AND SWAP1 DUP4 PUSH1 0x4 DUP2 GT ISZERO PUSH2 0xDF7 JUMPI PUSH2 0xDF6 PUSH2 0x1F59 JUMP JUMPDEST JUMPDEST MUL OR SWAP1 SSTORE POP PUSH1 0x2 PUSH1 0x0 PUSH1 0x4 DUP1 DUP2 GT ISZERO PUSH2 0xE13 JUMPI PUSH2 0xE12 PUSH2 0x1F59 JUMP JUMPDEST JUMPDEST PUSH1 0xFF AND PUSH1 0xFF AND DUP2 MSTORE PUSH1 0x20 ADD SWAP1 DUP2 MSTORE PUSH1 0x20 ADD PUSH1 0x0 KECCAK256 DUP1 SLOAD SWAP1 POP PUSH1 0x3 PUSH1 0x0 DUP4 DUP2 MSTORE PUSH1 0x20 ADD SWAP1 DUP2 MSTORE PUSH1 0x20 ADD PUSH1 0x0 KECCAK256 DUP2 SWAP1 SSTORE POP PUSH1 0x2 PUSH1 0x0 PUSH1 0x4 DUP1 DUP2 GT ISZERO PUSH2 0xE59 JUMPI PUSH2 0xE58 PUSH2 0x1F59 JUMP JUMPDEST JUMPDEST PUSH1 0xFF AND PUSH1 0xFF AND DUP2 MSTORE PUSH1 0x20 ADD SWAP1 DUP2 MSTORE PUSH1 0x20 ADD PUSH1 0x0 KECCAK256 DUP2 SWAP1 DUP1 PUSH1 0x1 DUP2 SLOAD ADD DUP1 DUP3 SSTORE DUP1 SWAP2 POP POP PUSH1 0x1 SWAP1 SUB SWAP1 PUSH1 0x0 MSTORE PUSH1 0x20 PUSH1 0x0 KECCAK256 ADD PUSH1 0x0 SWAP1 SWAP2 SWAP1 SWAP2 SWAP1 SWAP2 POP SSTORE DUP1 PUSH32 0xBBEC0B967A4A7047807D3B3AABEF6C5FE63B7284BE1A4C4750A5729541E71407 PUSH1 0x40 MLOAD PUSH1 0x40 MLOAD DUP1 SWAP2 SUB SWAP1 LOG2 POP JUMP JUMPDEST PUSH1 0x8 PUSH1 0x0 SWAP1 SLOAD SWAP1 PUSH2 0x100 EXP SWAP1 DIV PUSH20 0xFFFFFFFFFFFFFFFFFFFFFFFFFFFFFFFFFFFFFFFF AND PUSH20 0xFFFFFFFFFFFFFFFFFFFFFFFFFFFFFFFFFFFFFFFF AND CALLER PUSH20 0xFFFFFFFFFFFFFFFFFFFFFFFFFFFFFFFFFFFFFFFF AND EQ PUSH2 0xF54 JUMPI PUSH1 0x40 MLOAD PUSH32 0x8C379A000000000000000000000000000000000000000000000000000000000 DUP2 MSTORE PUSH1 0x4 ADD PUSH2 0xF4B SWAP1 PUSH2 0x2497 JUMP JUMPDEST PUSH1 0x40 MLOAD DUP1 SWAP2 SUB SWAP1 REVERT JUMPDEST PUSH1 0x9 PUSH1 0x0 DUP3 PUSH20 0xFFFFFFFFFFFFFFFFFFFFFFFFFFFFFFFFFFFFFFFF AND PUSH20 0xFFFFFFFFFFFFFFFFFFFFFFFFFFFFFFFFFFFFFFFF AND DUP2 MSTORE PUSH1 0x20 ADD SWAP1 DUP2 MSTORE PUSH1 0x20 ADD PUSH1 0x0 KECCAK256 PUSH1 0x0 SWAP1 SLOAD SWAP1 PUSH2 0x100 EXP SWAP1 DIV PUSH1 0xFF AND PUSH2 0xFE0 JUMPI PUSH1 0x40 MLOAD PUSH32 0x8C379A000000000000000000000000000000000000000000000000000000000 DUP2 MSTORE PUSH1 0x4 ADD PUSH2 0xFD7 SWAP1 PUSH2 0x2A4B JUMP JUMPDEST PUSH1 0x40 MLOAD DUP1 SWAP2 SUB SWAP1 REVERT JUMPDEST PUSH1 0x0 PUSH1 0x9 PUSH1 0x0 DUP4 PUSH20 0xFFFFFFFFFFFFFFFFFFFFFFFFFFFFFFFFFFFFFFFF AND PUSH20 0xFFFFFFFFFFFFFFFFFFFFFFFFFFFFFFFFFFFFFFFF AND DUP2 MSTORE PUSH1 0x20 ADD SWAP1 DUP2 MSTORE PUSH1 0x20 ADD PUSH1 0x0 KECCAK256 PUSH1 0x0 PUSH2 0x100 EXP DUP2 SLOAD DUP2 PUSH1 0xFF MUL NOT AND SWAP1 DUP4 ISZERO ISZERO MUL OR SWAP1 SSTORE POP DUP1 PUSH20 0xFFFFFFFFFFFFFFFFFFFFFFFFFFFFFFFFFFFFFFFF AND PUSH32 0xA1A654053D0241D9A21038D7AFC0A939AA3BE322B6AB46323DDF73D6FBC1B6E1 PUSH1 0x40 MLOAD PUSH1 0x40 MLOAD DUP1 SWAP2 SUB SWAP1 LOG2 POP JUMP JUMPDEST PUSH1 0x7 PUSH1 0x20 MSTORE DUP1 PUSH1 0x0 MSTORE PUSH1 0x40 PUSH1 0x0 KECCAK256 PUSH1 0x0 SWAP2 POP SWAP1 POP SLOAD DUP2 JUMP JUMPDEST PUSH1 0x4 PUSH1 0x20 MSTORE DUP1 PUSH1 0x0 MSTORE PUSH1 0x40 PUSH1 0x0 KECCAK256 PUSH1 0x0 SWAP2 POP SLOAD SWAP1 PUSH2 0x100 EXP SWAP1 DIV PUSH20 0xFFFFFFFFFFFFFFFFFFFFFFFFFFFFFFFFFFFFFFFF AND DUP2 JUMP JUMPDEST PUSH1 0x9 PUSH1 0x0 CALLER PUSH20 0xFFFFFFFFFFFFFFFFFFFFFFFFFFFFFFFFFFFFFFFF AND PUSH20 0xFFFFFFFFFFFFFFFFFFFFFFFFFFFFFFFFFFFFFFFF AND DUP2 MSTORE PUSH1 0x20 ADD SWAP1 DUP2 MSTORE PUSH1 0x20 ADD PUSH1 0x0 KECCAK256 PUSH1 0x0 SWAP1 SLOAD SWAP1 PUSH2 0x100 EXP SWAP1 DIV PUSH1 0xFF AND DUP1 PUSH2 0x116E JUMPI POP PUSH1 0x8 PUSH1 0x0 SWAP1 SLOAD SWAP1 PUSH2 0x100 EXP SWAP1 DIV PUSH20 0xFFFFFFFFFFFFFFFFFFFFFFFFFFFFFFFFFFFFFFFF AND PUSH20 0xFFFFFFFFFFFFFFFFFFFFFFFFFFFFFFFFFFFFFFFF AND CALLER PUSH20 0xFFFFFFFFFFFFFFFFFFFFFFFFFFFFFFFFFFFFFFFF AND EQ JUMPDEST PUSH2 0x11AD JUMPI PUSH1 0x40 MLOAD PUSH32 0x8C379A000000000000000000000000000000000000000000000000000000000 DUP2 MSTORE PUSH1 0x4 ADD PUSH2 0x11A4 SWAP1 PUSH2 0x242B JUMP JUMPDEST PUSH1 0x40 MLOAD DUP1 SWAP2 SUB SWAP1 REVERT JUMPDEST PUSH1 0x2 PUSH1 0x4 DUP2 GT ISZERO PUSH2 0x11C1 JUMPI PUSH2 0x11C0 PUSH2 0x1F59 JUMP JUMPDEST JUMPDEST PUSH1 0x1 PUSH1 0x0 DUP4 DUP2 MSTORE PUSH1 0x20 ADD SWAP1 DUP2 MSTORE PUSH1 0x20 ADD PUSH1 0x0 KECCAK256 PUSH1 0x0 SWAP1 SLOAD SWAP1 PUSH2 0x100 EXP SWAP1 DIV PUSH1 0xFF AND PUSH1 0x4 DUP2 GT ISZERO PUSH2 0x11F4 JUMPI PUSH2 0x11F3 PUSH2 0x1F59 JUMP JUMPDEST JUMPDEST EQ PUSH2 0x1234 JUMPI PUSH1 0x40 MLOAD PUSH32 0x8C379A000000000000000000000000000000000000000000000000000000000 DUP2 MSTORE PUSH1 0x4 ADD PUSH2 0x122B SWAP1 PUSH2 0x2AB7 JUMP JUMPDEST PUSH1 0x40 MLOAD DUP1 SWAP2 SUB SWAP1 REVERT JUMPDEST PUSH1 0x4 PUSH1 0x0 DUP3 DUP2 MSTORE PUSH1 0x20 ADD SWAP1 DUP2 MSTORE PUSH1 0x20 ADD PUSH1 0x0 KECCAK256 PUSH1 0x0 SWAP1 SLOAD SWAP1 PUSH2 0x100 EXP SWAP1 DIV PUSH20 0xFFFFFFFFFFFFFFFFFFFFFFFFFFFFFFFFFFFFFFFF AND PUSH20 0xFFFFFFFFFFFFFFFFFFFFFFFFFFFFFFFFFFFFFFFF AND CALLER PUSH20 0xFFFFFFFFFFFFFFFFFFFFFFFFFFFFFFFFFFFFFFFF AND EQ PUSH2 0x12D5 JUMPI PUSH1 0x40 MLOAD PUSH32 0x8C379A000000000000000000000000000000000000000000000000000000000 DUP2 MSTORE PUSH1 0x4 ADD PUSH2 0x12CC SWAP1 PUSH2 0x2B23 JUMP JUMPDEST PUSH1 0x40 MLOAD DUP1 SWAP2 SUB SWAP1 REVERT JUMPDEST PUSH2 0x12E0 DUP2 PUSH1 0x2 PUSH2 0x1B53 JUMP JUMPDEST PUSH1 0x3 PUSH1 0x1 PUSH1 0x0 DUP4 DUP2 MSTORE PUSH1 0x20 ADD SWAP1 DUP2 MSTORE PUSH1 0x20 ADD PUSH1 0x0 KECCAK256 PUSH1 0x0 PUSH2 0x100 EXP DUP2 SLOAD DUP2 PUSH1 0xFF MUL NOT AND SWAP1 DUP4 PUSH1 0x4 DUP2 GT ISZERO PUSH2 0x1317 JUMPI PUSH2 0x1316 PUSH2 0x1F59 JUMP JUMPDEST JUMPDEST MUL OR SWAP1 SSTORE POP PUSH1 0x2 PUSH1 0x0 PUSH1 0x3 PUSH1 0x4 DUP2 GT ISZERO PUSH2 0x1334 JUMPI PUSH2 0x1333 PUSH2 0x1F59 JUMP JUMPDEST JUMPDEST PUSH1 0xFF AND PUSH1 0xFF AND DUP2 MSTORE PUSH1 0x20 ADD SWAP1 DUP2 MSTORE PUSH1 0x20 ADD PUSH1 0x0 KECCAK256 DUP1 SLOAD SWAP1 POP PUSH1 0x3 PUSH1 0x0 DUP4 DUP2 MSTORE PUSH1 0x20 ADD SWAP1 DUP2 MSTORE PUSH1 0x20 ADD PUSH1 0x0 KECCAK256 DUP2 SWAP1 SSTORE POP PUSH1 0x2 PUSH1 0x0 PUSH1 0x3 PUSH1 0x4 DUP2 GT ISZERO PUSH2 0x137B JUMPI PUSH2 0x137A PUSH2 0x1F59 JUMP JUMPDEST JUMPDEST PUSH1 0xFF AND PUSH1 0xFF AND DUP2 MSTORE PUSH1 0x20 ADD SWAP1 DUP2 MSTORE PUSH1 0x20 ADD PUSH1 0x0 KECCAK256 DUP2 SWAP1 DUP1 PUSH1 0x1 DUP2 SLOAD ADD DUP1 DUP3 SSTORE DUP1 SWAP2 POP POP PUSH1 0x1 SWAP1 SUB SWAP1 PUSH1 0x0 MSTORE PUSH1 0x20 PUSH1 0x0 KECCAK256 ADD PUSH1 0x0 SWAP1 SWAP2 SWAP1 SWAP2 SWAP1 SWAP2 POP SSTORE DUP1 PUSH32 0x679D820D524425AB4EE5896BD007960EE535FC991A63E905474E17168A99949B PUSH1 0x40 MLOAD PUSH1 0x40 MLOAD DUP1 SWAP2 SUB SWAP1 LOG2 POP JUMP JUMPDEST PUSH1 0x9 PUSH1 0x20 MSTORE DUP1 PUSH1 0x0 MSTORE PUSH1 0x40 PUSH1 0x0 KECCAK256 PUSH1 0x0 SWAP2 POP SLOAD SWAP1 PUSH2 0x100 EXP SWAP1 DIV PUSH1 0xFF AND DUP2 JUMP JUMPDEST PUSH1 0xA DUP2 DUP1 MLOAD PUSH1 0x20 DUP2 ADD DUP3 ADD DUP1 MLOAD DUP5 DUP3 MSTORE PUSH1 0x20 DUP4 ADD PUSH1 0x20 DUP6 ADD KECCAK256 DUP2 DUP4 MSTORE DUP1 SWAP6 POP POP POP POP POP POP PUSH1 0x0 SWAP2 POP SWAP1 POP DUP1 SLOAD PUSH2 0x143B SWAP1 PUSH2 0x253A JUMP JUMPDEST DUP1 PUSH1 0x1F ADD PUSH1 0x20 DUP1 SWAP2 DIV MUL PUSH1 0x20 ADD PUSH1 0x40 MLOAD SWAP1 DUP2 ADD PUSH1 0x40 MSTORE DUP1 SWAP3 SWAP2 SWAP1 DUP2 DUP2 MSTORE PUSH1 0x20 ADD DUP3 DUP1 SLOAD PUSH2 0x1467 SWAP1 PUSH2 0x253A JUMP JUMPDEST DUP1 ISZERO PUSH2 0x14B4 JUMPI DUP1 PUSH1 0x1F LT PUSH2 0x1489 JUMPI PUSH2 0x100 DUP1 DUP4 SLOAD DIV MUL DUP4 MSTORE SWAP2 PUSH1 0x20 ADD SWAP2 PUSH2 0x14B4 JUMP JUMPDEST DUP3 ADD SWAP2 SWAP1 PUSH1 0x0 MSTORE PUSH1 0x20 PUSH1 0x0 KECCAK256 SWAP1 JUMPDEST DUP2 SLOAD DUP2 MSTORE SWAP1 PUSH1 0x1 ADD SWAP1 PUSH1 0x20 ADD DUP1 DUP4 GT PUSH2 0x1497 JUMPI DUP3 SWAP1 SUB PUSH1 0x1F AND DUP3 ADD SWAP2 JUMPDEST POP POP POP POP POP DUP2 JUMP JUMPDEST PUSH1 0x60 PUSH1 0x2 PUSH1 0x0 DUP4 PUSH1 0x4 DUP2 GT ISZERO PUSH2 0x14D5 JUMPI PUSH2 0x14D4 PUSH2 0x1F59 JUMP JUMPDEST JUMPDEST PUSH1 0xFF AND PUSH1 0xFF AND DUP2 MSTORE PUSH1 0x20 ADD SWAP1 DUP2 MSTORE PUSH1 0x20 ADD PUSH1 0x0 KECCAK256 DUP1 SLOAD DUP1 PUSH1 0x20 MUL PUSH1 0x20 ADD PUSH1 0x40 MLOAD SWAP1 DUP2 ADD PUSH1 0x40 MSTORE DUP1 SWAP3 SWAP2 SWAP1 DUP2 DUP2 MSTORE PUSH1 0x20 ADD DUP3 DUP1 SLOAD DUP1 ISZERO PUSH2 0x1533 JUMPI PUSH1 0x20 MUL DUP3 ADD SWAP2 SWAP1 PUSH1 0x0 MSTORE PUSH1 0x20 PUSH1 0x0 KECCAK256 SWAP1 JUMPDEST DUP2 SLOAD DUP2 MSTORE PUSH1 0x20 ADD SWAP1 PUSH1 0x1 ADD SWAP1 DUP1 DUP4 GT PUSH2 0x151F JUMPI JUMPDEST POP POP POP POP POP SWAP1 POP SWAP2 SWAP1 POP JUMP JUMPDEST PUSH1 0x5 PUSH1 0x20 MSTORE DUP1 PUSH1 0x0 MSTORE PUSH1 0x40 PUSH1 0x0 KECCAK256 PUSH1 0x0 SWAP2 POP SLOAD SWAP1 PUSH2 0x100 EXP SWAP1 DIV PUSH20 0xFFFFFFFFFFFFFFFFFFFFFFFFFFFFFFFFFFFFFFFF AND DUP2 JUMP JUMPDEST PUSH1 0x8 PUSH1 0x0 SWAP1 SLOAD SWAP1 PUSH2 0x100 EXP SWAP1 DIV PUSH20 0xFFFFFFFFFFFFFFFFFFFFFFFFFFFFFFFFFFFFFFFF AND DUP2 JUMP JUMPDEST PUSH1 0x0 PUSH1 0x9 PUSH1 0x0 CALLER PUSH20 0xFFFFFFFFFFFFFFFFFFFFFFFFFFFFFFFFFFFFFFFF AND PUSH20 0xFFFFFFFFFFFFFFFFFFFFFFFFFFFFFFFFFFFFFFFF AND DUP2 MSTORE PUSH1 0x20 ADD SWAP1 DUP2 MSTORE PUSH1 0x20 ADD PUSH1 0x0 KECCAK256 PUSH1 0x0 SWAP1 SLOAD SWAP1 PUSH2 0x100 EXP SWAP1 DIV PUSH1 0xFF AND DUP1 PUSH2 0x163F JUMPI POP PUSH1 0x8 PUSH1 0x0 SWAP1 SLOAD SWAP1 PUSH2 0x100 EXP SWAP1 DIV PUSH20 0xFFFFFFFFFFFFFFFFFFFFFFFFFFFFFFFFFFFFFFFF AND PUSH20 0xFFFFFFFFFFFFFFFFFFFFFFFFFFFFFFFFFFFFFFFF AND CALLER PUSH20 0xFFFFFFFFFFFFFFFFFFFFFFFFFFFFFFFFFFFFFFFF AND EQ JUMPDEST PUSH2 0x167E JUMPI PUSH1 0x40 MLOAD PUSH32 0x8C379A000000000000000000000000000000000000000000000000000000000 DUP2 MSTORE PUSH1 0x4 ADD PUSH2 0x1675 SWAP1 PUSH2 0x242B JUMP JUMPDEST PUSH1 0x40 MLOAD DUP1 SWAP2 SUB SWAP1 REVERT JUMPDEST PUSH1 0x0 DUP5 DUP5 SWAP1 POP SUB PUSH2 0x16C4 JUMPI PUSH1 0x40 MLOAD PUSH32 0x8C379A000000000000000000000000000000000000000000000000000000000 DUP2 MSTORE PUSH1 0x4 ADD PUSH2 0x16BB SWAP1 PUSH2 0x2B8F JUMP JUMPDEST PUSH1 0x40 MLOAD DUP1 SWAP2 SUB SWAP1 REVERT JUMPDEST PUSH1 0x0 PUSH1 0xA DUP8 DUP8 PUSH1 0x40 MLOAD PUSH2 0x16D8 SWAP3 SWAP2 SWAP1 PUSH2 0x24E7 JUMP JUMPDEST SWAP1 DUP2 MSTORE PUSH1 0x20 ADD PUSH1 0x40 MLOAD DUP1 SWAP2 SUB SWAP1 KECCAK256 SWAP1 POP PUSH1 0x0 DUP2 DUP1 SLOAD PUSH2 0x16F6 SWAP1 PUSH2 0x253A JUMP JUMPDEST SWAP1 POP SUB PUSH2 0x176F JUMPI DUP5 DUP5 PUSH1 0xA DUP10 DUP10 PUSH1 0x40 MLOAD PUSH2 0x1711 SWAP3 SWAP2 SWAP1 PUSH2 0x24E7 JUMP JUMPDEST SWAP1 DUP2 MSTORE PUSH1 0x20 ADD PUSH1 0x40 MLOAD DUP1 SWAP2 SUB SWAP1 KECCAK256 SWAP2 DUP3 PUSH2 0x172C SWAP3 SWAP2 SWAP1 PUSH2 0x2717 JUMP JUMPDEST POP PUSH32 0x814E0EE4D86911D8252FCF2F504E81549099783D27D63A57E817AA7D157478F4 DUP8 DUP8 DUP8 DUP8 PUSH1 0x40 MLOAD PUSH2 0x1762 SWAP5 SWAP4 SWAP3 SWAP2 SWAP1 PUSH2 0x2814 JUMP JUMPDEST PUSH1 0x40 MLOAD DUP1 SWAP2 SUB SWAP1 LOG1 PUSH2 0x17DE JUMP JUMPDEST DUP5 DUP5 PUSH1 0x40 MLOAD PUSH2 0x177F SWAP3 SWAP2 SWAP1 PUSH2 0x2BDF JUMP JUMPDEST PUSH1 0x40 MLOAD DUP1 SWAP2 SUB SWAP1 KECCAK256 DUP2 PUSH1 0x40 MLOAD PUSH2 0x1795 SWAP2 SWAP1 PUSH2 0x2C90 JUMP JUMPDEST PUSH1 0x40 MLOAD DUP1 SWAP2 SUB SWAP1 KECCAK256 EQ PUSH2 0x17DD JUMPI PUSH1 0x40 MLOAD PUSH32 0x8C379A000000000000000000000000000000000000000000000000000000000 DUP2 MSTORE PUSH1 0x4 ADD PUSH2 0x17D4 SWAP1 PUSH2 0x2CF3 JUMP JUMPDEST PUSH1 0x40 MLOAD DUP1 SWAP2 SUB SWAP1 REVERT JUMPDEST JUMPDEST PUSH2 0x182E DUP10 DUP10 DUP10 DUP10 DUP1 DUP1 PUSH1 0x1F ADD PUSH1 0x20 DUP1 SWAP2 DIV MUL PUSH1 0x20 ADD PUSH1 0x40 MLOAD SWAP1 DUP2 ADD PUSH1 0x40 MSTORE DUP1 SWAP4 SWAP3 SWAP2 SWAP1 DUP2 DUP2 MSTORE PUSH1 0x20 ADD DUP4 DUP4 DUP1 DUP3 DUP5 CALLDATACOPY PUSH1 0x0 DUP2 DUP5 ADD MSTORE PUSH1 0x1F NOT PUSH1 0x1F DUP3 ADD AND SWAP1 POP DUP1 DUP4 ADD SWAP3 POP POP POP POP POP POP POP DUP7 PUSH2 0x183C JUMP JUMPDEST SWAP2 POP POP SWAP8 SWAP7 POP POP POP POP POP POP POP JUMP JUMPDEST PUSH1 0x0 CALLER PUSH20 0xFFFFFFFFFFFFFFFFFFFFFFFFFFFFFFFFFFFFFFFF AND DUP6 PUSH20 0xFFFFFFFFFFFFFFFFFFFFFFFFFFFFFFFFFFFFFFFF AND SUB PUSH2 0x18AC JUMPI PUSH1 0x40 MLOAD PUSH32 0x8C379A000000000000000000000000000000000000000000000000000000000 DUP2 MSTORE PUSH1 0x4 ADD PUSH2 0x18A3 SWAP1 PUSH2 0x2D5F JUMP JUMPDEST PUSH1 0x40 MLOAD DUP1 SWAP2 SUB SWAP1 REVERT JUMPDEST PUSH1 0x0 PUSH1 0xA DUP5 PUSH1 0x40 MLOAD PUSH2 0x18BE SWAP2 SWAP1 PUSH2 0x2DB0 JUMP JUMPDEST SWAP1 DUP2 MSTORE PUSH1 0x20 ADD PUSH1 0x40 MLOAD DUP1 SWAP2 SUB SWAP1 KECCAK256 DUP1 SLOAD PUSH2 0x18D7 SWAP1 PUSH2 0x253A JUMP JUMPDEST SWAP1 POP SUB PUSH2 0x1919 JUMPI PUSH1 0x40 MLOAD PUSH32 0x8C379A000000000000000000000000000000000000000000000000000000000 DUP2 MSTORE PUSH1 0x4 ADD PUSH2 0x1910 SWAP1 PUSH2 0x2B8F JUMP JUMPDEST PUSH1 0x40 MLOAD DUP1 SWAP2 SUB SWAP1 REVERT JUMPDEST PUSH1 0x0 DUP1 DUP2 SLOAD DUP1 SWAP3 SWAP2 SWAP1 PUSH2 0x192B SWAP1 PUSH2 0x2DF6 JUMP JUMPDEST SWAP2 SWAP1 POP SSTORE SWAP1 POP CALLER PUSH1 0x4 PUSH1 0x0 DUP4 DUP2 MSTORE PUSH1 0x20 ADD SWAP1 DUP2 MSTORE PUSH1 0x20 ADD PUSH1 0x0 KECCAK256 PUSH1 0x0 PUSH2 0x100 EXP DUP2 SLOAD DUP2 PUSH20 0xFFFFFFFFFFFFFFFFFFFFFFFFFFFFFFFFFFFFFFFF MUL NOT AND SWAP1 DUP4 PUSH20 0xFFFFFFFFFFFFFFFFFFFFFFFFFFFFFFFFFFFFFFFF AND MUL OR SWAP1 SSTORE POP DUP5 PUSH1 0x5 PUSH1 0x0 DUP4 DUP2 MSTORE PUSH1 0x20 ADD SWAP1 DUP2 MSTORE PUSH1 0x20 ADD PUSH1 0x0 KECCAK256 PUSH1 0x0 PUSH2 0x100 EXP DUP2 SLOAD DUP2 PUSH20 0xFFFFFFFFFFFFFFFFFFFFFFFFFFFFFFFFFFFFFFFF MUL NOT AND SWAP1 DUP4 PUSH20 0xFFFFFFFFFFFFFFFFFFFFFFFFFFFFFFFFFFFFFFFF AND MUL OR SWAP1 SSTORE POP DUP3 PUSH1 0x6 PUSH1 0x0 DUP4 DUP2 MSTORE PUSH1 0x20 ADD SWAP1 DUP2 MSTORE PUSH1 0x20 ADD PUSH1 0x0 KECCAK256 SWAP1 DUP2 PUSH2 0x19F5 SWAP2 SWAP1 PUSH2 0x2E3E JUMP JUMPDEST POP DUP2 PUSH1 0x7 PUSH1 0x0 DUP4 DUP2 MSTORE PUSH1 0x20 ADD SWAP1 DUP2 MSTORE PUSH1 0x20 ADD PUSH1 0x0 KECCAK256 DUP2 SWAP1 SSTORE POP PUSH1 0x1 DUP1 PUSH1 0x0 DUP4 DUP2 MSTORE PUSH1 0x20 ADD SWAP1 DUP2 MSTORE PUSH1 0x20 ADD PUSH1 0x0 KECCAK256 PUSH1 0x0 PUSH2 0x100 EXP DUP2 SLOAD DUP2 PUSH1 0xFF MUL NOT AND SWAP1 DUP4 PUSH1 0x4 DUP2 GT ISZERO PUSH2 0x1A44 JUMPI PUSH2 0x1A43 PUSH2 0x1F59 JUMP JUMPDEST JUMPDEST MUL OR SWAP1 SSTORE POP PUSH1 0x2 PUSH1 0x0 PUSH1 0x1 PUSH1 0x4 DUP2 GT ISZERO PUSH2 0x1A61 JUMPI PUSH2 0x1A60 PUSH2 0x1F59 JUMP JUMPDEST JUMPDEST PUSH1 0xFF AND PUSH1 0xFF AND DUP2 MSTORE PUSH1 0x20 ADD SWAP1 DUP2 MSTORE PUSH1 0x20 ADD PUSH1 0x0 KECCAK256 DUP1 SLOAD SWAP1 POP PUSH1 0x3 PUSH1 0x0 DUP4 DUP2 MSTORE PUSH1 0x20 ADD SWAP1 DUP2 MSTORE PUSH1 0x20 ADD PUSH1 0x0 KECCAK256 DUP2 SWAP1 SSTORE POP PUSH1 0x2 PUSH1 0x0 PUSH1 0x1 PUSH1 0x4 DUP2 GT ISZERO PUSH2 0x1AA8 JUMPI PUSH2 0x1AA7 PUSH2 0x1F59 JUMP JUMPDEST JUMPDEST PUSH1 0xFF AND PUSH1 0xFF AND DUP2 MSTORE PUSH1 0x20 ADD SWAP1 DUP2 MSTORE PUSH1 0x20 ADD PUSH1 0x0 KECCAK256 DUP2 SWAP1 DUP1 PUSH1 0x1 DUP2 SLOAD ADD DUP1 DUP3 SSTORE DUP1 SWAP2 POP POP PUSH1 0x1 SWAP1 SUB SWAP1 PUSH1 0x0 MSTORE PUSH1 0x20 PUSH1 0x0 KECCAK256 ADD PUSH1 0x0 SWAP1 SWAP2 SWAP1 SWAP2 SWAP1 SWAP2 POP SSTORE DUP5 PUSH20 0xFFFFFFFFFFFFFFFFFFFFFFFFFFFFFFFFFFFFFFFF AND CALLER PUSH20 0xFFFFFFFFFFFFFFFFFFFFFFFFFFFFFFFFFFFFFFFF AND DUP3 PUSH32 0x31BA85B55025DDB5BE9FE39085EFFB86A3E5B63876CF18F1D9E5926F7B84C01A DUP8 DUP7 PUSH1 0x40 MLOAD PUSH2 0x1B43 SWAP3 SWAP2 SWAP1 PUSH2 0x2F10 JUMP JUMPDEST PUSH1 0x40 MLOAD DUP1 SWAP2 SUB SWAP1 LOG4 SWAP5 SWAP4 POP POP POP POP JUMP JUMPDEST PUSH1 0x0 DUP2 PUSH1 0x4 DUP2 GT ISZERO PUSH2 0x1B68 JUMPI PUSH2 0x1B67 PUSH2 0x1F59 JUMP JUMPDEST JUMPDEST SWAP1 POP PUSH1 0x0 PUSH1 0x3 PUSH1 0x0 DUP6 DUP2 MSTORE PUSH1 0x20 ADD SWAP1 DUP2 MSTORE PUSH1 0x20 ADD PUSH1 0x0 KECCAK256 SLOAD SWAP1 POP PUSH1 0x0 PUSH1 0x2 PUSH1 0x0 DUP5 PUSH1 0xFF AND PUSH1 0xFF AND DUP2 MSTORE PUSH1 0x20 ADD SWAP1 DUP2 MSTORE PUSH1 0x20 ADD PUSH1 0x0 KECCAK256 SWAP1 POP PUSH1 0x0 DUP2 PUSH1 0x1 DUP4 DUP1 SLOAD SWAP1 POP PUSH2 0x1BB3 SWAP2 SWAP1 PUSH2 0x2F39 JUMP JUMPDEST DUP2 SLOAD DUP2 LT PUSH2 0x1BC4 JUMPI PUSH2 0x1BC3 PUSH2 0x2F6D JUMP JUMPDEST JUMPDEST SWAP1 PUSH1 0x0 MSTORE PUSH1 0x20 PUSH1 0x0 KECCAK256 ADD SLOAD SWAP1 POP DUP1 DUP3 DUP5 DUP2 SLOAD DUP2 LT PUSH2 0x1BE5 JUMPI PUSH2 0x1BE4 PUSH2 0x2F6D JUMP JUMPDEST JUMPDEST SWAP1 PUSH1 0x0 MSTORE PUSH1 0x20 PUSH1 0x0 KECCAK256 ADD DUP2 SWAP1 SSTORE POP DUP3 PUSH1 0x3 PUSH1 0x0 DUP4 DUP2 MSTORE PUSH1 0x20 ADD SWAP1 DUP2 MSTORE PUSH1 0x20 ADD PUSH1 0x0 KECCAK256 DUP2 SWAP1 SSTORE POP DUP2 DUP1 SLOAD DUP1 PUSH2 0x1C1C JUMPI PUSH2 0x1C1B PUSH2 0x2F9C JUMP JUMPDEST JUMPDEST PUSH1 0x1 SWAP1 SUB DUP2 DUP2 SWAP1 PUSH1 0x0 MSTORE PUSH1 0x20 PUSH1 0x0 KECCAK256 ADD PUSH1 0x0 SWAP1 SSTORE SWAP1 SSTORE POP POP POP POP POP POP JUMP JUMPDEST PUSH1 0x0 PUSH1 0x40 MLOAD SWAP1 POP SWAP1 JUMP JUMPDEST PUSH1 0x0 DUP1 REVERT JUMPDEST PUSH1 0x0 DUP1 REVERT JUMPDEST PUSH1 0x0 PUSH20 0xFFFFFFFFFFFFFFFFFFFFFFFFFFFFFFFFFFFFFFFF DUP3 AND SWAP1 POP SWAP2 SWAP1 POP JUMP JUMPDEST PUSH1 0x0 PUSH2 0x1C79 DUP3 PUSH2 0x1C4E JUMP JUMPDEST SWAP1 POP SWAP2 SWAP1 POP JUMP JUMPDEST PUSH2 0x1C89 DUP2 PUSH2 0x1C6E JUMP JUMPDEST DUP2 EQ PUSH2 0x1C94 JUMPI PUSH1 0x0 DUP1 REVERT JUMPDEST POP JUMP JUMPDEST PUSH1 0x0 DUP2 CALLDATALOAD SWAP1 POP PUSH2 0x1CA6 DUP2 PUSH2 0x1C80 JUMP JUMPDEST SWAP3 SWAP2 POP POP JUMP JUMPDEST PUSH1 0x0 DUP2 SWAP1 POP SWAP2 SWAP1 POP JUMP JUMPDEST PUSH2 0x1CBF DUP2 PUSH2 0x1CAC JUMP JUMPDEST DUP2 EQ PUSH2 0x1CCA JUMPI PUSH1 0x0 DUP1 REVERT JUMPDEST POP JUMP JUMPDEST PUSH1 0x0 DUP2 CALLDATALOAD SWAP1 POP PUSH2 0x1CDC DUP2 PUSH2 0x1CB6 JUMP JUMPDEST SWAP3 SWAP2 POP POP JUMP JUMPDEST PUSH1 0x0 DUP1 REVERT JUMPDEST PUSH1 0x0 DUP1 REVERT JUMPDEST PUSH1 0x0 DUP1 REVERT JUMPDEST PUSH1 0x0 DUP1 DUP4 PUSH1 0x1F DUP5 ADD SLT PUSH2 0x1D07 JUMPI PUSH2 0x1D06 PUSH2 0x1CE2 JUMP JUMPDEST JUMPDEST DUP3 CALLDATALOAD SWAP1 POP PUSH8 0xFFFFFFFFFFFFFFFF DUP2 GT ISZERO PUSH2 0x1D24 JUMPI PUSH2 0x1D23 PUSH2 0x1CE7 JUMP JUMPDEST JUMPDEST PUSH1 0x20 DUP4 ADD SWAP2 POP DUP4 PUSH1 0x1 DUP3 MUL DUP4 ADD GT ISZERO PUSH2 0x1D40 JUMPI PUSH2 0x1D3F PUSH2 0x1CEC JUMP JUMPDEST JUMPDEST SWAP3 POP SWAP3 SWAP1 POP JUMP JUMPDEST PUSH1 0x0 DUP1 PUSH1 0x0 DUP1 PUSH1 0x0 PUSH1 0x80 DUP7 DUP9 SUB SLT ISZERO PUSH2 0x1D63 JUMPI PUSH2 0x1D62 PUSH2 0x1C44 JUMP JUMPDEST JUMPDEST PUSH1 0x0 PUSH2 0x1D71 DUP9 DUP3 DUP10 ADD PUSH2 0x1C97 JUMP JUMPDEST SWAP6 POP POP PUSH1 0x20 PUSH2 0x1D82 DUP9 DUP3 DUP10 ADD PUSH2 0x1CCD JUMP JUMPDEST SWAP5 POP POP PUSH1 0x40 DUP7 ADD CALLDATALOAD PUSH8 0xFFFFFFFFFFFFFFFF DUP2 GT ISZERO PUSH2 0x1DA3 JUMPI PUSH2 0x1DA2 PUSH2 0x1C49 JUMP JUMPDEST JUMPDEST PUSH2 0x1DAF DUP9 DUP3 DUP10 ADD PUSH2 0x1CF1 JUMP JUMPDEST SWAP4 POP SWAP4 POP POP PUSH1 0x60 PUSH2 0x1DC2 DUP9 DUP3 DUP10 ADD PUSH2 0x1CCD JUMP JUMPDEST SWAP2 POP POP SWAP3 SWAP6 POP SWAP3 SWAP6 SWAP1 SWAP4 POP JUMP JUMPDEST PUSH2 0x1DD8 DUP2 PUSH2 0x1CAC JUMP JUMPDEST DUP3 MSTORE POP POP JUMP JUMPDEST PUSH1 0x0 PUSH1 0x20 DUP3 ADD SWAP1 POP PUSH2 0x1DF3 PUSH1 0x0 DUP4 ADD DUP5 PUSH2 0x1DCF JUMP JUMPDEST SWAP3 SWAP2 POP POP JUMP JUMPDEST PUSH1 0x0 DUP1 PUSH1 0x0 DUP1 PUSH1 0x40 DUP6 DUP8 SUB SLT ISZERO PUSH2 0x1E13 JUMPI PUSH2 0x1E12 PUSH2 0x1C44 JUMP JUMPDEST JUMPDEST PUSH1 0x0 DUP6 ADD CALLDATALOAD PUSH8 0xFFFFFFFFFFFFFFFF DUP2 GT ISZERO PUSH2 0x1E31 JUMPI PUSH2 0x1E30 PUSH2 0x1C49 JUMP JUMPDEST JUMPDEST PUSH2 0x1E3D DUP8 DUP3 DUP9 ADD PUSH2 0x1CF1 JUMP JUMPDEST SWAP5 POP SWAP5 POP POP PUSH1 0x20 DUP6 ADD CALLDATALOAD PUSH8 0xFFFFFFFFFFFFFFFF DUP2 GT ISZERO PUSH2 0x1E60 JUMPI PUSH2 0x1E5F PUSH2 0x1C49 JUMP JUMPDEST JUMPDEST PUSH2 0x1E6C DUP8 DUP3 DUP9 ADD PUSH2 0x1CF1 JUMP JUMPDEST SWAP3 POP SWAP3 POP POP SWAP3 SWAP6 SWAP2 SWAP5 POP SWAP3 POP JUMP JUMPDEST PUSH1 0x0 PUSH1 0x20 DUP3 DUP5 SUB SLT ISZERO PUSH2 0x1E90 JUMPI PUSH2 0x1E8F PUSH2 0x1C44 JUMP JUMPDEST JUMPDEST PUSH1 0x0 PUSH2 0x1E9E DUP5 DUP3 DUP6 ADD PUSH2 0x1CCD JUMP JUMPDEST SWAP2 POP POP SWAP3 SWAP2 POP POP JUMP JUMPDEST PUSH1 0x0 DUP2 MLOAD SWAP1 POP SWAP2 SWAP1 POP JUMP JUMPDEST PUSH1 0x0 DUP3 DUP3 MSTORE PUSH1 0x20 DUP3 ADD SWAP1 POP SWAP3 SWAP2 POP POP JUMP JUMPDEST PUSH1 0x0 JUMPDEST DUP4 DUP2 LT ISZERO PUSH2 0x1EE1 JUMPI DUP1 DUP3 ADD MLOAD DUP2 DUP5 ADD MSTORE PUSH1 0x20 DUP2 ADD SWAP1 POP PUSH2 0x1EC6 JUMP JUMPDEST PUSH1 0x0 DUP5 DUP5 ADD MSTORE POP POP POP POP JUMP JUMPDEST PUSH1 0x0 PUSH1 0x1F NOT PUSH1 0x1F DUP4 ADD AND SWAP1 POP SWAP2 SWAP1 POP JUMP JUMPDEST PUSH1 0x0 PUSH2 0x1F09 DUP3 PUSH2 0x1EA7 JUMP JUMPDEST PUSH2 0x1F13 DUP2 DUP6 PUSH2 0x1EB2 JUMP JUMPDEST SWAP4 POP PUSH2 0x1F23 DUP2 DUP6 PUSH1 0x20 DUP7 ADD PUSH2 0x1EC3 JUMP JUMPDEST PUSH2 0x1F2C DUP2 PUSH2 0x1EED JUMP JUMPDEST DUP5 ADD SWAP2 POP POP SWAP3 SWAP2 POP POP JUMP JUMPDEST PUSH1 0x0 PUSH1 0x20 DUP3 ADD SWAP1 POP DUP2 DUP2 SUB PUSH1 0x0 DUP4 ADD MSTORE PUSH2 0x1F51 DUP2 DUP5 PUSH2 0x1EFE JUMP JUMPDEST SWAP1 POP SWAP3 SWAP2 POP POP JUMP JUMPDEST PUSH32 0x4E487B7100000000000000000000000000000000000000000000000000000000 PUSH1 0x0 MSTORE PUSH1 0x21 PUSH1 0x4 MSTORE PUSH1 0x24 PUSH1 0x0 REVERT JUMPDEST PUSH1 0x5 DUP2 LT PUSH2 0x1F99 JUMPI PUSH2 0x1F98 PUSH2 0x1F59 JUMP JUMPDEST JUMPDEST POP JUMP JUMPDEST PUSH1 0x0 DUP2 SWAP1 POP PUSH2 0x1FAA DUP3 PUSH2 0x1F88 JUMP JUMPDEST SWAP2 SWAP1 POP JUMP JUMPDEST PUSH1 0x0 PUSH2 0x1FBA DUP3 PUSH2 0x1F9C JUMP JUMPDEST SWAP1 POP SWAP2 SWAP1 POP JUMP JUMPDEST PUSH2 0x1FCA DUP2 PUSH2 0x1FAF JUMP JUMPDEST DUP3 MSTORE POP POP JUMP JUMPDEST PUSH1 0x0 PUSH1 0x20 DUP3 ADD SWAP1 POP PUSH2 0x1FE5 PUSH1 0x0 DUP4 ADD DUP5 PUSH2 0x1FC1 JUMP JUMPDEST SWAP3 SWAP2 POP POP JUMP JUMPDEST PUSH1 0x0 PUSH1 0x20 DUP3 DUP5 SUB SLT ISZERO PUSH2 0x2001 JUMPI PUSH2 0x2000 PUSH2 0x1C44 JUMP JUMPDEST JUMPDEST PUSH1 0x0 PUSH2 0x200F DUP5 DUP3 DUP6 ADD PUSH2 0x1C97 JUMP JUMPDEST SWAP2 POP POP SWAP3 SWAP2 POP POP JUMP JUMPDEST PUSH2 0x2021 DUP2 PUSH2 0x1C6E JUMP JUMPDEST DUP3 MSTORE POP POP JUMP JUMPDEST PUSH1 0x0 PUSH1 0x20 DUP3 ADD SWAP1 POP PUSH2 0x203C PUSH1 0x0 DUP4 ADD DUP5 PUSH2 0x2018 JUMP JUMPDEST SWAP3 SWAP2 POP POP JUMP JUMPDEST PUSH1 0x0 DUP2 ISZERO ISZERO SWAP1 POP SWAP2 SWAP1 POP JUMP JUMPDEST PUSH2 0x2057 DUP2 PUSH2 0x2042 JUMP JUMPDEST DUP3 MSTORE POP POP JUMP JUMPDEST PUSH1 0x0 PUSH1 0x20 DUP3 ADD SWAP1 POP PUSH2 0x2072 PUSH1 0x0 DUP4 ADD DUP5 PUSH2 0x204E JUMP JUMPDEST SWAP3 SWAP2 POP POP JUMP JUMPDEST PUSH1 0x0 DUP1 REVERT JUMPDEST PUSH32 0x4E487B7100000000000000000000000000000000000000000000000000000000 PUSH1 0x0 MSTORE PUSH1 0x41 PUSH1 0x4 MSTORE PUSH1 0x24 PUSH1 0x0 REVERT JUMPDEST PUSH2 0x20B5 DUP3 PUSH2 0x1EED JUMP JUMPDEST DUP2 ADD DUP2 DUP2 LT PUSH8 0xFFFFFFFFFFFFFFFF DUP3 GT OR ISZERO PUSH2 0x20D4 JUMPI PUSH2 0x20D3 PUSH2 0x207D JUMP JUMPDEST JUMPDEST DUP1 PUSH1 0x40 MSTORE POP POP POP JUMP JUMPDEST PUSH1 0x0 PUSH2 0x20E7 PUSH2 0x1C3A JUMP JUMPDEST SWAP1 POP PUSH2 0x20F3 DUP3 DUP3 PUSH2 0x20AC JUMP JUMPDEST SWAP2 SWAP1 POP JUMP JUMPDEST PUSH1 0x0 PUSH8 0xFFFFFFFFFFFFFFFF DUP3 GT ISZERO PUSH2 0x2113 JUMPI PUSH2 0x2112 PUSH2 0x207D JUMP JUMPDEST JUMPDEST PUSH2 0x211C DUP3 PUSH2 0x1EED JUMP JUMPDEST SWAP1 POP PUSH1 0x20 DUP2 ADD SWAP1 POP SWAP2 SWAP1 POP JUMP JUMPDEST DUP3 DUP2 DUP4 CALLDATACOPY PUSH1 0x0 DUP4 DUP4 ADD MSTORE POP POP POP JUMP JUMPDEST PUSH1 0x0 PUSH2 0x214B PUSH2 0x2146 DUP5 PUSH2 0x20F8 JUMP JUMPDEST PUSH2 0x20DD JUMP JUMPDEST SWAP1 POP DUP3 DUP2 MSTORE PUSH1 0x20 DUP2 ADD DUP5 DUP5 DUP5 ADD GT ISZERO PUSH2 0x2167 JUMPI PUSH2 0x2166 PUSH2 0x2078 JUMP JUMPDEST JUMPDEST PUSH2 0x2172 DUP5 DUP3 DUP6 PUSH2 0x2129 JUMP JUMPDEST POP SWAP4 SWAP3 POP POP POP JUMP JUMPDEST PUSH1 0x0 DUP3 PUSH1 0x1F DUP4 ADD SLT PUSH2 0x218F JUMPI PUSH2 0x218E PUSH2 0x1CE2 JUMP JUMPDEST JUMPDEST DUP2 CALLDATALOAD PUSH2 0x219F DUP5 DUP3 PUSH1 0x20 DUP7 ADD PUSH2 0x2138 JUMP JUMPDEST SWAP2 POP POP SWAP3 SWAP2 POP POP JUMP JUMPDEST PUSH1 0x0 PUSH1 0x20 DUP3 DUP5 SUB SLT ISZERO PUSH2 0x21BE JUMPI PUSH2 0x21BD PUSH2 0x1C44 JUMP JUMPDEST JUMPDEST PUSH1 0x0 DUP3 ADD CALLDATALOAD PUSH8 0xFFFFFFFFFFFFFFFF DUP2 GT ISZERO PUSH2 0x21DC JUMPI PUSH2 0x21DB PUSH2 0x1C49 JUMP JUMPDEST JUMPDEST PUSH2 0x21E8 DUP5 DUP3 DUP6 ADD PUSH2 0x217A JUMP JUMPDEST SWAP2 POP POP SWAP3 SWAP2 POP POP JUMP JUMPDEST PUSH1 0x5 DUP2 LT PUSH2 0x21FE JUMPI PUSH1 0x0 DUP1 REVERT JUMPDEST POP JUMP JUMPDEST PUSH1 0x0 DUP2 CALLDATALOAD SWAP1 POP PUSH2 0x2210 DUP2 PUSH2 0x21F1 JUMP JUMPDEST SWAP3 SWAP2 POP POP JUMP JUMPDEST PUSH1 0x0 PUSH1 0x20 DUP3 DUP5 SUB SLT ISZERO PUSH2 0x222C JUMPI PUSH2 0x222B PUSH2 0x1C44 JUMP JUMPDEST JUMPDEST PUSH1 0x0 PUSH2 0x223A DUP5 DUP3 DUP6 ADD PUSH2 0x2201 JUMP JUMPDEST SWAP2 POP POP SWAP3 SWAP2 POP POP JUMP JUMPDEST PUSH1 0x0 DUP2 MLOAD SWAP1 POP SWAP2 SWAP1 POP JUMP JUMPDEST PUSH1 0x0 DUP3 DUP3 MSTORE PUSH1 0x20 DUP3 ADD SWAP1 POP SWAP3 SWAP2 POP POP JUMP JUMPDEST PUSH1 0x0 DUP2 SWAP1 POP PUSH1 0x20 DUP3 ADD SWAP1 POP SWAP2 SWAP1 POP JUMP JUMPDEST PUSH2 0x2278 DUP2 PUSH2 0x1CAC JUMP JUMPDEST DUP3 MSTORE POP POP JUMP JUMPDEST PUSH1 0x0 PUSH2 0x228A DUP4 DUP4 PUSH2 0x226F JUMP JUMPDEST PUSH1 0x20 DUP4 ADD SWAP1 POP SWAP3 SWAP2 POP POP JUMP JUMPDEST PUSH1 0x0 PUSH1 0x20 DUP3 ADD SWAP1 POP SWAP2 SWAP1 POP JUMP JUMPDEST PUSH1 0x0 PUSH2 0x22AE DUP3 PUSH2 0x2243 JUMP JUMPDEST PUSH2 0x22B8 DUP2 DUP6 PUSH2 0x224E JUMP JUMPDEST SWAP4 POP PUSH2 0x22C3 DUP4 PUSH2 0x225F JUMP JUMPDEST DUP1 PUSH1 0x0 JUMPDEST DUP4 DUP2 LT ISZERO PUSH2 0x22F4 JUMPI DUP2 MLOAD PUSH2 0x22DB DUP9 DUP3 PUSH2 0x227E JUMP JUMPDEST SWAP8 POP PUSH2 0x22E6 DUP4 PUSH2 0x2296 JUMP JUMPDEST SWAP3 POP POP PUSH1 0x1 DUP2 ADD SWAP1 POP PUSH2 0x22C7 JUMP JUMPDEST POP DUP6 SWAP4 POP POP POP POP SWAP3 SWAP2 POP POP JUMP JUMPDEST PUSH1 0x0 PUSH1 0x20 DUP3 ADD SWAP1 POP DUP2 DUP2 SUB PUSH1 0x0 DUP4 ADD MSTORE PUSH2 0x231B DUP2 DUP5 PUSH2 0x22A3 JUMP JUMPDEST SWAP1 POP SWAP3 SWAP2 POP POP JUMP JUMPDEST PUSH1 0x0 DUP1 PUSH1 0x0 DUP1 PUSH1 0x0 DUP1 PUSH1 0x0 PUSH1 0xA0 DUP9 DUP11 SUB SLT ISZERO PUSH2 0x2342 JUMPI PUSH2 0x2341 PUSH2 0x1C44 JUMP JUMPDEST JUMPDEST PUSH1 0x0 PUSH2 0x2350 DUP11 DUP3 DUP12 ADD PUSH2 0x1C97 JUMP JUMPDEST SWAP8 POP POP PUSH1 0x20 PUSH2 0x2361 DUP11 DUP3 DUP12 ADD PUSH2 0x1CCD JUMP JUMPDEST SWAP7 POP POP PUSH1 0x40 DUP9 ADD CALLDATALOAD PUSH8 0xFFFFFFFFFFFFFFFF DUP2 GT ISZERO PUSH2 0x2382 JUMPI PUSH2 0x2381 PUSH2 0x1C49 JUMP JUMPDEST JUMPDEST PUSH2 0x238E DUP11 DUP3 DUP12 ADD PUSH2 0x1CF1 JUMP JUMPDEST SWAP6 POP SWAP6 POP POP PUSH1 0x60 DUP9 ADD CALLDATALOAD PUSH8 0xFFFFFFFFFFFFFFFF DUP2 GT ISZERO PUSH2 0x23B1 JUMPI PUSH2 0x23B0 PUSH2 0x1C49 JUMP JUMPDEST JUMPDEST PUSH2 0x23BD DUP11 DUP3 DUP12 ADD PUSH2 0x1CF1 JUMP JUMPDEST SWAP4 POP SWAP4 POP POP PUSH1 0x80 PUSH2 0x23D0 DUP11 DUP3 DUP12 ADD PUSH2 0x1CCD JUMP JUMPDEST SWAP2 POP POP SWAP3 SWAP6 SWAP9 SWAP2 SWAP5 SWAP8 POP SWAP3 SWAP6 POP JUMP JUMPDEST PUSH32 0x6F6E6C79206163746F7200000000000000000000000000000000000000000000 PUSH1 0x0 DUP3 ADD MSTORE POP JUMP JUMPDEST PUSH1 0x0 PUSH2 0x2415 PUSH1 0xA DUP4 PUSH2 0x1EB2 JUMP JUMPDEST SWAP2 POP PUSH2 0x2420 DUP3 PUSH2 0x23DF JUMP JUMPDEST PUSH1 0x20 DUP3 ADD SWAP1 POP SWAP2 SWAP1 POP JUMP JUMPDEST PUSH1 0x0 PUSH1 0x20 DUP3 ADD SWAP1 POP DUP2 DUP2 SUB PUSH1 0x0 DUP4 ADD MSTORE PUSH2 0x2444 DUP2 PUSH2 0x2408 JUMP JUMPDEST SWAP1 POP SWAP2 SWAP1 POP JUMP JUMPDEST PUSH32 0x6F6E6C792061646D696E00000000000000000000000000000000000000000000 PUSH1 0x0 DUP3 ADD MSTORE POP JUMP JUMPDEST PUSH1 0x0 PUSH2 0x2481 PUSH1 0xA DUP4 PUSH2 0x1EB2 JUMP JUMPDEST SWAP2 POP PUSH2 0x248C DUP3 PUSH2 0x244B JUMP JUMPDEST PUSH1 0x20 DUP3 ADD SWAP1 POP SWAP2 SWAP1 POP JUMP JUMPDEST PUSH1 0x0 PUSH1 0x20 DUP3 ADD SWAP1 POP DUP2 DUP2 SUB PUSH1 0x0 DUP4 ADD MSTORE PUSH2 0x24B0 DUP2 PUSH2 0x2474 JUMP JUMPDEST SWAP1 POP SWAP2 SWAP1 POP JUMP JUMPDEST PUSH1 0x0 DUP2 SWAP1 POP SWAP3 SWAP2 POP POP JUMP JUMPDEST PUSH1 0x0 PUSH2 0x24CE DUP4 DUP6 PUSH2 0x24B7 JUMP JUMPDEST SWAP4 POP PUSH2 0x24DB DUP4 DUP6 DUP5 PUSH2 0x2129 JUMP JUMPDEST DUP3 DUP5 ADD SWAP1 POP SWAP4 SWAP3 POP POP POP JUMP JUMPDEST PUSH1 0x0 PUSH2 0x24F4 DUP3 DUP5 DUP7 PUSH2 0x24C2 JUMP JUMPDEST SWAP2 POP DUP2 SWAP1 POP SWAP4 SWAP3 POP POP POP JUMP JUMPDEST PUSH1 0x0 DUP3 SWAP1 POP SWAP3 SWAP2 POP POP JUMP JUMPDEST PUSH32 0x4E487B7100000000000000000000000000000000000000000000000000000000 PUSH1 0x0 MSTORE PUSH1 0x22 PUSH1 0x4 MSTORE PUSH1 0x24 PUSH1 0x0 REVERT JUMPDEST PUSH1 0x0 PUSH1 0x2 DUP3 DIV SWAP1 POP PUSH1 0x1 DUP3 AND DUP1 PUSH2 0x2552 JUMPI PUSH1 0x7F DUP3 AND SWAP2 POP JUMPDEST PUSH1 0x20 DUP3 LT DUP2 SUB PUSH2 0x2565 JUMPI PUSH2 0x2564 PUSH2 0x250B JUMP JUMPDEST JUMPDEST POP SWAP2 SWAP1 POP JUMP JUMPDEST PUSH1 0x0 DUP2 SWAP1 POP DUP2 PUSH1 0x0 MSTORE PUSH1 0x20 PUSH1 0x0 KECCAK256 SWAP1 POP SWAP2 SWAP1 POP JUMP JUMPDEST PUSH1 0x0 PUSH1 0x20 PUSH1 0x1F DUP4 ADD DIV SWAP1 POP SWAP2 SWAP1 POP JUMP JUMPDEST PUSH1 0x0 DUP3 DUP3 SHL SWAP1 POP SWAP3 SWAP2 POP POP JUMP JUMPDEST PUSH1 0x0 PUSH1 0x8 DUP4 MUL PUSH2 0x25CD PUSH32 0xFFFFFFFFFFFFFFFFFFFFFFFFFFFFFFFFFFFFFFFFFFFFFFFFFFFFFFFFFFFFFFFF DUP3 PUSH2 0x2590 JUMP JUMPDEST PUSH2 0x25D7 DUP7 DUP4 PUSH2 0x2590 JUMP JUMPDEST SWAP6 POP DUP1 NOT DUP5 AND SWAP4 POP DUP1 DUP7 AND DUP5 OR SWAP3 POP POP POP SWAP4 SWAP3 POP POP POP JUMP JUMPDEST PUSH1 0x0 DUP2 SWAP1 POP SWAP2 SWAP1 POP JUMP JUMPDEST PUSH1 0x0 PUSH2 0x2614 PUSH2 0x260F PUSH2 0x260A DUP5 PUSH2 0x1CAC JUMP JUMPDEST PUSH2 0x25EF JUMP JUMPDEST PUSH2 0x1CAC JUMP JUMPDEST SWAP1 POP SWAP2 SWAP1 POP JUMP JUMPDEST PUSH1 0x0 DUP2 SWAP1 POP SWAP2 SWAP1 POP JUMP JUMPDEST PUSH2 0x262E DUP4 PUSH2 0x25F9 JUMP JUMPDEST PUSH2 0x2642 PUSH2 0x263A DUP3 PUSH2 0x261B JUMP JUMPDEST DUP5 DUP5 SLOAD PUSH2 0x259D JUMP JUMPDEST DUP3 SSTORE POP POP POP POP JUMP JUMPDEST PUSH1 0x0 SWAP1 JUMP JUMPDEST PUSH2 0x2657 PUSH2 0x264A JUMP JUMPDEST PUSH2 0x2662 DUP2 DUP5 DUP5 PUSH2 0x2625 JUMP JUMPDEST POP POP POP JUMP JUMPDEST JUMPDEST DUP2 DUP2 LT ISZERO PUSH2 0x2686 JUMPI PUSH2 0x267B PUSH1 0x0 DUP3 PUSH2 0x264F JUMP JUMPDEST PUSH1 0x1 DUP2 ADD SWAP1 POP PUSH2 0x2668 JUMP JUMPDEST POP POP JUMP JUMPDEST PUSH1 0x1F DUP3 GT ISZERO PUSH2 0x26CB JUMPI PUSH2 0x269C DUP2 PUSH2 0x256B JUMP JUMPDEST PUSH2 0x26A5 DUP5 PUSH2 0x2580 JUMP JUMPDEST DUP2 ADD PUSH1 0x20 DUP6 LT ISZERO PUSH2 0x26B4 JUMPI DUP2 SWAP1 POP JUMPDEST PUSH2 0x26C8 PUSH2 0x26C0 DUP6 PUSH2 0x2580 JUMP JUMPDEST DUP4 ADD DUP3 PUSH2 0x2667 JUMP JUMPDEST POP POP JUMPDEST POP POP POP JUMP JUMPDEST PUSH1 0x0 DUP3 DUP3 SHR SWAP1 POP SWAP3 SWAP2 POP POP JUMP JUMPDEST PUSH1 0x0 PUSH2 0x26EE PUSH1 0x0 NOT DUP5 PUSH1 0x8 MUL PUSH2 0x26D0 JUMP JUMPDEST NOT DUP1 DUP4 AND SWAP2 POP POP SWAP3 SWAP2 POP POP JUMP JUMPDEST PUSH1 0x0 PUSH2 0x2707 DUP4 DUP4 PUSH2 0x26DD JUMP JUMPDEST SWAP2 POP DUP3 PUSH1 0x2 MUL DUP3 OR SWAP1 POP SWAP3 SWAP2 POP POP JUMP JUMPDEST PUSH2 0x2721 DUP4 DUP4 PUSH2 0x2500 JUMP JUMPDEST PUSH8 0xFFFFFFFFFFFFFFFF DUP2 GT ISZERO PUSH2 0x273A JUMPI PUSH2 0x2739 PUSH2 0x207D JUMP JUMPDEST JUMPDEST PUSH2 0x2744 DUP3 SLOAD PUSH2 0x253A JUMP JUMPDEST PUSH2 0x274F DUP3 DUP3 DUP6 PUSH2 0x268A JUMP JUMPDEST PUSH1 0x0 PUSH1 0x1F DUP4 GT PUSH1 0x1 DUP2 EQ PUSH2 0x277E JUMPI PUSH1 0x0 DUP5 ISZERO PUSH2 0x276C JUMPI DUP3 DUP8 ADD CALLDATALOAD SWAP1 POP JUMPDEST PUSH2 0x2776 DUP6 DUP3 PUSH2 0x26FB JUMP JUMPDEST DUP7 SSTORE POP PUSH2 0x27DE JUMP JUMPDEST PUSH1 0x1F NOT DUP5 AND PUSH2 0x278C DUP7 PUSH2 0x256B JUMP JUMPDEST PUSH1 0x0 JUMPDEST DUP3 DUP2 LT ISZERO PUSH2 0x27B4 JUMPI DUP5 DUP10 ADD CALLDATALOAD DUP3 SSTORE PUSH1 0x1 DUP3 ADD SWAP2 POP PUSH1 0x20 DUP6 ADD SWAP5 POP PUSH1 0x20 DUP2 ADD SWAP1 POP PUSH2 0x278F JUMP JUMPDEST DUP7 DUP4 LT ISZERO PUSH2 0x27D1 JUMPI DUP5 DUP10 ADD CALLDATALOAD PUSH2 0x27CD PUSH1 0x1F DUP10 AND DUP3 PUSH2 0x26DD JUMP JUMPDEST DUP4 SSTORE POP JUMPDEST PUSH1 0x1 PUSH1 0x2 DUP9 MUL ADD DUP9 SSTORE POP POP POP JUMPDEST POP POP POP POP POP POP POP JUMP JUMPDEST PUSH1 0x0 PUSH2 0x27F3 DUP4 DUP6 PUSH2 0x1EB2 JUMP JUMPDEST SWAP4 POP PUSH2 0x2800 DUP4 DUP6 DUP5 PUSH2 0x2129 JUMP JUMPDEST PUSH2 0x2809 DUP4 PUSH2 0x1EED JUMP JUMPDEST DUP5 ADD SWAP1 POP SWAP4 SWAP3 POP POP POP JUMP JUMPDEST PUSH1 0x0 PUSH1 0x40 DUP3 ADD SWAP1 POP DUP2 DUP2 SUB PUSH1 0x0 DUP4 ADD MSTORE PUSH2 0x282F DUP2 DUP7 DUP9 PUSH2 0x27E7 JUMP JUMPDEST SWAP1 POP DUP2 DUP2 SUB PUSH1 0x20 DUP4 ADD MSTORE PUSH2 0x2844 DUP2 DUP5 DUP7 PUSH2 0x27E7 JUMP JUMPDEST SWAP1 POP SWAP6 SWAP5 POP POP POP POP POP JUMP JUMPDEST PUSH32 0x6E6F742070726F706F7365640000000000000000000000000000000000000000 PUSH1 0x0 DUP3 ADD MSTORE POP JUMP JUMPDEST PUSH1 0x0 PUSH2 0x2885 PUSH1 0xC DUP4 PUSH2 0x1EB2 JUMP JUMPDEST SWAP2 POP PUSH2 0x2890 DUP3 PUSH2 0x284F JUMP JUMPDEST PUSH1 0x20 DUP3 ADD SWAP1 POP SWAP2 SWAP1 POP JUMP JUMPDEST PUSH1 0x0 PUSH1 0x20 DUP3 ADD SWAP1 POP DUP2 DUP2 SUB PUSH1 0x0 DUP4 ADD MSTORE PUSH2 0x28B4 DUP2 PUSH2 0x2878 JUMP JUMPDEST SWAP1 POP SWAP2 SWAP1 POP JUMP JUMPDEST PUSH32 0x6F6E6C7920726563697069656E74000000000000000000000000000000000000 PUSH1 0x0 DUP3 ADD MSTORE POP JUMP JUMPDEST PUSH1 0x0 PUSH2 0x28F1 PUSH1 0xE DUP4 PUSH2 0x1EB2 JUMP JUMPDEST SWAP2 POP PUSH2 0x28FC DUP3 PUSH2 0x28BB JUMP JUMPDEST PUSH1 0x20 DUP3 ADD SWAP1 POP SWAP2 SWAP1 POP JUMP JUMPDEST PUSH1 0x0 PUSH1 0x20 DUP3 ADD SWAP1 POP DUP2 DUP2 SUB PUSH1 0x0 DUP4 ADD MSTORE PUSH2 0x2920 DUP2 PUSH2 0x28E4 JUMP JUMPDEST SWAP1 POP SWAP2 SWAP1 POP JUMP JUMPDEST PUSH32 0x616C7265616479206163746F7200000000000000000000000000000000000000 PUSH1 0x0 DUP3 ADD MSTORE POP JUMP JUMPDEST PUSH1 0x0 PUSH2 0x295D PUSH1 0xD DUP4 PUSH2 0x1EB2 JUMP JUMPDEST SWAP2 POP PUSH2 0x2968 DUP3 PUSH2 0x2927 JUMP JUMPDEST PUSH1 0x20 DUP3 ADD SWAP1 POP SWAP2 SWAP1 POP JUMP JUMPDEST PUSH1 0x0 PUSH1 0x20 DUP3 ADD SWAP1 POP DUP2 DUP2 SUB PUSH1 0x0 DUP4 ADD MSTORE PUSH2 0x298C DUP2 PUSH2 0x2950 JUMP JUMPDEST SWAP1 POP SWAP2 SWAP1 POP JUMP JUMPDEST PUSH32 0x6E6F742073686970706564000000000000000000000000000000000000000000 PUSH1 0x0 DUP3 ADD MSTORE POP JUMP JUMPDEST PUSH1 0x0 PUSH2 0x29C9 PUSH1 0xB DUP4 PUSH2 0x1EB2 JUMP JUMPDEST SWAP2 POP PUSH2 0x29D4 DUP3 PUSH2 0x2993 JUMP JUMPDEST PUSH1 0x20 DUP3 ADD SWAP1 POP SWAP2 SWAP1 POP JUMP JUMPDEST PUSH1 0x0 PUSH1 0x20 DUP3 ADD SWAP1 POP DUP2 DUP2 SUB PUSH1 0x0 DUP4 ADD MSTORE PUSH2 0x29F8 DUP2 PUSH2 0x29BC JUMP JUMPDEST SWAP1 POP SWAP2 SWAP1 POP JUMP JUMPDEST PUSH32 0x6E6F74206163746F720000000000000000000000000000000000000000000000 PUSH1 0x0 DUP3 ADD MSTORE POP JUMP JUMPDEST PUSH1 0x0 PUSH2 0x2A35 PUSH1 0x9 DUP4 PUSH2 0x1EB2 JUMP JUMPDEST SWAP2 POP PUSH2 0x2A40 DUP3 PUSH2 0x29FF JUMP JUMPDEST PUSH1 0x20 DUP3 ADD SWAP1 POP SWAP2 SWAP1 POP JUMP JUMPDEST PUSH1 0x0 PUSH1 0x20 DUP3 ADD SWAP1 POP DUP2 DUP2 SUB PUSH1 0x0 DUP4 ADD MSTORE PUSH2 0x2A64 DUP2 PUSH2 0x2A28 JUMP JUMPDEST SWAP1 POP SWAP2 SWAP1 POP JUMP JUMPDEST PUSH32 0x6E6F7420636F6E6669726D656400000000000000000000000000000000000000 PUSH1 0x0 DUP3 ADD MSTORE POP JUMP JUMPDEST PUSH1 0x0 PUSH2 0x2AA1 PUSH1 0xD DUP4 PUSH2 0x1EB2 JUMP JUMPDEST SWAP2 POP PUSH2 0x2AAC DUP3 PUSH2 0x2A6B JUMP JUMPDEST PUSH1 0x20 DUP3 ADD SWAP1 POP SWAP2 SWAP1 POP JUMP JUMPDEST PUSH1 0x0 PUSH1 0x20 DUP3 ADD SWAP1 POP DUP2 DUP2 SUB PUSH1 0x0 DUP4 ADD MSTORE PUSH2 0x2AD0 DUP2 PUSH2 0x2A94 JUMP JUMPDEST SWAP1 POP SWAP2 SWAP1 POP JUMP JUMPDEST PUSH32 0x6F6E6C792073656E646572000000000000000000000000000000000000000000 PUSH1 0x0 DUP3 ADD MSTORE POP JUMP JUMPDEST PUSH1 0x0 PUSH2 0x2B0D PUSH1 0xB DUP4 PUSH2 0x1EB2 JUMP JUMPDEST SWAP2 POP PUSH2 0x2B18 DUP3 PUSH2 0x2AD7 JUMP JUMPDEST PUSH1 0x20 DUP3 ADD SWAP1 POP SWAP2 SWAP1 POP JUMP JUMPDEST PUSH1 0x0 PUSH1 0x20 DUP3 ADD SWAP1 POP DUP2 DUP2 SUB PUSH1 0x0 DUP4 ADD MSTORE PUSH2 0x2B3C DUP2 PUSH2 0x2B00 JUMP JUMPDEST SWAP1 POP SWAP2 SWAP1 POP JUMP JUMPDEST PUSH32 0x6974656D20726571756972656400000000000000000000000000000000000000 PUSH1 0x0 DUP3 ADD MSTORE POP JUMP JUMPDEST PUSH1 0x0 PUSH2 0x2B79 PUSH1 0xD DUP4 PUSH2 0x1EB2 JUMP JUMPDEST SWAP2 POP PUSH2 0x2B84 DUP3 PUSH2 0x2B43 JUMP JUMPDEST PUSH1 0x20 DUP3 ADD SWAP1 POP SWAP2 SWAP1 POP JUMP JUMPDEST PUSH1 0x0 PUSH1 0x20 DUP3 ADD SWAP1 POP DUP2 DUP2 SUB PUSH1 0x0 DUP4 ADD MSTORE PUSH2 0x2BA8 DUP2 PUSH2 0x2B6C JUMP JUMPDEST SWAP1 POP SWAP2 SWAP1 POP JUMP JUMPDEST PUSH1 0x0 DUP2 SWAP1 POP SWAP3 SWAP2 POP POP JUMP JUMPDEST PUSH1 0x0 PUSH2 0x2BC6 DUP4 DUP6 PUSH2 0x2BAF JUMP JUMPDEST SWAP4 POP PUSH2 0x2BD3 DUP4 DUP6 DUP5 PUSH2 0x2129 JUMP JUMPDEST DUP3 DUP5 ADD SWAP1 POP SWAP4 SWAP3 POP POP POP JUMP JUMPDEST PUSH1 0x0 PUSH2 0x2BEC DUP3 DUP5 DUP7 PUSH2 0x2BBA JUMP JUMPDEST SWAP2 POP DUP2 SWAP1 POP SWAP4 SWAP3 POP POP POP JUMP JUMPDEST PUSH1 0x0 DUP2 SWAP1 POP DUP2 PUSH1 0x0 MSTORE PUSH1 0x20 PUSH1 0x0 KECCAK256 SWAP1 POP SWAP2 SWAP1 POP JUMP JUMPDEST PUSH1 0x0 DUP2 SLOAD PUSH2 0x2C1A DUP2 PUSH2 0x253A JUMP JUMPDEST PUSH2 0x2C24 DUP2 DUP7 PUSH2 0x2BAF JUMP JUMPDEST SWAP5 POP PUSH1 0x1 DUP3 AND PUSH1 0x0 DUP2 EQ PUSH2 0x2C3F JUMPI PUSH1 0x1 DUP2 EQ PUSH2 0x2C54 JUMPI PUSH2 0x2C87 JUMP JUMPDEST PUSH1 0xFF NOT DUP4 AND DUP7 MSTORE DUP2 ISZERO ISZERO DUP3 MUL DUP7 ADD SWAP4 POP PUSH2 0x2C87 JUMP JUMPDEST PUSH2 0x2C5D DUP6 PUSH2 0x2BF8 JUMP JUMPDEST PUSH1 0x0 JUMPDEST DUP4 DUP2 LT ISZERO PUSH2 0x2C7F JUMPI DUP2 SLOAD DUP2 DUP10 ADD MSTORE PUSH1 0x1 DUP3 ADD SWAP2 POP PUSH1 0x20 DUP2 ADD SWAP1 POP PUSH2 0x2C60 JUMP JUMPDEST DUP4 DUP9 ADD SWAP6 POP POP POP JUMPDEST POP POP POP SWAP3 SWAP2 POP POP JUMP JUMPDEST PUSH1 0x0 PUSH2 0x2C9C DUP3 DUP5 PUSH2 0x2C0D JUMP JUMPDEST SWAP2 POP DUP2 SWAP1 POP SWAP3 SWAP2 POP POP JUMP JUMPDEST PUSH32 0x6974656D206D69736D6174636800000000000000000000000000000000000000 PUSH1 0x0 DUP3 ADD MSTORE POP JUMP JUMPDEST PUSH1 0x0 PUSH2 0x2CDD PUSH1 0xD DUP4 PUSH2 0x1EB2 JUMP JUMPDEST SWAP2 POP PUSH2 0x2CE8 DUP3 PUSH2 0x2CA7 JUMP JUMPDEST PUSH1 0x20 DUP3 ADD SWAP1 POP SWAP2 SWAP1 POP JUMP JUMPDEST PUSH1 0x0 PUSH1 0x20 DUP3 ADD SWAP1 POP DUP2 DUP2 SUB PUSH1 0x0 DUP4 ADD MSTORE PUSH2 0x2D0C DUP2 PUSH2 0x2CD0 JUMP JUMPDEST SWAP1 POP SWAP2 SWAP1 POP JUMP JUMPDEST PUSH32 0x696E76616C696420726563697069656E74000000000000000000000000000000 PUSH1 0x0 DUP3 ADD MSTORE POP JUMP JUMPDEST PUSH1 0x0 PUSH2 0x2D49 PUSH1 0x11 DUP4 PUSH2 0x1EB2 JUMP JUMPDEST SWAP2 POP PUSH2 0x2D54 DUP3 PUSH2 0x2D13 JUMP JUMPDEST PUSH1 0x20 DUP3 ADD SWAP1 POP SWAP2 SWAP1 POP JUMP JUMPDEST PUSH1 0x0 PUSH1 0x20 DUP3 ADD SWAP1 POP DUP2 DUP2 SUB PUSH1 0x0 DUP4 ADD MSTORE PUSH2 0x2D78 DUP2 PUSH2 0x2D3C JUMP JUMPDEST SWAP1 POP SWAP2 SWAP1 POP JUMP JUMPDEST PUSH1 0x0 PUSH2 0x2D8A DUP3 PUSH2 0x1EA7 JUMP JUMPDEST PUSH2 0x2D94 DUP2 DUP6 PUSH2 0x24B7 JUMP JUMPDEST SWAP4 POP PUSH2 0x2DA4 DUP2 DUP6 PUSH1 0x20 DUP7 ADD PUSH2 0x1EC3 JUMP JUMPDEST DUP1 DUP5 ADD SWAP2 POP POP SWAP3 SWAP2 POP POP JUMP JUMPDEST PUSH1 0x0 PUSH2 0x2DBC DUP3 DUP5 PUSH2 0x2D7F JUMP JUMPDEST SWAP2 POP DUP2 SWAP1 POP SWAP3 SWAP2 POP POP JUMP JUMPDEST PUSH32 0x4E487B7100000000000000000000000000000000000000000000000000000000 PUSH1 0x0 MSTORE PUSH1 0x11 PUSH1 0x4 MSTORE PUSH1 0x24 PUSH1 0x0 REVERT JUMPDEST PUSH1 0x0 PUSH2 0x2E01 DUP3 PUSH2 0x1CAC JUMP JUMPDEST SWAP2 POP PUSH32 0xFFFFFFFFFFFFFFFFFFFFFFFFFFFFFFFFFFFFFFFFFFFFFFFFFFFFFFFFFFFFFFFF DUP3 SUB PUSH2 0x2E33 JUMPI PUSH2 0x2E32 PUSH2 0x2DC7 JUMP JUMPDEST JUMPDEST PUSH1 0x1 DUP3 ADD SWAP1 POP SWAP2 SWAP1 POP JUMP JUMPDEST PUSH2 0x2E47 DUP3 PUSH2 0x1EA7 JUMP JUMPDEST PUSH8 0xFFFFFFFFFFFFFFFF DUP2 GT ISZERO PUSH2 0x2E60 JUMPI PUSH2 0x2E5F PUSH2 0x207D JUMP JUMPDEST JUMPDEST PUSH2 0x2E6A DUP3 SLOAD PUSH2 0x253A JUMP JUMPDEST PUSH2 0x2E75 DUP3 DUP3 DUP6 PUSH2 0x268A JUMP JUMPDEST PUSH1 0x0 PUSH1 0x20 SWAP1 POP PUSH1 0x1F DUP4 GT PUSH1 0x1 DUP2 EQ PUSH2 0x2EA8 JUMPI PUSH1 0x0 DUP5 ISZERO PUSH2 0x2E96 JUMPI DUP3 DUP8 ADD MLOAD SWAP1 POP JUMPDEST PUSH2 0x2EA0 DUP6 DUP3 PUSH2 0x26FB JUMP JUMPDEST DUP7 SSTORE POP PUSH2 0x2F08 JUMP JUMPDEST PUSH1 0x1F NOT DUP5 AND PUSH2 0x2EB6 DUP7 PUSH2 0x256B JUMP JUMPDEST PUSH1 0x0 JUMPDEST DUP3 DUP2 LT ISZERO PUSH2 0x2EDE JUMPI DUP5 DUP10 ADD MLOAD DUP3 SSTORE PUSH1 0x1 DUP3 ADD SWAP2 POP PUSH1 0x20 DUP6 ADD SWAP5 POP PUSH1 0x20 DUP2 ADD SWAP1 POP PUSH2 0x2EB9 JUMP JUMPDEST DUP7 DUP4 LT ISZERO PUSH2 0x2EFB JUMPI DUP5 DUP10 ADD MLOAD PUSH2 0x2EF7 PUSH1 0x1F DUP10 AND DUP3 PUSH2 0x26DD JUMP JUMPDEST DUP4 SSTORE POP JUMPDEST PUSH1 0x1 PUSH1 0x2 DUP9 MUL ADD DUP9 SSTORE POP POP POP JUMPDEST POP POP POP POP POP POP JUMP JUMPDEST PUSH1 0x0 PUSH1 0x40 DUP3 ADD SWAP1 POP PUSH2 0x2F25 PUSH1 0x0 DUP4 ADD DUP6 PUSH2 0x1DCF JUMP JUMPDEST PUSH2 0x2F32 PUSH1 0x20 DUP4 ADD DUP5 PUSH2 0x1DCF JUMP JUMPDEST SWAP4 SWAP3 POP POP POP JUMP JUMPDEST PUSH1 0x0 PUSH2 0x2F44 DUP3 PUSH2 0x1CAC JUMP JUMPDEST SWAP2 POP PUSH2 0x2F4F DUP4 PUSH2 0x1CAC JUMP JUMPDEST SWAP3 POP DUP3 DUP3 SUB SWAP1 POP DUP2 DUP2 GT ISZERO PUSH2 0x2F67 JUMPI PUSH2 0x2F66 PUSH2 0x2DC7 JUMP JUMPDEST JUMPDEST SWAP3 SWAP2 POP POP JUMP JUMPDEST PUSH32 0x4E487B7100000000000000000000000000000000000000000000000000000000 PUSH1 0x0 MSTORE PUSH1 0x32 PUSH1 0x4 MSTORE PUSH1 0x24 PUSH1 0x0 REVERT JUMPDEST PUSH32 0x4E487B7100000000000000000000000000000000000000000000000000000000 PUSH1 0x0 MSTORE PUSH1 0x31 PUSH1 0x4 MSTORE PUSH1 0x24 PUSH1 0x0 REVERT INVALID LOG2 PUSH5 0x6970667358 0x22 SLT KECCAK256 PUSH7 0x4F9C40620CFAD2 0xD9 CODECOPY PUSH16 0xD743FCFF1B3E4B869AA71060CF9A34C9 DUP1 PUSH5 0xCCB8A26473 PUSH16 0x6C634300081400330000000000000000 "},"methodIdentifiers":{"addActor(address)":"4306386c","admin()":"f851a440","batchOf(uint256)":"18c10885","confirmTransfer(uint256)":"2c48e7db","isActor(address)":"c7fe23a3","itemOfBatch(string)":"e288b62a","proposeTransfer(address,uint256,string,string,uint256)":"f9fb8cf1","proposeTransfer(address,uint256,string,uint256)":"12278407","quantityOf(uint256)":"5f82ad07","receiveTransfer(uint256)":"49d55d9d","recipientOf(uint256)":"f14cf045","removeActor(address)":"56158044","senderOf(uint256)":"91355cc3","setItemForBatch(string,string)":"170322a7","shipTransfer(uint256)":"b18cbdad","status(uint256)":"42d21ef7","transfersInStatus(uint8)":"ed554f06"}}}}}