{
  "_format": "hh-sol-artifact-1",
  "contractName": "BatchToken",
  "sourceName": "contracts/BatchToken.sol",
  "abi": [
    {
      "anonymous": false,
      "inputs": [
        {
          "indexed": true,
          "internalType": "uint256",
          "name": "batchId",
          "type": "uint256"
        }
      ],
      "name": "BatchReceived",
      "type": "event"
    },
    {
      "anonymous": false,
      "inputs": [
        {
          "indexed": true,
          "internalType": "uint256",
          "name": "batchId",
          "type": "uint256"
        }
      ],
      "name": "BatchShipped",
      "type": "event"
    },
    {
      "anonymous": false,
      "inputs": [
        {
          "indexed": true,
          "internalType": "uint256",
          "name": "batchId",
          "type": "uint256"
        },
        {
          "indexed": true,
          "internalType": "address",
          "name": "by",
          "type": "address"
        }
      ],
      "name": "TransferConfirmed",
      "type": "event"
    },
    {
      "anonymous": false,
      "inputs": [
        {
          "indexed": true,
          "internalType": "uint256",
          "name": "batchId",
          "type": "uint256"
        },
        {
          "indexed": true,
          "internalType": "address",
          "name": "from",
          "type": "address"
        },
        {
          "indexed": true,
          "internalType": "address",
          "name": "to",
          "type": "address"
        },
        {
          "indexed": false,
          "internalType": "uint256",
          "name": "plannedShipDate",
          "type": "uint256"
        }
      ],
      "name": "TransferProposed",
      "type": "event"
    },
    {
      "inputs": [
        {
          "internalType": "enum BatchToken.Status",
          "name": "s",
          "type": "uint8"
        }
      ],
      "name": "batchesInStatus",
      "outputs": [
        {
          "internalType": "uint256[]",
          "name": "",
          "type": "uint256[]"
        }
      ],
      "stateMutability": "view",
      "type": "function"
    },
    {
      "inputs": [
        {
          "internalType": "uint256",
          "name": "batchId",
          "type": "uint256"
        }
      ],
      "name": "confirmTransfer",
      "outputs": [],
      "stateMutability": "nonpayable",
      "type": "function"
    },
    {
      "inputs": [
        {
          "internalType": "uint256",
          "name": "batchId",
          "type": "uint256"
        },
        {
          "internalType": "address",
          "name": "to",
          "type": "address"
        },
        {
          "internalType": "uint256",
          "name": "plannedShipDate",
          "type": "uint256"
        }
      ],
      "name": "proposeTransfer",
      "outputs": [],
      "stateMutability": "nonpayable",
      "type": "function"
    },
    {
      "inputs": [
        {
          "internalType": "uint256",
          "name": "batchId",
          "type": "uint256"
        }
      ],
      "name": "receiveBatch",
      "outputs": [],
      "stateMutability": "nonpayable",
      "type": "function"
    },
    {
      "inputs": [
        {
          "internalType": "uint256",
          "name": "",
          "type": "uint256"
        }
      ],
      "name": "recipientOf",
      "outputs": [
        {
          "internalType": "address",
          "name": "",
          "type": "address"
        }
      ],
      "stateMutability": "view",
      "type": "function"
    },
    {
      "inputs": [
        {
          "internalType": "uint256",
          "name": "",
          "type": "uint256"
        }
      ],
      "name": "senderOf",
      "outputs": [
        {
          "internalType": "address",
          "name": "",
          "type": "address"
        }
      ],
      "stateMutability": "view",
      "type": "function"
    },
    {
      "inputs": [
        {
          "internalType": "uint256",
          "name": "batchId",
          "type": "uint256"
        }
      ],
      "name": "shipBatch",
      "outputs": [],
      "stateMutability": "nonpayable",
      "type": "function"
    },
    {
      "inputs": [
        {
          "internalType": "uint256",
          "name": "",
          "type": "uint256"
        }
      ],
      "name": "status",
      "outputs": [
        {
          "internalType": "enum BatchToken.Status",
          "name": "",
          "type": "uint8"
        }
      ],
      "stateMutability": "view",
      "type": "function"
    }
  ],
  "bytecode": "0x608060405234801561000f575f80fd5b506113b68061001d5f395ff3fe608060405234801561000f575f80fd5b5060043610610086575f3560e01c8063ba53528111610059578063ba53528114610136578063e9cee4b914610152578063f14cf0451461016e578063fd2e35621461019e57610086565b8063273308461461008a5780632c48e7db146100ba57806342d21ef7146100d657806391355cc314610106575b5f80fd5b6100a4600480360381019061009f9190610cf8565b6101ba565b6040516100b19190610de3565b60405180910390f35b6100d460048036038101906100cf9190610e2d565b610239565b005b6100f060048036038101906100eb9190610e2d565b610475565b6040516100fd9190610ecb565b60405180910390f35b610120600480360381019061011b9190610e2d565b610491565b60405161012d9190610f23565b60405180910390f35b610150600480360381019061014b9190610e2d565b6104c1565b005b61016c60048036038101906101679190610e2d565b6106e6565b005b61018860048036038101906101839190610e2d565b610909565b6040516101959190610f23565b60405180910390f35b6101b860048036038101906101b39190610f66565b610939565b005b606060015f8360048111156101d2576101d1610e58565b5b60ff1660ff1681526020019081526020015f2080548060200260200160405190810160405280929190818152602001828054801561022d57602002820191905f5260205f20905b815481526020019060010190808311610219575b50505050509050919050565b6001600481111561024d5761024c610e58565b5b5f808381526020019081526020015f205f9054906101000a900460ff16600481111561027c5761027b610e58565b5b146102bc576040517f08c379a00000000000000000000000000000000000000000000000000000000081526004016102b390611010565b60405180910390fd5b60045f8281526020019081526020015f205f9054906101000a900473ffffffffffffffffffffffffffffffffffffffff1673ffffffffffffffffffffffffffffffffffffffff163373ffffffffffffffffffffffffffffffffffffffff161461035a576040517f08c379a000000000000000000000000000000000000000000000000000000000815260040161035190611078565b60405180910390fd5b610365816001610bfb565b60025f808381526020019081526020015f205f6101000a81548160ff0219169083600481111561039857610397610e58565b5b021790555060015f600260048111156103b4576103b3610e58565b5b60ff1660ff1681526020019081526020015f208054905060025f8381526020019081526020015f208190555060015f600260048111156103f7576103f6610e58565b5b60ff1660ff1681526020019081526020015f2081908060018154018082558091505060019003905f5260205f20015f90919091909150553373ffffffffffffffffffffffffffffffffffffffff16817f88f3a431c8e7503e1205db0131787d8fdd671a45c660e4c9083954584993912f60405160405180910390a350565b5f602052805f5260405f205f915054906101000a900460ff1681565b6003602052805f5260405f205f915054906101000a900473ffffffffffffffffffffffffffffffffffffffff1681565b600260048111156104d5576104d4610e58565b5b5f808381526020019081526020015f205f9054906101000a900460ff16600481111561050457610503610e58565b5b14610544576040517f08c379a000000000000000000000000000000000000000000000000000000000815260040161053b906110e0565b60405180910390fd5b60035f8281526020019081526020015f205f9054906101000a900473ffffffffffffffffffffffffffffffffffffffff1673ffffffffffffffffffffffffffffffffffffffff163373ffffffffffffffffffffffffffffffffffffffff16146105e2576040517f08c379a00000000000000000000000000000000000000000000000000000000081526004016105d990611148565b60405180910390fd5b6105ed816002610bfb565b60035f808381526020019081526020015f205f6101000a81548160ff021916908360048111156106205761061f610e58565b5b021790555060015f6003600481111561063c5761063b610e58565b5b60ff1660ff1681526020019081526020015f208054905060025f8381526020019081526020015f208190555060015f6003600481111561067f5761067e610e58565b5b60ff1660ff1681526020019081526020015f2081908060018154018082558091505060019003905f5260205f20015f9091909190915055807fa0a01734fd51ee303fab34f5e6d6c9f521e8e346914be69d0e1c211920b29e6e60405160405180910390a250565b600360048111156106fa576106f9610e58565b5b5f808381526020019081526020015f205f9054906101000a900460ff16600481111561072957610728610e58565b5b14610769576040517f08c379a0000000000000000000000000000000000000000000000000000000008152600401610760906111b0565b60405180910390fd5b60045f8281526020019081526020015f205f9054906101000a900473ffffffffffffffffffffffffffffffffffffffff1673ffffffffffffffffffffffffffffffffffffffff163373ffffffffffffffffffffffffffffffffffffffff1614610807576040517f08c379a00000000000000000000000000000000000000000000000000000000081526004016107fe90611078565b60405180910390fd5b610812816003610bfb565b60045f808381526020019081526020015f205f6101000a81548160ff0219169083600481111561084557610844610e58565b5b021790555060015f6004808111156108605761085f610e58565b5b60ff1660ff1681526020019081526020015f208054905060025f8381526020019081526020015f208190555060015f6004808111156108a2576108a1610e58565b5b60ff1660ff1681526020019081526020015f2081908060018154018082558091505060019003905f5260205f20015f9091909190915055807fe0c0288112891897b19d64626d45679eb4439dc0fb2896ed5dc3b6028edc2ed460405160405180910390a250565b6004602052805f5260405f205f915054906101000a900473ffffffffffffffffffffffffffffffffffffffff1681565b5f600481111561094c5761094b610e58565b5b5f808581526020019081526020015f205f9054906101000a900460ff16600481111561097b5761097a610e58565b5b146109bb576040517f08c379a00000000000000000000000000000000000000000000000000000000081526004016109b290611218565b60405180910390fd5b3373ffffffffffffffffffffffffffffffffffffffff168273ffffffffffffffffffffffffffffffffffffffff1603610a29576040517f08c379a0000000000000000000000000000000000000000000000000000000008152600401610a2090611280565b60405180910390fd5b3360035f8581526020019081526020015f205f6101000a81548173ffffffffffffffffffffffffffffffffffffffff021916908373ffffffffffffffffffffffffffffffffffffffff1602179055508160045f8581526020019081526020015f205f6101000a81548173ffffffffffffffffffffffffffffffffffffffff021916908373ffffffffffffffffffffffffffffffffffffffff16021790555060015f808581526020019081526020015f205f6101000a81548160ff02191690836004811115610afa57610af9610e58565b5b021790555060015f60016004811115610b1657610b15610e58565b5b60ff1660ff1681526020019081526020015f208054905060025f8581526020019081526020015f208190555060015f60016004811115610b5957610b58610e58565b5b60ff1660ff1681526020019081526020015f2083908060018154018082558091505060019003905f5260205f20015f90919091909150558173ffffffffffffffffffffffffffffffffffffffff163373ffffffffffffffffffffffffffffffffffffffff16847f38ad22e5704952fc5eaf855fe6a8193abeeae5963626b72a552fe2584d053e4e84604051610bee91906112ad565b60405180910390a4505050565b5f816004811115610c0f57610c0e610e58565b5b90505f60025f8581526020019081526020015f205490505f60015f8460ff1660ff1681526020019081526020015f2090505f8160018380549050610c5391906112f3565b81548110610c6457610c63611326565b5b905f5260205f200154905080828481548110610c8357610c82611326565b5b905f5260205f2001819055508260025f8381526020019081526020015f208190555081805480610cb657610cb5611353565b5b600190038181905f5260205f20015f90559055505050505050565b5f80fd5b60058110610ce1575f80fd5b50565b5f81359050610cf281610cd5565b92915050565b5f60208284031215610d0d57610d0c610cd1565b5b5f610d1a84828501610ce4565b91505092915050565b5f81519050919050565b5f82825260208201905092915050565b5f819050602082019050919050565b5f819050919050565b610d5e81610d4c565b82525050565b5f610d6f8383610d55565b60208301905092915050565b5f602082019050919050565b5f610d9182610d23565b610d9b8185610d2d565b9350610da683610d3d565b805f5b83811015610dd6578151610dbd8882610d64565b9750610dc883610d7b565b925050600181019050610da9565b5085935050505092915050565b5f6020820190508181035f830152610dfb8184610d87565b905092915050565b610e0c81610d4c565b8114610e16575f80fd5b50565b5f81359050610e2781610e03565b92915050565b5f60208284031215610e4257610e41610cd1565b5b5f610e4f84828501610e19565b91505092915050565b7f4e487b71000000000000000000000000000000000000000000000000000000005f52602160045260245ffd5b60058110610e9657610e95610e58565b5b50565b5f819050610ea682610e85565b919050565b5f610eb582610e99565b9050919050565b610ec581610eab565b82525050565b5f602082019050610ede5f830184610ebc565b92915050565b5f73ffffffffffffffffffffffffffffffffffffffff82169050919050565b5f610f0d82610ee4565b9050919050565b610f1d81610f03565b82525050565b5f602082019050610f365f830184610f14565b92915050565b610f4581610f03565b8114610f4f575f80fd5b50565b5f81359050610f6081610f3c565b92915050565b5f805f60608486031215610f7d57610f7c610cd1565b5b5f610f8a86828701610e19565b9350506020610f9b86828701610f52565b9250506040610fac86828701610e19565b9150509250925092565b5f82825260208201905092915050565b7f6e6f742070726f706f73656400000000000000000000000000000000000000005f82015250565b5f610ffa600c83610fb6565b915061100582610fc6565b602082019050919050565b5f6020820190508181035f83015261102781610fee565b9050919050565b7f6f6e6c7920726563697069656e740000000000000000000000000000000000005f82015250565b5f611062600e83610fb6565b915061106d8261102e565b602082019050919050565b5f6020820190508181035f83015261108f81611056565b9050919050565b7f6e6f7420636f6e6669726d6564000000000000000000000000000000000000005f82015250565b5f6110ca600d83610fb6565b91506110d582611096565b602082019050919050565b5f6020820190508181035f8301526110f7816110be565b9050919050565b7f6f6e6c792073656e6465720000000000000000000000000000000000000000005f82015250565b5f611132600b83610fb6565b915061113d826110fe565b602082019050919050565b5f6020820190508181035f83015261115f81611126565b9050919050565b7f6e6f7420736869707065640000000000000000000000000000000000000000005f82015250565b5f61119a600b83610fb6565b91506111a582611166565b602082019050919050565b5f6020820190508181035f8301526111c78161118e565b9050919050565b7f616c726561647920696e697469617465640000000000000000000000000000005f82015250565b5f611202601183610fb6565b915061120d826111ce565b602082019050919050565b5f6020820190508181035f83015261122f816111f6565b9050919050565b7f696e76616c696420726563697069656e740000000000000000000000000000005f82015250565b5f61126a601183610fb6565b915061127582611236565b602082019050919050565b5f6020820190508181035f8301526112978161125e565b9050919050565b6112a781610d4c565b82525050565b5f6020820190506112c05f83018461129e565b92915050565b7f4e487b71000000000000000000000000000000000000000000000000000000005f52601160045260245ffd5b5f6112fd82610d4c565b915061130883610d4c565b92508282039050818111156113205761131f6112c6565b5b92915050565b7f4e487b71000000000000000000000000000000000000000000000000000000005f52603260045260245ffd5b7f4e487b71000000000000000000000000000000000000000000000000000000005f52603160045260245ffdfea2646970667358221220f3cbeb413fed22a68d050d19f7a4b2393bb7705b91215e1aea1fe3b6678e6ee964736f6c63430008140033",
  "linkReferences": {},
  "deployedLinkReferences": {}
}