{
  "_format": "hh-sol-artifact-1",
  "contractName": "BatchToken",
  "sourceName": "contracts/BatchToken.sol",
  "abi": [
    {
      "anonymous": false,
      "inputs": [
        {
          "indexed": true,
          "internalType": "uint256",
          "name": "batchId",
          "type": "uint256"
        }
      ],
      "name": "BatchReceived",
      "type": "event"
    },
    {
      "anonymous": false,
      "inputs": [
        {
          "indexed": true,
          "internalType": "uint256",
          "name": "batchId",
          "type": "uint256"
        }
      ],
      "name": "BatchShipped",
      "type": "event"
    },
    {
      "anonymous": false,
      "inputs": [
        {
          "indexed": true,
          "internalType": "uint256",
          "name": "batchId",
          "type": "uint256"
        },
        {
          "indexed": true,
          "internalType": "address",
          "name": "by",
          "type": "address"
        }
      ],
      "name": "TransferConfirmed",
      "type": "event"
    },
    {
      "anonymous": false,
      "inputs": [
        {
          "indexed": true,
          "internalType": "uint256",
          "name": "batchId",
          "type": "uint256"
        },
        {
          "indexed": true,
          "internalType": "address",
          "name": "from",
          "type": "address"
        },
        {
          "indexed": true,
          "internalType": "address",
          "name": "to",
          "type": "address"
        },
        {
          "indexed": false,
          "internalType": "uint256",
          "name": "plannedShipDate",
          "type": "uint256"
        }
      ],
      "name": "TransferProposed",
      "type": "event"
    },
    {
      "inputs": [
        {
          "internalType": "uint256",
          "name": "batchId",
          "type": "uint256"
        }
      ],
      "name": "confirmTransfer",
      "outputs": [],
      "stateMutability": "nonpayable",
      "type": "function"
    },
    {
      "inputs": [
        {
          "internalType": "uint256",
          "name": "batchId",
          "type": "uint256"
        },
        {
          "internalType": "address",
          "name": "to",
          "type": "address"
        },
        {
          "internalType": "uint256",
          "name": "plannedShipDate",
          "type": "uint256"
        }
      ],
      "name": "proposeTransfer",
      "outputs": [],
      "stateMutability": "nonpayable",
      "type": "function"
    },
    {
      "inputs": [
        {
          "internalType": "uint256",
          "name": "batchId",
          "type": "uint256"
        }
      ],
      "name": "receiveBatch",
      "outputs": [],
      "stateMutability": "nonpayable",
      "type": "function"
    },
    {
      "inputs": [
        {
          "internalType": "uint256",
          "name": "batchId",
          "type": "uint256"
        }
      ],
      "name": "shipBatch",
      "outputs": [],
      "stateMutability": "nonpayable",
      "type": "function"
    },
    {
      "inputs": [
        {
          "internalType": "uint256",
          "name": "",
          "type": "uint256"
        }
      ],
      "name": "status",
      "outputs": [
        {
          "internalType": "enum BatchToken.Status",
          "name": "",
          "type": "uint8"
        }
      ],
      "stateMutability": "view",
      "type": "function"
    }
  ],
  "bytecode": "0x608060405234801561000f575f80fd5b506108b88061001d5f395ff3fe608060405234801561000f575f80fd5b5060043610610055575f3560e01c80632c48e7db1461005957806342d21ef714610075578063ba535281146100a5578063e9cee4b9146100c1578063fd2e3562146100dd575b5f80fd5b610073600480360381019061006e9190610549565b6100f9565b005b61008f600480360381019061008a9190610549565b6101fb565b60405161009c91906105e7565b60405180910390f35b6100bf60048036038101906100ba9190610549565b610217565b005b6100db60048036038101906100d69190610549565b610302565b005b6100f760048036038101906100f2919061065a565b6103ed565b005b6001600481111561010d5761010c610574565b5b5f808381526020019081526020015f205f9054906101000a900460ff16600481111561013c5761013b610574565b5b1461017c576040517f08c379a000000000000000000000000000000000000000000000000000000000815260040161017390610704565b60405180910390fd5b60025f808381526020019081526020015f205f6101000a81548160ff021916908360048111156101af576101ae610574565b5b02179055503373ffffffffffffffffffffffffffffffffffffffff16817f88f3a431c8e7503e1205db0131787d8fdd671a45c660e4c9083954584993912f60405160405180910390a350565b5f602052805f5260405f205f915054906101000a900460ff1681565b6002600481111561022b5761022a610574565b5b5f808381526020019081526020015f205f9054906101000a900460ff16600481111561025a57610259610574565b5b1461029a576040517f08c379a00000000000000000000000000000000000000000000000000000000081526004016102919061076c565b60405180910390fd5b60035f808381526020019081526020015f205f6101000a81548160ff021916908360048111156102cd576102cc610574565b5b0217905550807fa0a01734fd51ee303fab34f5e6d6c9f521e8e346914be69d0e1c211920b29e6e60405160405180910390a250565b6003600481111561031657610315610574565b5b5f808381526020019081526020015f205f9054906101000a900460ff16600481111561034557610344610574565b5b14610385576040517f08c379a000000000000000000000000000000000000000000000000000000000815260040161037c906107d4565b60405180910390fd5b60045f808381526020019081526020015f205f6101000a81548160ff021916908360048111156103b8576103b7610574565b5b0217905550807fe0c0288112891897b19d64626d45679eb4439dc0fb2896ed5dc3b6028edc2ed460405160405180910390a250565b5f6004811115610400576103ff610574565b5b5f808581526020019081526020015f205f9054906101000a900460ff16600481111561042f5761042e610574565b5b1461046f576040517f08c379a00000000000000000000000000000000000000000000000000000000081526004016104669061083c565b60405180910390fd5b60015f808581526020019081526020015f205f6101000a81548160ff021916908360048111156104a2576104a1610574565b5b02179055508173ffffffffffffffffffffffffffffffffffffffff163373ffffffffffffffffffffffffffffffffffffffff16847f38ad22e5704952fc5eaf855fe6a8193abeeae5963626b72a552fe2584d053e4e846040516105059190610869565b60405180910390a4505050565b5f80fd5b5f819050919050565b61052881610516565b8114610532575f80fd5b50565b5f813590506105438161051f565b92915050565b5f6020828403121561055e5761055d610512565b5b5f61056b84828501610535565b91505092915050565b7f4e487b71000000000000000000000000000000000000000000000000000000005f52602160045260245ffd5b600581106105b2576105b1610574565b5b50565b5f8190506105c2826105a1565b919050565b5f6105d1826105b5565b9050919050565b6105e1816105c7565b82525050565b5f6020820190506105fa5f8301846105d8565b92915050565b5f73ffffffffffffffffffffffffffffffffffffffff82169050919050565b5f61062982610600565b9050919050565b6106398161061f565b8114610643575f80fd5b50565b5f8135905061065481610630565b92915050565b5f805f6060848603121561067157610670610512565b5b5f61067e86828701610535565b935050602061068f86828701610646565b92505060406106a086828701610535565b9150509250925092565b5f82825260208201905092915050565b7f6e6f742070726f706f73656400000000000000000000000000000000000000005f82015250565b5f6106ee600c836106aa565b91506106f9826106ba565b602082019050919050565b5f6020820190508181035f83015261071b816106e2565b9050919050565b7f6e6f7420636f6e6669726d6564000000000000000000000000000000000000005f82015250565b5f610756600d836106aa565b915061076182610722565b602082019050919050565b5f6020820190508181035f8301526107838161074a565b9050919050565b7f6e6f7420736869707065640000000000000000000000000000000000000000005f82015250565b5f6107be600b836106aa565b91506107c98261078a565b602082019050919050565b5f6020820190508181035f8301526107eb816107b2565b9050919050565b7f616c726561647920696e697469617465640000000000000000000000000000005f82015250565b5f6108266011836106aa565b9150610831826107f2565b602082019050919050565b5f6020820190508181035f8301526108538161081a565b9050919050565b61086381610516565b82525050565b5f60208201905061087c5f83018461085a565b9291505056fea2646970667358221220bc92bd32820b9cd08c297759c18aec4b6f8bd0fc4a93aab7e6f5e12d566ee4e364736f6c63430008140033",
  "linkReferences": {},
  "deployedLinkReferences": {}
}