{
  "_format": "hh-sol-artifact-1",
  "contractName": "BatchToken",
  "sourceName": "contracts/BatchToken.sol",
  "abi": [
    {
      "inputs": [],
      "stateMutability": "nonpayable",
      "type": "constructor"
    },
    {
      "anonymous": false,
      "inputs": [
        {
          "indexed": true,
          "internalType": "address",
          "name": "actor",
          "type": "address"
        }
      ],
      "name": "ActorAdded",
      "type": "event"
    },
    {
      "anonymous": false,
      "inputs": [
        {
          "indexed": true,
          "internalType": "address",
          "name": "actor",
          "type": "address"
        }
      ],
      "name": "ActorRemoved",
      "type": "event"
    },
    {
      "anonymous": false,
      "inputs": [
        {
          "indexed": false,
          "internalType": "string",
          "name": "batchExternalId",
          "type": "string"
        },
        {
          "indexed": false,
          "internalType": "string",
          "name": "itemId",
          "type": "string"
        }
      ],
      "name": "ItemLinked",
      "type": "event"
    },
    {
      "anonymous": false,
      "inputs": [
        {
          "indexed": true,
          "internalType": "uint256",
          "name": "transferId",
          "type": "uint256"
        },
        {
          "indexed": true,
          "internalType": "address",
          "name": "by",
          "type": "address"
        }
      ],
      "name": "TransferConfirmed",
      "type": "event"
    },
    {
      "anonymous": false,
      "inputs": [
        {
          "indexed": true,
          "internalType": "uint256",
          "name": "transferId",
          "type": "uint256"
        },
        {
          "indexed": true,
          "internalType": "address",
          "name": "from",
          "type": "address"
        },
        {
          "indexed": true,
          "internalType": "address",
          "name": "to",
          "type": "address"
        },
        {
          "indexed": false,
          "internalType": "uint256",
          "name": "plannedShipDate",
          "type": "uint256"
        },
        {
          "indexed": false,
          "internalType": "uint256",
          "name": "quantity",
          "type": "uint256"
        }
      ],
      "name": "TransferProposed",
      "type": "event"
    },
    {
      "anonymous": false,
      "inputs": [
        {
          "indexed": true,
          "internalType": "uint256",
          "name": "transferId",
          "type": "uint256"
        }
      ],
      "name": "TransferReceived",
      "type": "event"
    },
    {
      "anonymous": false,
      "inputs": [
        {
          "indexed": true,
          "internalType": "uint256",
          "name": "transferId",
          "type": "uint256"
        }
      ],
      "name": "TransferShipped",
      "type": "event"
    },
    {
      "inputs": [
        {
          "internalType": "address",
          "name": "actor",
          "type": "address"
        }
      ],
      "name": "addActor",
      "outputs": [],
      "stateMutability": "nonpayable",
      "type": "function"
    },
    {
      "inputs": [],
      "name": "admin",
      "outputs": [
        {
          "internalType": "address",
          "name": "",
          "type": "address"
        }
      ],
      "stateMutability": "view",
      "type": "function"
    },
    {
      "inputs": [
        {
          "internalType": "uint256",
          "name": "",
          "type": "uint256"
        }
      ],
      "name": "batchOf",
      "outputs": [
        {
          "internalType": "string",
          "name": "",
          "type": "string"
        }
      ],
      "stateMutability": "view",
      "type": "function"
    },
    {
      "inputs": [
        {
          "internalType": "uint256",
          "name": "transferId",
          "type": "uint256"
        }
      ],
      "name": "confirmTransfer",
      "outputs": [],
      "stateMutability": "nonpayable",
      "type": "function"
    },
    {
      "inputs": [
        {
          "internalType": "address",
          "name": "",
          "type": "address"
        }
      ],
      "name": "isActor",
      "outputs": [
        {
          "internalType": "bool",
          "name": "",
          "type": "bool"
        }
      ],
      "stateMutability": "view",
      "type": "function"
    },
    {
      "inputs": [
        {
          "internalType": "string",
          "name": "",
          "type": "string"
        }
      ],
      "name": "itemOfBatch",
      "outputs": [
        {
          "internalType": "string",
          "name": "",
          "type": "string"
        }
      ],
      "stateMutability": "view",
      "type": "function"
    },
    {
      "inputs": [
        {
          "internalType": "address",
          "name": "to",
          "type": "address"
        },
        {
          "internalType": "uint256",
          "name": "plannedShipDate",
          "type": "uint256"
        },
        {
          "internalType": "string",
          "name": "batchExternalId",
          "type": "string"
        },
        {
          "internalType": "uint256",
          "name": "quantity",
          "type": "uint256"
        }
      ],
      "name": "proposeTransfer",
      "outputs": [
        {
          "internalType": "uint256",
          "name": "transferId",
          "type": "uint256"
        }
      ],
      "stateMutability": "nonpayable",
      "type": "function"
    },
    {
      "inputs": [
        {
          "internalType": "address",
          "name": "to",
          "type": "address"
        },
        {
          "internalType": "uint256",
          "name": "plannedShipDate",
          "type": "uint256"
        },
        {
          "internalType": "string",
          "name": "batchExternalId",
          "type": "string"
        },
        {
          "internalType": "string",
          "name": "itemId",
          "type": "string"
        },
        {
          "internalType": "uint256",
          "name": "quantity",
          "type": "uint256"
        }
      ],
      "name": "proposeTransfer",
      "outputs": [
        {
          "internalType": "uint256",
          "name": "transferId",
          "type": "uint256"
        }
      ],
      "stateMutability": "nonpayable",
      "type": "function"
    },
    {
      "inputs": [
        {
          "internalType": "uint256",
          "name": "",
          "type": "uint256"
        }
      ],
      "name": "quantityOf",
      "outputs": [
        {
          "internalType": "uint256",
          "name": "",
          "type": "uint256"
        }
      ],
      "stateMutability": "view",
      "type": "function"
    },
    {
      "inputs": [
        {
          "internalType": "uint256",
          "name": "transferId",
          "type": "uint256"
        }
      ],
      "name": "receiveTransfer",
      "outputs": [],
      "stateMutability": "nonpayable",
      "type": "function"
    },
    {
      "inputs": [
        {
          "internalType": "uint256",
          "name": "",
          "type": "uint256"
        }
      ],
      "name": "recipientOf",
      "outputs": [
        {
          "internalType": "address",
          "name": "",
          "type": "address"
        }
      ],
      "stateMutability": "view",
      "type": "function"
    },
    {
      "inputs": [
        {
          "internalType": "address",
          "name": "actor",
          "type": "address"
        }
      ],
      "name": "removeActor",
      "outputs": [],
      "stateMutability": "nonpayable",
      "type": "function"
    },
    {
      "inputs": [
        {
          "internalType": "uint256",
          "name": "",
          "type": "uint256"
        }
      ],
      "name": "senderOf",
      "outputs": [
        {
          "internalType": "address",
          "name": "",
          "type": "address"
        }
      ],
      "stateMutability": "view",
      "type": "function"
    },
    {
      "inputs": [
        {
          "internalType": "string",
          "name": "batchExternalId",
          "type": "string"
        },
        {
          "internalType": "string",
          "name": "itemId",
          "type": "string"
        }
      ],
      "name": "setItemForBatch",
      "outputs": [],
      "stateMutability": "nonpayable",
      "type": "function"
    },
    {
      "inputs": [
        {
          "internalType": "uint256",
          "name": "transferId",
          "type": "uint256"
        }
      ],
      "name": "shipTransfer",
      "outputs": [],
      "stateMutability": "nonpayable",
      "type": "function"
    },
    {
      "inputs": [
        {
          "internalType": "uint256",
          "name": "",
          "type": "uint256"
        }
      ],
      "name": "status",
      "outputs": [
        {
          "internalType": "enum BatchToken.Status",
          "name": "",
          "type": "uint8"
        }
      ],
      "stateMutability": "view",
      "type": "function"
    },
    {
      "inputs": [
        {
          "internalType": "enum BatchToken.Status",
          "name": "s",
          "type": "uint8"
        }
      ],
      "name": "transfersInStatus",
      "outputs": [
        {
          "internalType": "uint256[]",
          "name": "",
          "type": "uint256[]"
        }
      ],
      "stateMutability": "view",
      "type": "function"
    }
  ],
  "bytecode": "0x6080604052600160005534801561001557600080fd5b5033600860006101000a81548173ffffffffffffffffffffffffffffffffffffffff021916908373ffffffffffffffffffffffffffffffffffffffff160217905550613001806100666000396000f3fe608060405234801561001057600080fd5b506004361061010b5760003560e01c80635f82ad07116100a2578063e288b62a11610071578063e288b62a146102d8578063ed554f0614610308578063f14cf04514610338578063f851a44014610368578063f9fb8cf1146103865761010b565b80635f82ad071461022c57806391355cc31461025c578063b18cbdad1461028c578063c7fe23a3146102a85761010b565b806342d21ef7116100de57806342d21ef7146101a85780634306386c146101d857806349d55d9d146101f457806356158044146102105761010b565b80631227840714610110578063170322a71461014057806318c108851461015c5780632c48e7db1461018c575b600080fd5b61012a60048036038101906101259190611d47565b6103b6565b6040516101379190611dde565b60405180910390f35b61015a60048036038101906101559190611df9565b6104f7565b005b61017660048036038101906101719190611e7a565b6105fa565b6040516101839190611f37565b60405180910390f35b6101a660048036038101906101a19190611e7a565b61069a565b005b6101c260048036038101906101bd9190611e7a565b6109ce565b6040516101cf9190611fd0565b60405180910390f35b6101f260048036038101906101ed9190611feb565b6109ee565b005b61020e60048036038101906102099190611e7a565b610ba9565b005b61022a60048036038101906102259190611feb565b610ec4565b005b61024660048036038101906102419190611e7a565b61107e565b6040516102539190611dde565b60405180910390f35b61027660048036038101906102719190611e7a565b611096565b6040516102839190612027565b60405180910390f35b6102a660048036038101906102a19190611e7a565b6110c9565b005b6102c260048036038101906102bd9190611feb565b6113e6565b6040516102cf919061205d565b60405180910390f35b6102f260048036038101906102ed91906121a8565b611406565b6040516102ff9190611f37565b60405180910390f35b610322600480360381019061031d9190612216565b6114bc565b60405161032f9190612301565b60405180910390f35b610352600480360381019061034d9190611e7a565b61153f565b60405161035f9190612027565b60405180910390f35b610370611572565b60405161037d9190612027565b60405180910390f35b6103a0600480360381019061039b9190612323565b611598565b6040516103ad9190611dde565b60405180910390f35b6000600960003373ffffffffffffffffffffffffffffffffffffffff1673ffffffffffffffffffffffffffffffffffffffff16815260200190815260200160002060009054906101000a900460ff168061045d5750600860009054906101000a900473ffffffffffffffffffffffffffffffffffffffff1673ffffffffffffffffffffffffffffffffffffffff163373ffffffffffffffffffffffffffffffffffffffff16145b61049c576040517f08c379a00000000000000000000000000000000000000000000000000000000081526004016104939061242b565b60405180910390fd5b6104ec868686868080601f016020809104026020016040519081016040528093929190818152602001838380828437600081840152601f19601f820116905080830192505050505050508561183c565b905095945050505050565b600860009054906101000a900473ffffffffffffffffffffffffffffffffffffffff1673ffffffffffffffffffffffffffffffffffffffff163373ffffffffffffffffffffffffffffffffffffffff1614610587576040517f08c379a000000000000000000000000000000000000000000000000000000000815260040161057e90612497565b60405180910390fd5b8181600a868660405161059b9291906124e7565b908152602001604051809103902091826105b6929190612717565b507f814e0ee4d86911d8252fcf2f504e81549099783d27d63a57e817aa7d157478f4848484846040516105ec9493929190612814565b60405180910390a150505050565b600660205280600052604060002060009150905080546106199061253a565b80601f01602080910402602001604051908101604052809291908181526020018280546106459061253a565b80156106925780601f1061066757610100808354040283529160200191610692565b820191906000526020600020905b81548152906001019060200180831161067557829003601f168201915b505050505081565b600960003373ffffffffffffffffffffffffffffffffffffffff1673ffffffffffffffffffffffffffffffffffffffff16815260200190815260200160002060009054906101000a900460ff168061073f5750600860009054906101000a900473ffffffffffffffffffffffffffffffffffffffff1673ffffffffffffffffffffffffffffffffffffffff163373ffffffffffffffffffffffffffffffffffffffff16145b61077e576040517f08c379a00000000000000000000000000000000000000000000000000000000081526004016107759061242b565b60405180910390fd5b6001600481111561079257610791611f59565b5b6001600083815260200190815260200160002060009054906101000a900460ff1660048111156107c5576107c4611f59565b5b14610805576040517f08c379a00000000000000000000000000000000000000000000000000000000081526004016107fc9061289b565b60405180910390fd5b6005600082815260200190815260200160002060009054906101000a900473ffffffffffffffffffffffffffffffffffffffff1673ffffffffffffffffffffffffffffffffffffffff163373ffffffffffffffffffffffffffffffffffffffff16146108a6576040517f08c379a000000000000000000000000000000000000000000000000000000000815260040161089d90612907565b60405180910390fd5b6108b1816001611b53565b60026001600083815260200190815260200160002060006101000a81548160ff021916908360048111156108e8576108e7611f59565b5b0217905550600260006002600481111561090557610904611f59565b5b60ff1660ff168152602001908152602001600020805490506003600083815260200190815260200160002081905550600260006002600481111561094c5761094b611f59565b5b60ff1660ff1681526020019081526020016000208190806001815401808255809150506001900390600052602060002001600090919091909150553373ffffffffffffffffffffffffffffffffffffffff16817f88f3a431c8e7503e1205db0131787d8fdd671a45c660e4c9083954584993912f60405160405180910390a350565b60016020528060005260406000206000915054906101000a900460ff1681565b600860009054906101000a900473ffffffffffffffffffffffffffffffffffffffff1673ffffffffffffffffffffffffffffffffffffffff163373ffffffffffffffffffffffffffffffffffffffff1614610a7e576040517f08c379a0000000000000000000000000000000000000000000000000000000008152600401610a7590612497565b60405180910390fd5b600960008273ffffffffffffffffffffffffffffffffffffffff1673ffffffffffffffffffffffffffffffffffffffff16815260200190815260200160002060009054906101000a900460ff1615610b0b576040517f08c379a0000000000000000000000000000000000000000000000000000000008152600401610b0290612973565b60405180910390fd5b6001600960008373ffffffffffffffffffffffffffffffffffffffff1673ffffffffffffffffffffffffffffffffffffffff16815260200190815260200160002060006101000a81548160ff0219169083151502179055508073ffffffffffffffffffffffffffffffffffffffff167f54d4b1f3751e8659884e4ad0e7bb337ee7cff867bbd7d99be0d9018ea9c5ed7460405160405180910390a250565b600960003373ffffffffffffffffffffffffffffffffffffffff1673ffffffffffffffffffffffffffffffffffffffff16815260200190815260200160002060009054906101000a900460ff1680610c4e5750600860009054906101000a900473ffffffffffffffffffffffffffffffffffffffff1673ffffffffffffffffffffffffffffffffffffffff163373ffffffffffffffffffffffffffffffffffffffff16145b610c8d576040517f08c379a0000000000000000000000000000000000000000000000000000000008152600401610c849061242b565b60405180910390fd5b60036004811115610ca157610ca0611f59565b5b6001600083815260200190815260200160002060009054906101000a900460ff166004811115610cd457610cd3611f59565b5b14610d14576040517f08c379a0000000000000000000000000000000000000000000000000000000008152600401610d0b906129df565b60405180910390fd5b6005600082815260200190815260200160002060009054906101000a900473ffffffffffffffffffffffffffffffffffffffff1673ffffffffffffffffffffffffffffffffffffffff163373ffffffffffffffffffffffffffffffffffffffff1614610db5576040517f08c379a0000000000000000000000000000000000000000000000000000000008152600401610dac90612907565b60405180910390fd5b610dc0816003611b53565b60046001600083815260200190815260200160002060006101000a81548160ff02191690836004811115610df757610df6611f59565b5b021790555060026000600480811115610e1357610e12611f59565b5b60ff1660ff16815260200190815260200160002080549050600360008381526020019081526020016000208190555060026000600480811115610e5957610e58611f59565b5b60ff1660ff168152602001908152602001600020819080600181540180825580915050600190039060005260206000200160009091909190915055807fbbec0b967a4a7047807d3b3aabef6c5fe63b7284be1a4c4750a5729541e7140760405160405180910390a250565b600860009054906101000a900473ffffffffffffffffffffffffffffffffffffffff1673ffffffffffffffffffffffffffffffffffffffff163373ffffffffffffffffffffffffffffffffffffffff1614610f54576040517f08c379a0000000000000000000000000000000000000000000000000000000008152600401610f4b90612497565b60405180910390fd5b600960008273ffffffffffffffffffffffffffffffffffffffff1673ffffffffffffffffffffffffffffffffffffffff16815260200190815260200160002060009054906101000a900460ff16610fe0576040517f08c379a0000000000000000000000000000000000000000000000000000000008152600401610fd790612a4b565b60405180910390fd5b6000600960008373ffffffffffffffffffffffffffffffffffffffff1673ffffffffffffffffffffffffffffffffffffffff16815260200190815260200160002060006101000a81548160ff0219169083151502179055508073ffffffffffffffffffffffffffffffffffffffff167fa1a654053d0241d9a21038d7afc0a939aa3be322b6ab46323ddf73d6fbc1b6e160405160405180910390a250565b60076020528060005260406000206000915090505481565b60046020528060005260406000206000915054906101000a900473ffffffffffffffffffffffffffffffffffffffff1681565b600960003373ffffffffffffffffffffffffffffffffffffffff1673ffffffffffffffffffffffffffffffffffffffff16815260200190815260200160002060009054906101000a900460ff168061116e5750600860009054906101000a900473ffffffffffffffffffffffffffffffffffffffff1673ffffffffffffffffffffffffffffffffffffffff163373ffffffffffffffffffffffffffffffffffffffff16145b6111ad576040517f08c379a00000000000000000000000000000000000000000000000000000000081526004016111a49061242b565b60405180910390fd5b600260048111156111c1576111c0611f59565b5b6001600083815260200190815260200160002060009054906101000a900460ff1660048111156111f4576111f3611f59565b5b14611234576040517f08c379a000000000000000000000000000000000000000000000000000000000815260040161122b90612ab7565b60405180910390fd5b6004600082815260200190815260200160002060009054906101000a900473ffffffffffffffffffffffffffffffffffffffff1673ffffffffffffffffffffffffffffffffffffffff163373ffffffffffffffffffffffffffffffffffffffff16146112d5576040517f08c379a00000000000000000000000000000000000000000000000000000000081526004016112cc90612b23565b60405180910390fd5b6112e0816002611b53565b60036001600083815260200190815260200160002060006101000a81548160ff0219169083600481111561131757611316611f59565b5b0217905550600260006003600481111561133457611333611f59565b5b60ff1660ff168152602001908152602001600020805490506003600083815260200190815260200160002081905550600260006003600481111561137b5761137a611f59565b5b60ff1660ff168152602001908152602001600020819080600181540180825580915050600190039060005260206000200160009091909190915055807f679d820d524425ab4ee5896bd007960ee535fc991a63e905474e17168a99949b60405160405180910390a250565b60096020528060005260406000206000915054906101000a900460ff1681565b600a81805160208101820180518482526020830160208501208183528095505050505050600091509050805461143b9061253a565b80601f01602080910402602001604051908101604052809291908181526020018280546114679061253a565b80156114b45780601f10611489576101008083540402835291602001916114b4565b820191906000526020600020905b81548152906001019060200180831161149757829003601f168201915b505050505081565b6060600260008360048111156114d5576114d4611f59565b5b60ff1660ff16815260200190815260200160002080548060200260200160405190810160405280929190818152602001828054801561153357602002820191906000526020600020905b81548152602001906001019080831161151f575b50505050509050919050565b60056020528060005260406000206000915054906101000a900473ffffffffffffffffffffffffffffffffffffffff1681565b600860009054906101000a900473ffffffffffffffffffffffffffffffffffffffff1681565b6000600960003373ffffffffffffffffffffffffffffffffffffffff1673ffffffffffffffffffffffffffffffffffffffff16815260200190815260200160002060009054906101000a900460ff168061163f5750600860009054906101000a900473ffffffffffffffffffffffffffffffffffffffff1673ffffffffffffffffffffffffffffffffffffffff163373ffffffffffffffffffffffffffffffffffffffff16145b61167e576040517f08c379a00000000000000000000000000000000000000000000000000000000081526004016116759061242b565b60405180910390fd5b600084849050036116c4576040517f08c379a00000000000000000000000000000000000000000000000000000000081526004016116bb90612b8f565b60405180910390fd5b6000600a87876040516116d89291906124e7565b9081526020016040518091039020905060008180546116f69061253a565b90500361176f578484600a89896040516117119291906124e7565b9081526020016040518091039020918261172c929190612717565b507f814e0ee4d86911d8252fcf2f504e81549099783d27d63a57e817aa7d157478f4878787876040516117629493929190612814565b60405180910390a16117de565b848460405161177f929190612bdf565b6040518091039020816040516117959190612c90565b6040518091039020146117dd576040517f08c379a00000000000000000000000000000000000000000000000000000000081526004016117d490612cf3565b60405180910390fd5b5b61182e898989898080601f016020809104026020016040519081016040528093929190818152602001838380828437600081840152601f19601f820116905080830192505050505050508661183c565b915050979650505050505050565b60003373ffffffffffffffffffffffffffffffffffffffff168573ffffffffffffffffffffffffffffffffffffffff16036118ac576040517f08c379a00000000000000000000000000000000000000000000000000000000081526004016118a390612d5f565b60405180910390fd5b6000600a846040516118be9190612db0565b908152602001604051809103902080546118d79061253a565b905003611919576040517f08c379a000000000000000000000000000000000000000000000000000000000815260040161191090612b8f565b60405180910390fd5b60008081548092919061192b90612df6565b919050559050336004600083815260200190815260200160002060006101000a81548173ffffffffffffffffffffffffffffffffffffffff021916908373ffffffffffffffffffffffffffffffffffffffff160217905550846005600083815260200190815260200160002060006101000a81548173ffffffffffffffffffffffffffffffffffffffff021916908373ffffffffffffffffffffffffffffffffffffffff160217905550826006600083815260200190815260200160002090816119f59190612e3e565b50816007600083815260200190815260200160002081905550600180600083815260200190815260200160002060006101000a81548160ff02191690836004811115611a4457611a43611f59565b5b02179055506002600060016004811115611a6157611a60611f59565b5b60ff1660ff1681526020019081526020016000208054905060036000838152602001908152602001600020819055506002600060016004811115611aa857611aa7611f59565b5b60ff1660ff1681526020019081526020016000208190806001815401808255809150506001900390600052602060002001600090919091909150558473ffffffffffffffffffffffffffffffffffffffff163373ffffffffffffffffffffffffffffffffffffffff16827f31ba85b55025ddb5be9fe39085effb86a3e5b63876cf18f1d9e5926f7b84c01a8786604051611b43929190612f10565b60405180910390a4949350505050565b6000816004811115611b6857611b67611f59565b5b90506000600360008581526020019081526020016000205490506000600260008460ff1660ff168152602001908152602001600020905060008160018380549050611bb39190612f39565b81548110611bc457611bc3612f6d565b5b9060005260206000200154905080828481548110611be557611be4612f6d565b5b906000526020600020018190555082600360008381526020019081526020016000208190555081805480611c1c57611c1b612f9c565b5b60019003818190600052602060002001600090559055505050505050565b6000604051905090565b600080fd5b600080fd5b600073ffffffffffffffffffffffffffffffffffffffff82169050919050565b6000611c7982611c4e565b9050919050565b611c8981611c6e565b8114611c9457600080fd5b50565b600081359050611ca681611c80565b92915050565b6000819050919050565b611cbf81611cac565b8114611cca57600080fd5b50565b600081359050611cdc81611cb6565b92915050565b600080fd5b600080fd5b600080fd5b60008083601f840112611d0757611d06611ce2565b5b8235905067ffffffffffffffff811115611d2457611d23611ce7565b5b602083019150836001820283011115611d4057611d3f611cec565b5b9250929050565b600080600080600060808688031215611d6357611d62611c44565b5b6000611d7188828901611c97565b9550506020611d8288828901611ccd565b945050604086013567ffffffffffffffff811115611da357611da2611c49565b5b611daf88828901611cf1565b93509350506060611dc288828901611ccd565b9150509295509295909350565b611dd881611cac565b82525050565b6000602082019050611df36000830184611dcf565b92915050565b60008060008060408587031215611e1357611e12611c44565b5b600085013567ffffffffffffffff811115611e3157611e30611c49565b5b611e3d87828801611cf1565b9450945050602085013567ffffffffffffffff811115611e6057611e5f611c49565b5b611e6c87828801611cf1565b925092505092959194509250565b600060208284031215611e9057611e8f611c44565b5b6000611e9e84828501611ccd565b91505092915050565b600081519050919050565b600082825260208201905092915050565b60005b83811015611ee1578082015181840152602081019050611ec6565b60008484015250505050565b6000601f19601f8301169050919050565b6000611f0982611ea7565b611f138185611eb2565b9350611f23818560208601611ec3565b611f2c81611eed565b840191505092915050565b60006020820190508181036000830152611f518184611efe565b905092915050565b7f4e487b7100000000000000000000000000000000000000000000000000000000600052602160045260246000fd5b60058110611f9957611f98611f59565b5b50565b6000819050611faa82611f88565b919050565b6000611fba82611f9c565b9050919050565b611fca81611faf565b82525050565b6000602082019050611fe56000830184611fc1565b92915050565b60006020828403121561200157612000611c44565b5b600061200f84828501611c97565b91505092915050565b61202181611c6e565b82525050565b600060208201905061203c6000830184612018565b92915050565b60008115159050919050565b61205781612042565b82525050565b6000602082019050612072600083018461204e565b92915050565b600080fd5b7f4e487b7100000000000000000000000000000000000000000000000000000000600052604160045260246000fd5b6120b582611eed565b810181811067ffffffffffffffff821117156120d4576120d361207d565b5b80604052505050565b60006120e7611c3a565b90506120f382826120ac565b919050565b600067ffffffffffffffff8211156121135761211261207d565b5b61211c82611eed565b9050602081019050919050565b82818337600083830152505050565b600061214b612146846120f8565b6120dd565b90508281526020810184848401111561216757612166612078565b5b612172848285612129565b509392505050565b600082601f83011261218f5761218e611ce2565b5b813561219f848260208601612138565b91505092915050565b6000602082840312156121be576121bd611c44565b5b600082013567ffffffffffffffff8111156121dc576121db611c49565b5b6121e88482850161217a565b91505092915050565b600581106121fe57600080fd5b50565b600081359050612210816121f1565b92915050565b60006020828403121561222c5761222b611c44565b5b600061223a84828501612201565b91505092915050565b600081519050919050565b600082825260208201905092915050565b6000819050602082019050919050565b61227881611cac565b82525050565b600061228a838361226f565b60208301905092915050565b6000602082019050919050565b60006122ae82612243565b6122b8818561224e565b93506122c38361225f565b8060005b838110156122f45781516122db888261227e565b97506122e683612296565b9250506001810190506122c7565b5085935050505092915050565b6000602082019050818103600083015261231b81846122a3565b905092915050565b600080600080600080600060a0888a03121561234257612341611c44565b5b60006123508a828b01611c97565b97505060206123618a828b01611ccd565b965050604088013567ffffffffffffffff81111561238257612381611c49565b5b61238e8a828b01611cf1565b9550955050606088013567ffffffffffffffff8111156123b1576123b0611c49565b5b6123bd8a828b01611cf1565b935093505060806123d08a828b01611ccd565b91505092959891949750929550565b7f6f6e6c79206163746f7200000000000000000000000000000000000000000000600082015250565b6000612415600a83611eb2565b9150612420826123df565b602082019050919050565b6000602082019050818103600083015261244481612408565b9050919050565b7f6f6e6c792061646d696e00000000000000000000000000000000000000000000600082015250565b6000612481600a83611eb2565b915061248c8261244b565b602082019050919050565b600060208201905081810360008301526124b081612474565b9050919050565b600081905092915050565b60006124ce83856124b7565b93506124db838584612129565b82840190509392505050565b60006124f48284866124c2565b91508190509392505050565b600082905092915050565b7f4e487b7100000000000000000000000000000000000000000000000000000000600052602260045260246000fd5b6000600282049050600182168061255257607f821691505b6020821081036125655761256461250b565b5b50919050565b60008190508160005260206000209050919050565b60006020601f8301049050919050565b600082821b905092915050565b6000600883026125cd7fffffffffffffffffffffffffffffffffffffffffffffffffffffffffffffffff82612590565b6125d78683612590565b95508019841693508086168417925050509392505050565b6000819050919050565b600061261461260f61260a84611cac565b6125ef565b611cac565b9050919050565b6000819050919050565b61262e836125f9565b61264261263a8261261b565b84845461259d565b825550505050565b600090565b61265761264a565b612662818484612625565b505050565b5b818110156126865761267b60008261264f565b600181019050612668565b5050565b601f8211156126cb5761269c8161256b565b6126a584612580565b810160208510156126b4578190505b6126c86126c085612580565b830182612667565b50505b505050565b600082821c905092915050565b60006126ee600019846008026126d0565b1980831691505092915050565b600061270783836126dd565b9150826002028217905092915050565b6127218383612500565b67ffffffffffffffff81111561273a5761273961207d565b5b612744825461253a565b61274f82828561268a565b6000601f83116001811461277e576000841561276c578287013590505b61277685826126fb565b8655506127de565b601f19841661278c8661256b565b60005b828110156127b45784890135825560018201915060208501945060208101905061278f565b868310156127d157848901356127cd601f8916826126dd565b8355505b6001600288020188555050505b50505050505050565b60006127f38385611eb2565b9350612800838584612129565b61280983611eed565b840190509392505050565b6000604082019050818103600083015261282f8186886127e7565b905081810360208301526128448184866127e7565b905095945050505050565b7f6e6f742070726f706f7365640000000000000000000000000000000000000000600082015250565b6000612885600c83611eb2565b91506128908261284f565b602082019050919050565b600060208201905081810360008301526128b481612878565b9050919050565b7f6f6e6c7920726563697069656e74000000000000000000000000000000000000600082015250565b60006128f1600e83611eb2565b91506128fc826128bb565b602082019050919050565b60006020820190508181036000830152612920816128e4565b9050919050565b7f616c7265616479206163746f7200000000000000000000000000000000000000600082015250565b600061295d600d83611eb2565b915061296882612927565b602082019050919050565b6000602082019050818103600083015261298c81612950565b9050919050565b7f6e6f742073686970706564000000000000000000000000000000000000000000600082015250565b60006129c9600b83611eb2565b91506129d482612993565b602082019050919050565b600060208201905081810360008301526129f8816129bc565b9050919050565b7f6e6f74206163746f720000000000000000000000000000000000000000000000600082015250565b6000612a35600983611eb2565b9150612a40826129ff565b602082019050919050565b60006020820190508181036000830152612a6481612a28565b9050919050565b7f6e6f7420636f6e6669726d656400000000000000000000000000000000000000600082015250565b6000612aa1600d83611eb2565b9150612aac82612a6b565b602082019050919050565b60006020820190508181036000830152612ad081612a94565b9050919050565b7f6f6e6c792073656e646572000000000000000000000000000000000000000000600082015250565b6000612b0d600b83611eb2565b9150612b1882612ad7565b602082019050919050565b60006020820190508181036000830152612b3c81612b00565b9050919050565b7f6974656d20726571756972656400000000000000000000000000000000000000600082015250565b6000612b79600d83611eb2565b9150612b8482612b43565b602082019050919050565b60006020820190508181036000830152612ba881612b6c565b9050919050565b600081905092915050565b6000612bc68385612baf565b9350612bd3838584612129565b82840190509392505050565b6000612bec828486612bba565b91508190509392505050565b60008190508160005260206000209050919050565b60008154612c1a8161253a565b612c248186612baf565b94506001821660008114612c3f5760018114612c5457612c87565b60ff1983168652811515820286019350612c87565b612c5d85612bf8565b60005b83811015612c7f57815481890152600182019150602081019050612c60565b838801955050505b50505092915050565b6000612c9c8284612c0d565b915081905092915050565b7f6974656d206d69736d6174636800000000000000000000000000000000000000600082015250565b6000612cdd600d83611eb2565b9150612ce882612ca7565b602082019050919050565b60006020820190508181036000830152612d0c81612cd0565b9050919050565b7f696e76616c696420726563697069656e74000000000000000000000000000000600082015250565b6000612d49601183611eb2565b9150612d5482612d13565b602082019050919050565b60006020820190508181036000830152612d7881612d3c565b9050919050565b6000612d8a82611ea7565b612d9481856124b7565b9350612da4818560208601611ec3565b80840191505092915050565b6000612dbc8284612d7f565b915081905092915050565b7f4e487b7100000000000000000000000000000000000000000000000000000000600052601160045260246000fd5b6000612e0182611cac565b91507fffffffffffffffffffffffffffffffffffffffffffffffffffffffffffffffff8203612e3357612e32612dc7565b5b600182019050919050565b612e4782611ea7565b67ffffffffffffffff811115612e6057612e5f61207d565b5b612e6a825461253a565b612e7582828561268a565b600060209050601f831160018114612ea85760008415612e96578287015190505b612ea085826126fb565b865550612f08565b601f198416612eb68661256b565b60005b82811015612ede57848901518255600182019150602085019450602081019050612eb9565b86831015612efb5784890151612ef7601f8916826126dd565b8355505b6001600288020188555050505b505050505050565b6000604082019050612f256000830185611dcf565b612f326020830184611dcf565b9392505050565b6000612f4482611cac565b9150612f4f83611cac565b9250828203905081811115612f6757612f66612dc7565b5b92915050565b7f4e487b7100000000000000000000000000000000000000000000000000000000600052603260045260246000fd5b7f4e487b7100000000000000000000000000000000000000000000000000000000600052603160045260246000fdfea2646970667358221220664f9c40620cfad2d9396fd743fcff1b3e4b869aa71060cf9a34c98064ccb8a264736f6c63430008140033",
  "linkReferences": {},
  "deployedLinkReferences": {}
}