{
  "_format": "hh-sol-artifact-1",
  "contractName": "BatchToken",
  "sourceName": "contracts/BatchToken.sol",
  "abi": [
    {
      "anonymous": false,
      "inputs": [
        {
          "indexed": true,
          "internalType": "uint256",
          "name": "batchId",
          "type": "uint256"
        }
      ],
      "name": "BatchReceived",
      "type": "event"
    },
    {
      "anonymous": false,
      "inputs": [
        {
          "indexed": true,
          "internalType": "uint256",
          "name": "batchId",
          "type": "uint256"
        }
      ],
      "name": "BatchShipped",
      "type": "event"
    },
    {
      "anonymous": false,
      "inputs": [
        {
          "indexed": true,
          "internalType": "uint256",
          "name": "batchId",
          "type": "uint256"
        },
        {
          "indexed": true,
          "internalType": "address",
          "name": "by",
          "type": "address"
        }
      ],
      "name": "TransferConfirmed",
      "type": "event"
    },
    {
      "anonymous": false,
      "inputs": [
        {
          "indexed": true,
          "internalType": "uint256",
          "name": "batchId",
          "type": "uint256"
        },
        {
          "indexed": true,
          "internalType": "address",
          "name": "from",
          "type": "address"
        },
        {
          "indexed": true,
          "internalType": "address",
          "name": "to",
          "type": "address"
        },
        {
          "indexed": false,
          "internalType": "uint256",
          "name": "plannedShipDate",
          "type": "uint256"
        }
      ],
      "name": "TransferProposed",
      "type": "event"
    },
    {
      "inputs": [
        {
          "internalType": "enum BatchToken.Status",
          "name": "s",
          "type": "uint8"
        }
      ],
      "name": "batchesInStatus",
      "outputs": [
        {
          "internalType": "uint256[]",
          "name": "",
          "type": "uint256[]"
        }
      ],
      "stateMutability": "view",
      "type": "function"
    },
    {
      "inputs": [
        {
          "internalType": "uint256",
          "name": "batchId",
          "type": "uint256"
        }
      ],
      "name": "confirmTransfer",
      "outputs": [],
      "stateMutability": "nonpayable",
      "type": "function"
    },
    {
      "inputs": [
        {
          "internalType": "uint256",
          "name": "batchId",
          "type": "uint256"
        },
        {
          "internalType": "address",
          "name": "to",
          "type": "address"
        },
        {
          "internalType": "uint256",
          "name": "plannedShipDate",
          "type": "uint256"
        }
      ],
      "name": "proposeTransfer",
      "outputs": [],
      "stateMutability": "nonpayable",
      "type": "function"
    },
    {
      "inputs": [
        {
          "internalType": "uint256",
          "name": "batchId",
          "type": "uint256"
        }
      ],
      "name": "receiveBatch",
      "outputs": [],
      "stateMutability": "nonpayable",
      "type": "function"
    },
    {
      "inputs": [
        {
          "internalType": "uint256",
          "name": "",
          "type": "uint256"
        }
      ],
      "name": "recipientOf",
      "outputs": [
        {
          "internalType": "address",
          "name": "",
          "type": "address"
        }
      ],
      "stateMutability": "view",
      "type": "function"
    },
    {
      "inputs": [
        {
          "internalType": "uint256",
          "name": "",
          "type": "uint256"
        }
      ],
      "name": "senderOf",
      "outputs": [
        {
          "internalType": "address",
          "name": "",
          "type": "address"
        }
      ],
      "stateMutability": "view",
      "type": "function"
    },
    {
      "inputs": [
        {
          "internalType": "uint256",
          "name": "batchId",
          "type": "uint256"
        }
      ],
      "name": "shipBatch",
      "outputs": [],
      "stateMutability": "nonpayable",
      "type": "function"
    },
    {
      "inputs": [
        {
          "internalType": "uint256",
          "name": "",
          "type": "uint256"
        }
      ],
      "name": "status",
      "outputs": [
        {
          "internalType": "enum BatchToken.Status",
          "name": "",
          "type": "uint8"
        }
      ],
      "stateMutability": "view",
      "type": "function"
    }
  ],
  "bytecode": "0x6080604052348015600e575f80fd5b506112e08061001c5f395ff3fe608060405234801561000f575f80fd5b5060043610610086575f3560e01c8063ba53528111610059578063ba53528114610136578063e9cee4b914610152578063f14cf0451461016e578063fd2e35621461019e57610086565b8063273308461461008a5780632c48e7db146100ba57806342d21ef7146100d657806391355cc314610106575b5f80fd5b6100a4600480360381019061009f9190610c8a565b6101ba565b6040516100b19190610d75565b60405180910390f35b6100d460048036038101906100cf9190610dbf565b610239565b005b6100f060048036038101906100eb9190610dbf565b610475565b6040516100fd9190610e5d565b60405180910390f35b610120600480360381019061011b9190610dbf565b610491565b60405161012d9190610eb5565b60405180910390f35b610150600480360381019061014b9190610dbf565b6104c1565b005b61016c60048036038101906101679190610dbf565b6106e6565b005b61018860048036038101906101839190610dbf565b610909565b6040516101959190610eb5565b60405180910390f35b6101b860048036038101906101b39190610ef8565b610939565b005b606060015f8360048111156101d2576101d1610dea565b5b60ff1660ff1681526020019081526020015f2080548060200260200160405190810160405280929190818152602001828054801561022d57602002820191905f5260205f20905b815481526020019060010190808311610219575b50505050509050919050565b6001600481111561024d5761024c610dea565b5b5f808381526020019081526020015f205f9054906101000a900460ff16600481111561027c5761027b610dea565b5b146102bc576040517f08c379a00000000000000000000000000000000000000000000000000000000081526004016102b390610fa2565b60405180910390fd5b60045f8281526020019081526020015f205f9054906101000a900473ffffffffffffffffffffffffffffffffffffffff1673ffffffffffffffffffffffffffffffffffffffff163373ffffffffffffffffffffffffffffffffffffffff161461035a576040517f08c379a00000000000000000000000000000000000000000000000000000000081526004016103519061100a565b60405180910390fd5b610365816001610b8d565b60025f808381526020019081526020015f205f6101000a81548160ff0219169083600481111561039857610397610dea565b5b021790555060015f600260048111156103b4576103b3610dea565b5b60ff1660ff1681526020019081526020015f208054905060025f8381526020019081526020015f208190555060015f600260048111156103f7576103f6610dea565b5b60ff1660ff1681526020019081526020015f2081908060018154018082558091505060019003905f5260205f20015f90919091909150553373ffffffffffffffffffffffffffffffffffffffff16817f88f3a431c8e7503e1205db0131787d8fdd671a45c660e4c9083954584993912f60405160405180910390a350565b5f602052805f5260405f205f915054906101000a900460ff1681565b6003602052805f5260405f205f915054906101000a900473ffffffffffffffffffffffffffffffffffffffff1681565b600260048111156104d5576104d4610dea565b5b5f808381526020019081526020015f205f9054906101000a900460ff16600481111561050457610503610dea565b5b14610544576040517f08c379a000000000000000000000000000000000000000000000000000000000815260040161053b90611072565b60405180910390fd5b60035f8281526020019081526020015f205f9054906101000a900473ffffffffffffffffffffffffffffffffffffffff1673ffffffffffffffffffffffffffffffffffffffff163373ffffffffffffffffffffffffffffffffffffffff16146105e2576040517f08c379a00000000000000000000000000000000000000000000000000000000081526004016105d9906110da565b60405180910390fd5b6105ed816002610b8d565b60035f808381526020019081526020015f205f6101000a81548160ff021916908360048111156106205761061f610dea565b5b021790555060015f6003600481111561063c5761063b610dea565b5b60ff1660ff1681526020019081526020015f208054905060025f8381526020019081526020015f208190555060015f6003600481111561067f5761067e610dea565b5b60ff1660ff1681526020019081526020015f2081908060018154018082558091505060019003905f5260205f20015f9091909190915055807fa0a01734fd51ee303fab34f5e6d6c9f521e8e346914be69d0e1c211920b29e6e60405160405180910390a250565b600360048111156106fa576106f9610dea565b5b5f808381526020019081526020015f205f9054906101000a900460ff16600481111561072957610728610dea565b5b14610769576040517f08c379a000000000000000000000000000000000000000000000000000000000815260040161076090611142565b60405180910390fd5b60045f8281526020019081526020015f205f9054906101000a900473ffffffffffffffffffffffffffffffffffffffff1673ffffffffffffffffffffffffffffffffffffffff163373ffffffffffffffffffffffffffffffffffffffff1614610807576040517f08c379a00000000000000000000000000000000000000000000000000000000081526004016107fe9061100a565b60405180910390fd5b610812816003610b8d565b60045f808381526020019081526020015f205f6101000a81548160ff0219169083600481111561084557610844610dea565b5b021790555060015f6004808111156108605761085f610dea565b5b60ff1660ff1681526020019081526020015f208054905060025f8381526020019081526020015f208190555060015f6004808111156108a2576108a1610dea565b5b60ff1660ff1681526020019081526020015f2081908060018154018082558091505060019003905f5260205f20015f9091909190915055807fe0c0288112891897b19d64626d45679eb4439dc0fb2896ed5dc3b6028edc2ed460405160405180910390a250565b6004602052805f5260405f205f915054906101000a900473ffffffffffffffffffffffffffffffffffffffff1681565b5f600481111561094c5761094b610dea565b5b5f808581526020019081526020015f205f9054906101000a900460ff16600481111561097b5761097a610dea565b5b146109bb576040517f08c379a00000000000000000000000000000000000000000000000000000000081526004016109b2906111aa565b60405180910390fd5b3360035f8581526020019081526020015f205f6101000a81548173ffffffffffffffffffffffffffffffffffffffff021916908373ffffffffffffffffffffffffffffffffffffffff1602179055508160045f8581526020019081526020015f205f6101000a81548173ffffffffffffffffffffffffffffffffffffffff021916908373ffffffffffffffffffffffffffffffffffffffff16021790555060015f808581526020019081526020015f205f6101000a81548160ff02191690836004811115610a8c57610a8b610dea565b5b021790555060015f60016004811115610aa857610aa7610dea565b5b60ff1660ff1681526020019081526020015f208054905060025f8581526020019081526020015f208190555060015f60016004811115610aeb57610aea610dea565b5b60ff1660ff1681526020019081526020015f2083908060018154018082558091505060019003905f5260205f20015f90919091909150558173ffffffffffffffffffffffffffffffffffffffff163373ffffffffffffffffffffffffffffffffffffffff16847f38ad22e5704952fc5eaf855fe6a8193abeeae5963626b72a552fe2584d053e4e84604051610b8091906111d7565b60405180910390a4505050565b5f816004811115610ba157610ba0610dea565b5b90505f60025f8581526020019081526020015f205490505f60015f8460ff1660ff1681526020019081526020015f2090505f8160018380549050610be5919061121d565b81548110610bf657610bf5611250565b5b905f5260205f200154905080828481548110610c1557610c14611250565b5b905f5260205f2001819055508260025f8381526020019081526020015f208190555081805480610c4857610c4761127d565b5b600190038181905f5260205f20015f90559055505050505050565b5f80fd5b60058110610c73575f80fd5b50565b5f81359050610c8481610c67565b92915050565b5f60208284031215610c9f57610c9e610c63565b5b5f610cac84828501610c76565b91505092915050565b5f81519050919050565b5f82825260208201905092915050565b5f819050602082019050919050565b5f819050919050565b610cf081610cde565b82525050565b5f610d018383610ce7565b60208301905092915050565b5f602082019050919050565b5f610d2382610cb5565b610d2d8185610cbf565b9350610d3883610ccf565b805f5b83811015610d68578151610d4f8882610cf6565b9750610d5a83610d0d565b925050600181019050610d3b565b5085935050505092915050565b5f6020820190508181035f830152610d8d8184610d19565b905092915050565b610d9e81610cde565b8114610da8575f80fd5b50565b5f81359050610db981610d95565b92915050565b5f60208284031215610dd457610dd3610c63565b5b5f610de184828501610dab565b91505092915050565b7f4e487b71000000000000000000000000000000000000000000000000000000005f52602160045260245ffd5b60058110610e2857610e27610dea565b5b50565b5f819050610e3882610e17565b919050565b5f610e4782610e2b565b9050919050565b610e5781610e3d565b82525050565b5f602082019050610e705f830184610e4e565b92915050565b5f73ffffffffffffffffffffffffffffffffffffffff82169050919050565b5f610e9f82610e76565b9050919050565b610eaf81610e95565b82525050565b5f602082019050610ec85f830184610ea6565b92915050565b610ed781610e95565b8114610ee1575f80fd5b50565b5f81359050610ef281610ece565b92915050565b5f805f60608486031215610f0f57610f0e610c63565b5b5f610f1c86828701610dab565b9350506020610f2d86828701610ee4565b9250506040610f3e86828701610dab565b9150509250925092565b5f82825260208201905092915050565b7f6e6f742070726f706f73656400000000000000000000000000000000000000005f82015250565b5f610f8c600c83610f48565b9150610f9782610f58565b602082019050919050565b5f6020820190508181035f830152610fb981610f80565b9050919050565b7f6f6e6c7920726563697069656e740000000000000000000000000000000000005f82015250565b5f610ff4600e83610f48565b9150610fff82610fc0565b602082019050919050565b5f6020820190508181035f83015261102181610fe8565b9050919050565b7f6e6f7420636f6e6669726d6564000000000000000000000000000000000000005f82015250565b5f61105c600d83610f48565b915061106782611028565b602082019050919050565b5f6020820190508181035f83015261108981611050565b9050919050565b7f6f6e6c792073656e6465720000000000000000000000000000000000000000005f82015250565b5f6110c4600b83610f48565b91506110cf82611090565b602082019050919050565b5f6020820190508181035f8301526110f1816110b8565b9050919050565b7f6e6f7420736869707065640000000000000000000000000000000000000000005f82015250565b5f61112c600b83610f48565b9150611137826110f8565b602082019050919050565b5f6020820190508181035f83015261115981611120565b9050919050565b7f616c726561647920696e697469617465640000000000000000000000000000005f82015250565b5f611194601183610f48565b915061119f82611160565b602082019050919050565b5f6020820190508181035f8301526111c181611188565b9050919050565b6111d181610cde565b82525050565b5f6020820190506111ea5f8301846111c8565b92915050565b7f4e487b71000000000000000000000000000000000000000000000000000000005f52601160045260245ffd5b5f61122782610cde565b915061123283610cde565b925082820390508181111561124a576112496111f0565b5b92915050565b7f4e487b71000000000000000000000000000000000000000000000000000000005f52603260045260245ffd5b7f4e487b71000000000000000000000000000000000000000000000000000000005f52603160045260245ffdfea26469706673582212201691ba165bbe82516e4e6d5226d6b558f62e667a9ac3984394378b240c89492464736f6c634300081a0033",
  "linkReferences": {},
  "deployedLinkReferences": {}
}