{
  "_format": "hh-sol-artifact-1",
  "contractName": "BatchToken",
  "sourceName": "contracts/BatchToken.sol",
  "abi": [
    {
      "anonymous": false,
      "inputs": [
        {
          "indexed": true,
          "internalType": "uint256",
          "name": "batchId",
          "type": "uint256"
        }
      ],
      "name": "BatchReceived",
      "type": "event"
    },
    {
      "anonymous": false,
      "inputs": [
        {
          "indexed": true,
          "internalType": "uint256",
          "name": "batchId",
          "type": "uint256"
        }
      ],
      "name": "BatchShipped",
      "type": "event"
    },
    {
      "anonymous": false,
      "inputs": [
        {
          "indexed": true,
          "internalType": "uint256",
          "name": "batchId",
          "type": "uint256"
        },
        {
          "indexed": true,
          "internalType": "address",
          "name": "by",
          "type": "address"
        }
      ],
      "name": "TransferConfirmed",
      "type": "event"
    },
    {
      "anonymous": false,
      "inputs": [
        {
          "indexed": true,
          "internalType": "uint256",
          "name": "batchId",
          "type": "uint256"
        },
        {
          "indexed": true,
          "internalType": "address",
          "name": "from",
          "type": "address"
        },
        {
          "indexed": true,
          "internalType": "address",
          "name": "to",
          "type": "address"
        },
        {
          "indexed": false,
          "internalType": "uint256",
          "name": "plannedShipDate",
          "type": "uint256"
        }
      ],
      "name": "TransferProposed",
      "type": "event"
    },
    {
      "inputs": [
        {
          "internalType": "enum BatchToken.Status",
          "name": "s",
          "type": "uint8"
        }
      ],
      "name": "batchesInStatus",
      "outputs": [
        {
          "internalType": "uint256[]",
          "name": "",
          "type": "uint256[]"
        }
      ],
      "stateMutability": "view",
      "type": "function"
    },
    {
      "inputs": [
        {
          "internalType": "uint256",
          "name": "batchId",
          "type": "uint256"
        }
      ],
      "name": "confirmTransfer",
      "outputs": [],
      "stateMutability": "nonpayable",
      "type": "function"
    },
    {
      "inputs": [
        {
          "internalType": "uint256",
          "name": "batchId",
          "type": "uint256"
        },
        {
          "internalType": "address",
          "name": "to",
          "type": "address"
        },
        {
          "internalType": "uint256",
          "name": "plannedShipDate",
          "type": "uint256"
        }
      ],
      "name": "proposeTransfer",
      "outputs": [],
      "stateMutability": "nonpayable",
      "type": "function"
    },
    {
      "inputs": [
        {
          "internalType": "uint256",
          "name": "batchId",
          "type": "uint256"
        }
      ],
      "name": "receiveBatch",
      "outputs": [],
      "stateMutability": "nonpayable",
      "type": "function"
    },
    {
      "inputs": [
        {
          "internalType": "uint256",
          "name": "batchId",
          "type": "uint256"
        }
      ],
      "name": "shipBatch",
      "outputs": [],
      "stateMutability": "nonpayable",
      "type": "function"
    },
    {
      "inputs": [
        {
          "internalType": "uint256",
          "name": "",
          "type": "uint256"
        }
      ],
      "name": "status",
      "outputs": [
        {
          "internalType": "enum BatchToken.Status",
          "name": "",
          "type": "uint8"
        }
      ],
      "stateMutability": "view",
      "type": "function"
    }
  ],
  "bytecode": "0x6080604052348015600e575f80fd5b50610e8a8061001c5f395ff3fe608060405234801561000f575f80fd5b5060043610610060575f3560e01c806327330846146100645780632c48e7db1461009457806342d21ef7146100b0578063ba535281146100e0578063e9cee4b9146100fc578063fd2e356214610118575b5f80fd5b61007e6004803603810190610079919061092c565b610134565b60405161008b9190610a17565b60405180910390f35b6100ae60048036038101906100a99190610a61565b6101b3565b005b6100ca60048036038101906100c59190610a61565b610351565b6040516100d79190610aff565b60405180910390f35b6100fa60048036038101906100f59190610a61565b61036d565b005b61011660048036038101906101119190610a61565b6104f4565b005b610132600480360381019061012d9190610b72565b610679565b005b606060015f83600481111561014c5761014b610a8c565b5b60ff1660ff1681526020019081526020015f208054806020026020016040519081016040528092919081815260200182805480156101a757602002820191905f5260205f20905b815481526020019060010190808311610193575b50505050509050919050565b600160048111156101c7576101c6610a8c565b5b5f808381526020019081526020015f205f9054906101000a900460ff1660048111156101f6576101f5610a8c565b5b14610236576040517f08c379a000000000000000000000000000000000000000000000000000000000815260040161022d90610c1c565b60405180910390fd5b61024181600161082f565b60025f808381526020019081526020015f205f6101000a81548160ff0219169083600481111561027457610273610a8c565b5b021790555060015f600260048111156102905761028f610a8c565b5b60ff1660ff1681526020019081526020015f208054905060025f8381526020019081526020015f208190555060015f600260048111156102d3576102d2610a8c565b5b60ff1660ff1681526020019081526020015f2081908060018154018082558091505060019003905f5260205f20015f90919091909150553373ffffffffffffffffffffffffffffffffffffffff16817f88f3a431c8e7503e1205db0131787d8fdd671a45c660e4c9083954584993912f60405160405180910390a350565b5f602052805f5260405f205f915054906101000a900460ff1681565b6002600481111561038157610380610a8c565b5b5f808381526020019081526020015f205f9054906101000a900460ff1660048111156103b0576103af610a8c565b5b146103f0576040517f08c379a00000000000000000000000000000000000000000000000000000000081526004016103e790610c84565b60405180910390fd5b6103fb81600261082f565b60035f808381526020019081526020015f205f6101000a81548160ff0219169083600481111561042e5761042d610a8c565b5b021790555060015f6003600481111561044a57610449610a8c565b5b60ff1660ff1681526020019081526020015f208054905060025f8381526020019081526020015f208190555060015f6003600481111561048d5761048c610a8c565b5b60ff1660ff1681526020019081526020015f2081908060018154018082558091505060019003905f5260205f20015f9091909190915055807fa0a01734fd51ee303fab34f5e6d6c9f521e8e346914be69d0e1c211920b29e6e60405160405180910390a250565b6003600481111561050857610507610a8c565b5b5f808381526020019081526020015f205f9054906101000a900460ff16600481111561053757610536610a8c565b5b14610577576040517f08c379a000000000000000000000000000000000000000000000000000000000815260040161056e90610cec565b60405180910390fd5b61058281600361082f565b60045f808381526020019081526020015f205f6101000a81548160ff021916908360048111156105b5576105b4610a8c565b5b021790555060015f6004808111156105d0576105cf610a8c565b5b60ff1660ff1681526020019081526020015f208054905060025f8381526020019081526020015f208190555060015f60048081111561061257610611610a8c565b5b60ff1660ff1681526020019081526020015f2081908060018154018082558091505060019003905f5260205f20015f9091909190915055807fe0c0288112891897b19d64626d45679eb4439dc0fb2896ed5dc3b6028edc2ed460405160405180910390a250565b5f600481111561068c5761068b610a8c565b5b5f808581526020019081526020015f205f9054906101000a900460ff1660048111156106bb576106ba610a8c565b5b146106fb576040517f08c379a00000000000000000000000000000000000000000000000000000000081526004016106f290610d54565b60405180910390fd5b60015f808581526020019081526020015f205f6101000a81548160ff0219169083600481111561072e5761072d610a8c565b5b021790555060015f6001600481111561074a57610749610a8c565b5b60ff1660ff1681526020019081526020015f208054905060025f8581526020019081526020015f208190555060015f6001600481111561078d5761078c610a8c565b5b60ff1660ff1681526020019081526020015f2083908060018154018082558091505060019003905f5260205f20015f90919091909150558173ffffffffffffffffffffffffffffffffffffffff163373ffffffffffffffffffffffffffffffffffffffff16847f38ad22e5704952fc5eaf855fe6a8193abeeae5963626b72a552fe2584d053e4e846040516108229190610d81565b60405180910390a4505050565b5f81600481111561084357610842610a8c565b5b90505f60025f8581526020019081526020015f205490505f60015f8460ff1660ff1681526020019081526020015f2090505f81600183805490506108879190610dc7565b8154811061089857610897610dfa565b5b905f5260205f2001549050808284815481106108b7576108b6610dfa565b5b905f5260205f2001819055508260025f8381526020019081526020015f2081905550818054806108ea576108e9610e27565b5b600190038181905f5260205f20015f90559055505050505050565b5f80fd5b60058110610915575f80fd5b50565b5f8135905061092681610909565b92915050565b5f6020828403121561094157610940610905565b5b5f61094e84828501610918565b91505092915050565b5f81519050919050565b5f82825260208201905092915050565b5f819050602082019050919050565b5f819050919050565b61099281610980565b82525050565b5f6109a38383610989565b60208301905092915050565b5f602082019050919050565b5f6109c582610957565b6109cf8185610961565b93506109da83610971565b805f5b83811015610a0a5781516109f18882610998565b97506109fc836109af565b9250506001810190506109dd565b5085935050505092915050565b5f6020820190508181035f830152610a2f81846109bb565b905092915050565b610a4081610980565b8114610a4a575f80fd5b50565b5f81359050610a5b81610a37565b92915050565b5f60208284031215610a7657610a75610905565b5b5f610a8384828501610a4d565b91505092915050565b7f4e487b71000000000000000000000000000000000000000000000000000000005f52602160045260245ffd5b60058110610aca57610ac9610a8c565b5b50565b5f819050610ada82610ab9565b919050565b5f610ae982610acd565b9050919050565b610af981610adf565b82525050565b5f602082019050610b125f830184610af0565b92915050565b5f73ffffffffffffffffffffffffffffffffffffffff82169050919050565b5f610b4182610b18565b9050919050565b610b5181610b37565b8114610b5b575f80fd5b50565b5f81359050610b6c81610b48565b92915050565b5f805f60608486031215610b8957610b88610905565b5b5f610b9686828701610a4d565b9350506020610ba786828701610b5e565b9250506040610bb886828701610a4d565b9150509250925092565b5f82825260208201905092915050565b7f6e6f742070726f706f73656400000000000000000000000000000000000000005f82015250565b5f610c06600c83610bc2565b9150610c1182610bd2565b602082019050919050565b5f6020820190508181035f830152610c3381610bfa565b9050919050565b7f6e6f7420636f6e6669726d6564000000000000000000000000000000000000005f82015250565b5f610c6e600d83610bc2565b9150610c7982610c3a565b602082019050919050565b5f6020820190508181035f830152610c9b81610c62565b9050919050565b7f6e6f7420736869707065640000000000000000000000000000000000000000005f82015250565b5f610cd6600b83610bc2565b9150610ce182610ca2565b602082019050919050565b5f6020820190508181035f830152610d0381610cca565b9050919050565b7f616c726561647920696e697469617465640000000000000000000000000000005f82015250565b5f610d3e601183610bc2565b9150610d4982610d0a565b602082019050919050565b5f6020820190508181035f830152610d6b81610d32565b9050919050565b610d7b81610980565b82525050565b5f602082019050610d945f830184610d72565b92915050565b7f4e487b71000000000000000000000000000000000000000000000000000000005f52601160045260245ffd5b5f610dd182610980565b9150610ddc83610980565b9250828203905081811115610df457610df3610d9a565b5b92915050565b7f4e487b71000000000000000000000000000000000000000000000000000000005f52603260045260245ffd5b7f4e487b71000000000000000000000000000000000000000000000000000000005f52603160045260245ffdfea26469706673582212209f024beb9010ef898b4a3b354cd58b3d2e9ac8d6f68f0c86aea214cbc2ccd4fb64736f6c634300081a0033",
  "linkReferences": {},
  "deployedLinkReferences": {}
}