{
  "_format": "hh-sol-artifact-1",
  "contractName": "BatchToken",
  "sourceName": "contracts/BatchToken.sol",
  "abi": [
    {
      "inputs": [],
      "stateMutability": "nonpayable",
      "type": "constructor"
    },
    {
      "anonymous": false,
      "inputs": [
        {
          "indexed": true,
          "internalType": "uint256",
          "name": "batchId",
          "type": "uint256"
        }
      ],
      "name": "BatchReceived",
      "type": "event"
    },
    {
      "anonymous": false,
      "inputs": [
        {
          "indexed": true,
          "internalType": "uint256",
          "name": "batchId",
          "type": "uint256"
        }
      ],
      "name": "BatchShipped",
      "type": "event"
    },
    {
      "anonymous": false,
      "inputs": [
        {
          "indexed": true,
          "internalType": "uint256",
          "name": "batchId",
          "type": "uint256"
        },
        {
          "indexed": true,
          "internalType": "address",
          "name": "by",
          "type": "address"
        }
      ],
      "name": "TransferConfirmed",
      "type": "event"
    },
    {
      "anonymous": false,
      "inputs": [
        {
          "indexed": true,
          "internalType": "uint256",
          "name": "batchId",
          "type": "uint256"
        },
        {
          "indexed": true,
          "internalType": "address",
          "name": "from",
          "type": "address"
        },
        {
          "indexed": true,
          "internalType": "address",
          "name": "to",
          "type": "address"
        },
        {
          "indexed": false,
          "internalType": "uint256",
          "name": "plannedShipDate",
          "type": "uint256"
        }
      ],
      "name": "TransferProposed",
      "type": "event"
    },
    {
      "inputs": [
        {
          "internalType": "address",
          "name": "actor",
          "type": "address"
        }
      ],
      "name": "addActor",
      "outputs": [],
      "stateMutability": "nonpayable",
      "type": "function"
    },
    {
      "inputs": [],
      "name": "admin",
      "outputs": [
        {
          "internalType": "address",
          "name": "",
          "type": "address"
        }
      ],
      "stateMutability": "view",
      "type": "function"
    },
    {
      "inputs": [
        {
          "internalType": "enum BatchToken.Status",
          "name": "s",
          "type": "uint8"
        }
      ],
      "name": "batchesInStatus",
      "outputs": [
        {
          "internalType": "uint256[]",
          "name": "",
          "type": "uint256[]"
        }
      ],
      "stateMutability": "view",
      "type": "function"
    },
    {
      "inputs": [
        {
          "internalType": "uint256",
          "name": "batchId",
          "type": "uint256"
        }
      ],
      "name": "confirmTransfer",
      "outputs": [],
      "stateMutability": "nonpayable",
      "type": "function"
    },
    {
      "inputs": [
        {
          "internalType": "address",
          "name": "",
          "type": "address"
        }
      ],
      "name": "isActor",
      "outputs": [
        {
          "internalType": "bool",
          "name": "",
          "type": "bool"
        }
      ],
      "stateMutability": "view",
      "type": "function"
    },
    {
      "inputs": [
        {
          "internalType": "uint256",
          "name": "batchId",
          "type": "uint256"
        },
        {
          "internalType": "address",
          "name": "to",
          "type": "address"
        },
        {
          "internalType": "uint256",
          "name": "plannedShipDate",
          "type": "uint256"
        }
      ],
      "name": "proposeTransfer",
      "outputs": [],
      "stateMutability": "nonpayable",
      "type": "function"
    },
    {
      "inputs": [
        {
          "internalType": "uint256",
          "name": "batchId",
          "type": "uint256"
        }
      ],
      "name": "receiveBatch",
      "outputs": [],
      "stateMutability": "nonpayable",
      "type": "function"
    },
    {
      "inputs": [
        {
          "internalType": "uint256",
          "name": "",
          "type": "uint256"
        }
      ],
      "name": "recipientOf",
      "outputs": [
        {
          "internalType": "address",
          "name": "",
          "type": "address"
        }
      ],
      "stateMutability": "view",
      "type": "function"
    },
    {
      "inputs": [
        {
          "internalType": "address",
          "name": "actor",
          "type": "address"
        }
      ],
      "name": "removeActor",
      "outputs": [],
      "stateMutability": "nonpayable",
      "type": "function"
    },
    {
      "inputs": [
        {
          "internalType": "uint256",
          "name": "",
          "type": "uint256"
        }
      ],
      "name": "senderOf",
      "outputs": [
        {
          "internalType": "address",
          "name": "",
          "type": "address"
        }
      ],
      "stateMutability": "view",
      "type": "function"
    },
    {
      "inputs": [
        {
          "internalType": "uint256",
          "name": "batchId",
          "type": "uint256"
        }
      ],
      "name": "shipBatch",
      "outputs": [],
      "stateMutability": "nonpayable",
      "type": "function"
    },
    {
      "inputs": [
        {
          "internalType": "uint256",
          "name": "",
          "type": "uint256"
        }
      ],
      "name": "status",
      "outputs": [
        {
          "internalType": "enum BatchToken.Status",
          "name": "",
          "type": "uint8"
        }
      ],
      "stateMutability": "view",
      "type": "function"
    }
  ],
  "bytecode": "0x6080604052348015600e575f80fd5b503360055f6101000a81548173ffffffffffffffffffffffffffffffffffffffff021916908373ffffffffffffffffffffffffffffffffffffffff160217905550611d088061005c5f395ff3fe608060405234801561000f575f80fd5b50600436106100b2575f3560e01c8063ba5352811161006f578063ba5352811461019a578063c7fe23a3146101b6578063e9cee4b9146101e6578063f14cf04514610202578063f851a44014610232578063fd2e356214610250576100b2565b806327330846146100b65780632c48e7db146100e657806342d21ef7146101025780634306386c14610132578063561580441461014e57806391355cc31461016a575b5f80fd5b6100d060048036038101906100cb919061144c565b61026c565b6040516100dd9190611537565b60405180910390f35b61010060048036038101906100fb9190611581565b6102eb565b005b61011c60048036038101906101179190611581565b610607565b604051610129919061161f565b60405180910390f35b61014c60048036038101906101479190611692565b610623565b005b61016860048036038101906101639190611692565b610794565b005b610184600480360381019061017f9190611581565b610903565b60405161019191906116cc565b60405180910390f35b6101b460048036038101906101af9190611581565b610933565b005b6101d060048036038101906101cb9190611692565b610c38565b6040516101dd91906116ff565b60405180910390f35b61020060048036038101906101fb9190611581565b610c55565b005b61021c60048036038101906102179190611581565b610f58565b60405161022991906116cc565b60405180910390f35b61023a610f88565b60405161024791906116cc565b60405180910390f35b61026a60048036038101906102659190611718565b610fad565b005b606060015f836004811115610284576102836115ac565b5b60ff1660ff1681526020019081526020015f208054806020026020016040519081016040528092919081815260200182805480156102df57602002820191905f5260205f20905b8154815260200190600101908083116102cb575b50505050509050919050565b60065f3373ffffffffffffffffffffffffffffffffffffffff1673ffffffffffffffffffffffffffffffffffffffff1681526020019081526020015f205f9054906101000a900460ff168061038c575060055f9054906101000a900473ffffffffffffffffffffffffffffffffffffffff1673ffffffffffffffffffffffffffffffffffffffff163373ffffffffffffffffffffffffffffffffffffffff16145b6103cb576040517f08c379a00000000000000000000000000000000000000000000000000000000081526004016103c2906117c2565b60405180910390fd5b600160048111156103df576103de6115ac565b5b5f808381526020019081526020015f205f9054906101000a900460ff16600481111561040e5761040d6115ac565b5b1461044e576040517f08c379a00000000000000000000000000000000000000000000000000000000081526004016104459061182a565b60405180910390fd5b60045f8281526020019081526020015f205f9054906101000a900473ffffffffffffffffffffffffffffffffffffffff1673ffffffffffffffffffffffffffffffffffffffff163373ffffffffffffffffffffffffffffffffffffffff16146104ec576040517f08c379a00000000000000000000000000000000000000000000000000000000081526004016104e390611892565b60405180910390fd5b6104f781600161134f565b60025f808381526020019081526020015f205f6101000a81548160ff0219169083600481111561052a576105296115ac565b5b021790555060015f60026004811115610546576105456115ac565b5b60ff1660ff1681526020019081526020015f208054905060025f8381526020019081526020015f208190555060015f60026004811115610589576105886115ac565b5b60ff1660ff1681526020019081526020015f2081908060018154018082558091505060019003905f5260205f20015f90919091909150553373ffffffffffffffffffffffffffffffffffffffff16817f88f3a431c8e7503e1205db0131787d8fdd671a45c660e4c9083954584993912f60405160405180910390a350565b5f602052805f5260405f205f915054906101000a900460ff1681565b60055f9054906101000a900473ffffffffffffffffffffffffffffffffffffffff1673ffffffffffffffffffffffffffffffffffffffff163373ffffffffffffffffffffffffffffffffffffffff16146106b2576040517f08c379a00000000000000000000000000000000000000000000000000000000081526004016106a9906118fa565b60405180910390fd5b60065f8273ffffffffffffffffffffffffffffffffffffffff1673ffffffffffffffffffffffffffffffffffffffff1681526020019081526020015f205f9054906101000a900460ff161561073c576040517f08c379a000000000000000000000000000000000000000000000000000000000815260040161073390611962565b60405180910390fd5b600160065f8373ffffffffffffffffffffffffffffffffffffffff1673ffffffffffffffffffffffffffffffffffffffff1681526020019081526020015f205f6101000a81548160ff02191690831515021790555050565b60055f9054906101000a900473ffffffffffffffffffffffffffffffffffffffff1673ffffffffffffffffffffffffffffffffffffffff163373ffffffffffffffffffffffffffffffffffffffff1614610823576040517f08c379a000000000000000000000000000000000000000000000000000000000815260040161081a906118fa565b60405180910390fd5b60065f8273ffffffffffffffffffffffffffffffffffffffff1673ffffffffffffffffffffffffffffffffffffffff1681526020019081526020015f205f9054906101000a900460ff166108ac576040517f08c379a00000000000000000000000000000000000000000000000000000000081526004016108a3906119ca565b60405180910390fd5b5f60065f8373ffffffffffffffffffffffffffffffffffffffff1673ffffffffffffffffffffffffffffffffffffffff1681526020019081526020015f205f6101000a81548160ff02191690831515021790555050565b6003602052805f5260405f205f915054906101000a900473ffffffffffffffffffffffffffffffffffffffff1681565b60065f3373ffffffffffffffffffffffffffffffffffffffff1673ffffffffffffffffffffffffffffffffffffffff1681526020019081526020015f205f9054906101000a900460ff16806109d4575060055f9054906101000a900473ffffffffffffffffffffffffffffffffffffffff1673ffffffffffffffffffffffffffffffffffffffff163373ffffffffffffffffffffffffffffffffffffffff16145b610a13576040517f08c379a0000000000000000000000000000000000000000000000000000000008152600401610a0a906117c2565b60405180910390fd5b60026004811115610a2757610a266115ac565b5b5f808381526020019081526020015f205f9054906101000a900460ff166004811115610a5657610a556115ac565b5b14610a96576040517f08c379a0000000000000000000000000000000000000000000000000000000008152600401610a8d90611a32565b60405180910390fd5b60035f8281526020019081526020015f205f9054906101000a900473ffffffffffffffffffffffffffffffffffffffff1673ffffffffffffffffffffffffffffffffffffffff163373ffffffffffffffffffffffffffffffffffffffff1614610b34576040517f08c379a0000000000000000000000000000000000000000000000000000000008152600401610b2b90611a9a565b60405180910390fd5b610b3f81600261134f565b60035f808381526020019081526020015f205f6101000a81548160ff02191690836004811115610b7257610b716115ac565b5b021790555060015f60036004811115610b8e57610b8d6115ac565b5b60ff1660ff1681526020019081526020015f208054905060025f8381526020019081526020015f208190555060015f60036004811115610bd157610bd06115ac565b5b60ff1660ff1681526020019081526020015f2081908060018154018082558091505060019003905f5260205f20015f9091909190915055807fa0a01734fd51ee303fab34f5e6d6c9f521e8e346914be69d0e1c211920b29e6e60405160405180910390a250565b6006602052805f5260405f205f915054906101000a900460ff1681565b60065f3373ffffffffffffffffffffffffffffffffffffffff1673ffffffffffffffffffffffffffffffffffffffff1681526020019081526020015f205f9054906101000a900460ff1680610cf6575060055f9054906101000a900473ffffffffffffffffffffffffffffffffffffffff1673ffffffffffffffffffffffffffffffffffffffff163373ffffffffffffffffffffffffffffffffffffffff16145b610d35576040517f08c379a0000000000000000000000000000000000000000000000000000000008152600401610d2c906117c2565b60405180910390fd5b60036004811115610d4957610d486115ac565b5b5f808381526020019081526020015f205f9054906101000a900460ff166004811115610d7857610d776115ac565b5b14610db8576040517f08c379a0000000000000000000000000000000000000000000000000000000008152600401610daf90611b02565b60405180910390fd5b60045f8281526020019081526020015f205f9054906101000a900473ffffffffffffffffffffffffffffffffffffffff1673ffffffffffffffffffffffffffffffffffffffff163373ffffffffffffffffffffffffffffffffffffffff1614610e56576040517f08c379a0000000000000000000000000000000000000000000000000000000008152600401610e4d90611892565b60405180910390fd5b610e6181600361134f565b60045f808381526020019081526020015f205f6101000a81548160ff02191690836004811115610e9457610e936115ac565b5b021790555060015f600480811115610eaf57610eae6115ac565b5b60ff1660ff1681526020019081526020015f208054905060025f8381526020019081526020015f208190555060015f600480811115610ef157610ef06115ac565b5b60ff1660ff1681526020019081526020015f2081908060018154018082558091505060019003905f5260205f20015f9091909190915055807fe0c0288112891897b19d64626d45679eb4439dc0fb2896ed5dc3b6028edc2ed460405160405180910390a250565b6004602052805f5260405f205f915054906101000a900473ffffffffffffffffffffffffffffffffffffffff1681565b60055f9054906101000a900473ffffffffffffffffffffffffffffffffffffffff1681565b60065f3373ffffffffffffffffffffffffffffffffffffffff1673ffffffffffffffffffffffffffffffffffffffff1681526020019081526020015f205f9054906101000a900460ff168061104e575060055f9054906101000a900473ffffffffffffffffffffffffffffffffffffffff1673ffffffffffffffffffffffffffffffffffffffff163373ffffffffffffffffffffffffffffffffffffffff16145b61108d576040517f08c379a0000000000000000000000000000000000000000000000000000000008152600401611084906117c2565b60405180910390fd5b5f60048111156110a05761109f6115ac565b5b5f808581526020019081526020015f205f9054906101000a900460ff1660048111156110cf576110ce6115ac565b5b1461110f576040517f08c379a000000000000000000000000000000000000000000000000000000000815260040161110690611b6a565b60405180910390fd5b3373ffffffffffffffffffffffffffffffffffffffff168273ffffffffffffffffffffffffffffffffffffffff160361117d576040517f08c379a000000000000000000000000000000000000000000000000000000000815260040161117490611bd2565b60405180910390fd5b3360035f8581526020019081526020015f205f6101000a81548173ffffffffffffffffffffffffffffffffffffffff021916908373ffffffffffffffffffffffffffffffffffffffff1602179055508160045f8581526020019081526020015f205f6101000a81548173ffffffffffffffffffffffffffffffffffffffff021916908373ffffffffffffffffffffffffffffffffffffffff16021790555060015f808581526020019081526020015f205f6101000a81548160ff0219169083600481111561124e5761124d6115ac565b5b021790555060015f6001600481111561126a576112696115ac565b5b60ff1660ff1681526020019081526020015f208054905060025f8581526020019081526020015f208190555060015f600160048111156112ad576112ac6115ac565b5b60ff1660ff1681526020019081526020015f2083908060018154018082558091505060019003905f5260205f20015f90919091909150558173ffffffffffffffffffffffffffffffffffffffff163373ffffffffffffffffffffffffffffffffffffffff16847f38ad22e5704952fc5eaf855fe6a8193abeeae5963626b72a552fe2584d053e4e846040516113429190611bff565b60405180910390a4505050565b5f816004811115611363576113626115ac565b5b90505f60025f8581526020019081526020015f205490505f60015f8460ff1660ff1681526020019081526020015f2090505f81600183805490506113a79190611c45565b815481106113b8576113b7611c78565b5b905f5260205f2001549050808284815481106113d7576113d6611c78565b5b905f5260205f2001819055508260025f8381526020019081526020015f20819055508180548061140a57611409611ca5565b5b600190038181905f5260205f20015f90559055505050505050565b5f80fd5b60058110611435575f80fd5b50565b5f8135905061144681611429565b92915050565b5f6020828403121561146157611460611425565b5b5f61146e84828501611438565b91505092915050565b5f81519050919050565b5f82825260208201905092915050565b5f819050602082019050919050565b5f819050919050565b6114b2816114a0565b82525050565b5f6114c383836114a9565b60208301905092915050565b5f602082019050919050565b5f6114e582611477565b6114ef8185611481565b93506114fa83611491565b805f5b8381101561152a57815161151188826114b8565b975061151c836114cf565b9250506001810190506114fd565b5085935050505092915050565b5f6020820190508181035f83015261154f81846114db565b905092915050565b611560816114a0565b811461156a575f80fd5b50565b5f8135905061157b81611557565b92915050565b5f6020828403121561159657611595611425565b5b5f6115a38482850161156d565b91505092915050565b7f4e487b71000000000000000000000000000000000000000000000000000000005f52602160045260245ffd5b600581106115ea576115e96115ac565b5b50565b5f8190506115fa826115d9565b919050565b5f611609826115ed565b9050919050565b611619816115ff565b82525050565b5f6020820190506116325f830184611610565b92915050565b5f73ffffffffffffffffffffffffffffffffffffffff82169050919050565b5f61166182611638565b9050919050565b61167181611657565b811461167b575f80fd5b50565b5f8135905061168c81611668565b92915050565b5f602082840312156116a7576116a6611425565b5b5f6116b48482850161167e565b91505092915050565b6116c681611657565b82525050565b5f6020820190506116df5f8301846116bd565b92915050565b5f8115159050919050565b6116f9816116e5565b82525050565b5f6020820190506117125f8301846116f0565b92915050565b5f805f6060848603121561172f5761172e611425565b5b5f61173c8682870161156d565b935050602061174d8682870161167e565b925050604061175e8682870161156d565b9150509250925092565b5f82825260208201905092915050565b7f6f6e6c79206163746f72000000000000000000000000000000000000000000005f82015250565b5f6117ac600a83611768565b91506117b782611778565b602082019050919050565b5f6020820190508181035f8301526117d9816117a0565b9050919050565b7f6e6f742070726f706f73656400000000000000000000000000000000000000005f82015250565b5f611814600c83611768565b915061181f826117e0565b602082019050919050565b5f6020820190508181035f83015261184181611808565b9050919050565b7f6f6e6c7920726563697069656e740000000000000000000000000000000000005f82015250565b5f61187c600e83611768565b915061188782611848565b602082019050919050565b5f6020820190508181035f8301526118a981611870565b9050919050565b7f6f6e6c792061646d696e000000000000000000000000000000000000000000005f82015250565b5f6118e4600a83611768565b91506118ef826118b0565b602082019050919050565b5f6020820190508181035f830152611911816118d8565b9050919050565b7f616c7265616479206163746f72000000000000000000000000000000000000005f82015250565b5f61194c600d83611768565b915061195782611918565b602082019050919050565b5f6020820190508181035f83015261197981611940565b9050919050565b7f6e6f74206163746f7200000000000000000000000000000000000000000000005f82015250565b5f6119b4600983611768565b91506119bf82611980565b602082019050919050565b5f6020820190508181035f8301526119e1816119a8565b9050919050565b7f6e6f7420636f6e6669726d6564000000000000000000000000000000000000005f82015250565b5f611a1c600d83611768565b9150611a27826119e8565b602082019050919050565b5f6020820190508181035f830152611a4981611a10565b9050919050565b7f6f6e6c792073656e6465720000000000000000000000000000000000000000005f82015250565b5f611a84600b83611768565b9150611a8f82611a50565b602082019050919050565b5f6020820190508181035f830152611ab181611a78565b9050919050565b7f6e6f7420736869707065640000000000000000000000000000000000000000005f82015250565b5f611aec600b83611768565b9150611af782611ab8565b602082019050919050565b5f6020820190508181035f830152611b1981611ae0565b9050919050565b7f616c726561647920696e697469617465640000000000000000000000000000005f82015250565b5f611b54601183611768565b9150611b5f82611b20565b602082019050919050565b5f6020820190508181035f830152611b8181611b48565b9050919050565b7f696e76616c696420726563697069656e740000000000000000000000000000005f82015250565b5f611bbc601183611768565b9150611bc782611b88565b602082019050919050565b5f6020820190508181035f830152611be981611bb0565b9050919050565b611bf9816114a0565b82525050565b5f602082019050611c125f830184611bf0565b92915050565b7f4e487b71000000000000000000000000000000000000000000000000000000005f52601160045260245ffd5b5f611c4f826114a0565b9150611c5a836114a0565b9250828203905081811115611c7257611c71611c18565b5b92915050565b7f4e487b71000000000000000000000000000000000000000000000000000000005f52603260045260245ffd5b7f4e487b71000000000000000000000000000000000000000000000000000000005f52603160045260245ffdfea264697066735822122012a24c7eb863c82981f3c15d69e611dfab707a35042ee425342882dbd448bbf264736f6c634300081a0033",
  "linkReferences": {},
  "deployedLinkReferences": {}
}