{
  "_format": "hh-sol-artifact-1",
  "contractName": "BatchToken",
  "sourceName": "contracts/BatchToken.sol",
  "abi": [
    {
      "inputs": [],
      "stateMutability": "nonpayable",
      "type": "constructor"
    },
    {
      "anonymous": false,
      "inputs": [
        {
          "indexed": true,
          "internalType": "address",
          "name": "actor",
          "type": "address"
        }
      ],
      "name": "ActorAdded",
      "type": "event"
    },
    {
      "anonymous": false,
      "inputs": [
        {
          "indexed": true,
          "internalType": "address",
          "name": "actor",
          "type": "address"
        }
      ],
      "name": "ActorRemoved",
      "type": "event"
    },
    {
      "anonymous": false,
      "inputs": [
        {
          "indexed": false,
          "internalType": "string",
          "name": "batchExternalId",
          "type": "string"
        },
        {
          "indexed": false,
          "internalType": "string",
          "name": "itemId",
          "type": "string"
        }
      ],
      "name": "ItemLinked",
      "type": "event"
    },
    {
      "anonymous": false,
      "inputs": [
        {
          "indexed": true,
          "internalType": "uint256",
          "name": "transferId",
          "type": "uint256"
        },
        {
          "indexed": true,
          "internalType": "address",
          "name": "by",
          "type": "address"
        }
      ],
      "name": "TransferCanceled",
      "type": "event"
    },
    {
      "anonymous": false,
      "inputs": [
        {
          "indexed": true,
          "internalType": "uint256",
          "name": "transferId",
          "type": "uint256"
        },
        {
          "indexed": true,
          "internalType": "address",
          "name": "by",
          "type": "address"
        }
      ],
      "name": "TransferConfirmed",
      "type": "event"
    },
    {
      "anonymous": false,
      "inputs": [
        {
          "indexed": true,
          "internalType": "uint256",
          "name": "transferId",
          "type": "uint256"
        },
        {
          "indexed": true,
          "internalType": "address",
          "name": "from",
          "type": "address"
        },
        {
          "indexed": true,
          "internalType": "address",
          "name": "to",
          "type": "address"
        },
        {
          "indexed": false,
          "internalType": "uint256",
          "name": "plannedShipDate",
          "type": "uint256"
        },
        {
          "indexed": false,
          "internalType": "uint256",
          "name": "quantity",
          "type": "uint256"
        }
      ],
      "name": "TransferProposed",
      "type": "event"
    },
    {
      "anonymous": false,
      "inputs": [
        {
          "indexed": true,
          "internalType": "uint256",
          "name": "transferId",
          "type": "uint256"
        }
      ],
      "name": "TransferReceived",
      "type": "event"
    },
    {
      "anonymous": false,
      "inputs": [
        {
          "indexed": true,
          "internalType": "uint256",
          "name": "transferId",
          "type": "uint256"
        }
      ],
      "name": "TransferShipped",
      "type": "event"
    },
    {
      "anonymous": false,
      "inputs": [
        {
          "indexed": true,
          "internalType": "uint256",
          "name": "transferId",
          "type": "uint256"
        },
        {
          "indexed": true,
          "internalType": "address",
          "name": "by",
          "type": "address"
        }
      ],
      "name": "TransferUnshipped",
      "type": "event"
    },
    {
      "inputs": [
        {
          "internalType": "address",
          "name": "actor",
          "type": "address"
        }
      ],
      "name": "addActor",
      "outputs": [],
      "stateMutability": "nonpayable",
      "type": "function"
    },
    {
      "inputs": [],
      "name": "admin",
      "outputs": [
        {
          "internalType": "address",
          "name": "",
          "type": "address"
        }
      ],
      "stateMutability": "view",
      "type": "function"
    },
    {
      "inputs": [
        {
          "internalType": "uint256",
          "name": "",
          "type": "uint256"
        }
      ],
      "name": "batchOf",
      "outputs": [
        {
          "internalType": "string",
          "name": "",
          "type": "string"
        }
      ],
      "stateMutability": "view",
      "type": "function"
    },
    {
      "inputs": [
        {
          "internalType": "uint256",
          "name": "transferId",
          "type": "uint256"
        }
      ],
      "name": "cancelShipping",
      "outputs": [],
      "stateMutability": "nonpayable",
      "type": "function"
    },
    {
      "inputs": [
        {
          "internalType": "uint256",
          "name": "transferId",
          "type": "uint256"
        }
      ],
      "name": "cancelTransfer",
      "outputs": [],
      "stateMutability": "nonpayable",
      "type": "function"
    },
    {
      "inputs": [
        {
          "internalType": "uint256",
          "name": "transferId",
          "type": "uint256"
        }
      ],
      "name": "confirmTransfer",
      "outputs": [],
      "stateMutability": "nonpayable",
      "type": "function"
    },
    {
      "inputs": [
        {
          "internalType": "address",
          "name": "",
          "type": "address"
        }
      ],
      "name": "isActor",
      "outputs": [
        {
          "internalType": "bool",
          "name": "",
          "type": "bool"
        }
      ],
      "stateMutability": "view",
      "type": "function"
    },
    {
      "inputs": [
        {
          "internalType": "string",
          "name": "",
          "type": "string"
        }
      ],
      "name": "itemOfBatch",
      "outputs": [
        {
          "internalType": "string",
          "name": "",
          "type": "string"
        }
      ],
      "stateMutability": "view",
      "type": "function"
    },
    {
      "inputs": [
        {
          "internalType": "address",
          "name": "to",
          "type": "address"
        },
        {
          "internalType": "uint256",
          "name": "plannedShipDate",
          "type": "uint256"
        },
        {
          "internalType": "string",
          "name": "batchExternalId",
          "type": "string"
        },
        {
          "internalType": "uint256",
          "name": "quantity",
          "type": "uint256"
        }
      ],
      "name": "proposeTransfer",
      "outputs": [
        {
          "internalType": "uint256",
          "name": "transferId",
          "type": "uint256"
        }
      ],
      "stateMutability": "nonpayable",
      "type": "function"
    },
    {
      "inputs": [
        {
          "internalType": "address",
          "name": "to",
          "type": "address"
        },
        {
          "internalType": "uint256",
          "name": "plannedShipDate",
          "type": "uint256"
        },
        {
          "internalType": "string",
          "name": "batchExternalId",
          "type": "string"
        },
        {
          "internalType": "string",
          "name": "itemId",
          "type": "string"
        },
        {
          "internalType": "uint256",
          "name": "quantity",
          "type": "uint256"
        }
      ],
      "name": "proposeTransfer",
      "outputs": [
        {
          "internalType": "uint256",
          "name": "transferId",
          "type": "uint256"
        }
      ],
      "stateMutability": "nonpayable",
      "type": "function"
    },
    {
      "inputs": [
        {
          "internalType": "uint256",
          "name": "",
          "type": "uint256"
        }
      ],
      "name": "quantityOf",
      "outputs": [
        {
          "internalType": "uint256",
          "name": "",
          "type": "uint256"
        }
      ],
      "stateMutability": "view",
      "type": "function"
    },
    {
      "inputs": [
        {
          "internalType": "uint256",
          "name": "transferId",
          "type": "uint256"
        }
      ],
      "name": "receiveTransfer",
      "outputs": [],
      "stateMutability": "nonpayable",
      "type": "function"
    },
    {
      "inputs": [
        {
          "internalType": "uint256",
          "name": "",
          "type": "uint256"
        }
      ],
      "name": "recipientOf",
      "outputs": [
        {
          "internalType": "address",
          "name": "",
          "type": "address"
        }
      ],
      "stateMutability": "view",
      "type": "function"
    },
    {
      "inputs": [
        {
          "internalType": "address",
          "name": "actor",
          "type": "address"
        }
      ],
      "name": "removeActor",
      "outputs": [],
      "stateMutability": "nonpayable",
      "type": "function"
    },
    {
      "inputs": [
        {
          "internalType": "uint256",
          "name": "",
          "type": "uint256"
        }
      ],
      "name": "senderOf",
      "outputs": [
        {
          "internalType": "address",
          "name": "",
          "type": "address"
        }
      ],
      "stateMutability": "view",
      "type": "function"
    },
    {
      "inputs": [
        {
          "internalType": "string",
          "name": "batchExternalId",
          "type": "string"
        },
        {
          "internalType": "string",
          "name": "itemId",
          "type": "string"
        }
      ],
      "name": "setItemForBatch",
      "outputs": [],
      "stateMutability": "nonpayable",
      "type": "function"
    },
    {
      "inputs": [
        {
          "internalType": "uint256",
          "name": "transferId",
          "type": "uint256"
        }
      ],
      "name": "shipTransfer",
      "outputs": [],
      "stateMutability": "nonpayable",
      "type": "function"
    },
    {
      "inputs": [
        {
          "internalType": "uint256",
          "name": "",
          "type": "uint256"
        }
      ],
      "name": "status",
      "outputs": [
        {
          "internalType": "enum BatchToken.Status",
          "name": "",
          "type": "uint8"
        }
      ],
      "stateMutability": "view",
      "type": "function"
    },
    {
      "inputs": [
        {
          "internalType": "enum BatchToken.Status",
          "name": "s",
          "type": "uint8"
        }
      ],
      "name": "transfersInStatus",
      "outputs": [
        {
          "internalType": "uint256[]",
          "name": "",
          "type": "uint256[]"
        }
      ],
      "stateMutability": "view",
      "type": "function"
    }
  ],
  "bytecode": "0x6080604052600160005534801561001557600080fd5b5033600860006101000a81548173ffffffffffffffffffffffffffffffffffffffff021916908373ffffffffffffffffffffffffffffffffffffffff16021790555061375b806100666000396000f3fe608060405234801561001057600080fd5b50600436106101215760003560e01c80635f82ad07116100ad578063e288b62a11610071578063e288b62a14610326578063ed554f0614610356578063f14cf04514610386578063f851a440146103b6578063f9fb8cf1146103d457610121565b80635f82ad071461025e57806391355cc31461028e578063b18cbdad146102be578063b72cabf1146102da578063c7fe23a3146102f657610121565b806342d21ef7116100f457806342d21ef7146101be5780634306386c146101ee57806349d55d9d1461020a578063561580441461022657806359caecb51461024257610121565b80631227840714610126578063170322a71461015657806318c10885146101725780632c48e7db146101a2575b600080fd5b610140600480360381019061013b9190612435565b610404565b60405161014d91906124cc565b60405180910390f35b610170600480360381019061016b91906124e7565b610545565b005b61018c60048036038101906101879190612568565b610648565b6040516101999190612625565b60405180910390f35b6101bc60048036038101906101b79190612568565b6106e8565b005b6101d860048036038101906101d39190612568565b610a1c565b6040516101e591906126be565b60405180910390f35b610208600480360381019061020391906126d9565b610a3c565b005b610224600480360381019061021f9190612568565b610bf7565b005b610240600480360381019061023b91906126d9565b610f12565b005b61025c60048036038101906102579190612568565b6110cc565b005b61027860048036038101906102739190612568565b6113cf565b60405161028591906124cc565b60405180910390f35b6102a860048036038101906102a39190612568565b6113e7565b6040516102b59190612715565b60405180910390f35b6102d860048036038101906102d39190612568565b61141a565b005b6102f460048036038101906102ef9190612568565b611737565b005b610310600480360381019061030b91906126d9565b611ad4565b60405161031d919061274b565b60405180910390f35b610340600480360381019061033b9190612896565b611af4565b60405161034d9190612625565b60405180910390f35b610370600480360381019061036b9190612904565b611baa565b60405161037d91906129ef565b60405180910390f35b6103a0600480360381019061039b9190612568565b611c2d565b6040516103ad9190612715565b60405180910390f35b6103be611c60565b6040516103cb9190612715565b60405180910390f35b6103ee60048036038101906103e99190612a11565b611c86565b6040516103fb91906124cc565b60405180910390f35b6000600960003373ffffffffffffffffffffffffffffffffffffffff1673ffffffffffffffffffffffffffffffffffffffff16815260200190815260200160002060009054906101000a900460ff16806104ab5750600860009054906101000a900473ffffffffffffffffffffffffffffffffffffffff1673ffffffffffffffffffffffffffffffffffffffff163373ffffffffffffffffffffffffffffffffffffffff16145b6104ea576040517f08c379a00000000000000000000000000000000000000000000000000000000081526004016104e190612b19565b60405180910390fd5b61053a868686868080601f016020809104026020016040519081016040528093929190818152602001838380828437600081840152601f19601f8201169050808301925050505050505085611f2a565b905095945050505050565b600860009054906101000a900473ffffffffffffffffffffffffffffffffffffffff1673ffffffffffffffffffffffffffffffffffffffff163373ffffffffffffffffffffffffffffffffffffffff16146105d5576040517f08c379a00000000000000000000000000000000000000000000000000000000081526004016105cc90612b85565b60405180910390fd5b8181600a86866040516105e9929190612bd5565b90815260200160405180910390209182610604929190612e05565b507f814e0ee4d86911d8252fcf2f504e81549099783d27d63a57e817aa7d157478f48484848460405161063a9493929190612f02565b60405180910390a150505050565b6006602052806000526040600020600091509050805461066790612c28565b80601f016020809104026020016040519081016040528092919081815260200182805461069390612c28565b80156106e05780601f106106b5576101008083540402835291602001916106e0565b820191906000526020600020905b8154815290600101906020018083116106c357829003601f168201915b505050505081565b600960003373ffffffffffffffffffffffffffffffffffffffff1673ffffffffffffffffffffffffffffffffffffffff16815260200190815260200160002060009054906101000a900460ff168061078d5750600860009054906101000a900473ffffffffffffffffffffffffffffffffffffffff1673ffffffffffffffffffffffffffffffffffffffff163373ffffffffffffffffffffffffffffffffffffffff16145b6107cc576040517f08c379a00000000000000000000000000000000000000000000000000000000081526004016107c390612b19565b60405180910390fd5b600160048111156107e0576107df612647565b5b6001600083815260200190815260200160002060009054906101000a900460ff16600481111561081357610812612647565b5b14610853576040517f08c379a000000000000000000000000000000000000000000000000000000000815260040161084a90612f89565b60405180910390fd5b6005600082815260200190815260200160002060009054906101000a900473ffffffffffffffffffffffffffffffffffffffff1673ffffffffffffffffffffffffffffffffffffffff163373ffffffffffffffffffffffffffffffffffffffff16146108f4576040517f08c379a00000000000000000000000000000000000000000000000000000000081526004016108eb90612ff5565b60405180910390fd5b6108ff816001612241565b60026001600083815260200190815260200160002060006101000a81548160ff0219169083600481111561093657610935612647565b5b0217905550600260006002600481111561095357610952612647565b5b60ff1660ff168152602001908152602001600020805490506003600083815260200190815260200160002081905550600260006002600481111561099a57610999612647565b5b60ff1660ff1681526020019081526020016000208190806001815401808255809150506001900390600052602060002001600090919091909150553373ffffffffffffffffffffffffffffffffffffffff16817f88f3a431c8e7503e1205db0131787d8fdd671a45c660e4c9083954584993912f60405160405180910390a350565b60016020528060005260406000206000915054906101000a900460ff1681565b600860009054906101000a900473ffffffffffffffffffffffffffffffffffffffff1673ffffffffffffffffffffffffffffffffffffffff163373ffffffffffffffffffffffffffffffffffffffff1614610acc576040517f08c379a0000000000000000000000000000000000000000000000000000000008152600401610ac390612b85565b60405180910390fd5b600960008273ffffffffffffffffffffffffffffffffffffffff1673ffffffffffffffffffffffffffffffffffffffff16815260200190815260200160002060009054906101000a900460ff1615610b59576040517f08c379a0000000000000000000000000000000000000000000000000000000008152600401610b5090613061565b60405180910390fd5b6001600960008373ffffffffffffffffffffffffffffffffffffffff1673ffffffffffffffffffffffffffffffffffffffff16815260200190815260200160002060006101000a81548160ff0219169083151502179055508073ffffffffffffffffffffffffffffffffffffffff167f54d4b1f3751e8659884e4ad0e7bb337ee7cff867bbd7d99be0d9018ea9c5ed7460405160405180910390a250565b600960003373ffffffffffffffffffffffffffffffffffffffff1673ffffffffffffffffffffffffffffffffffffffff16815260200190815260200160002060009054906101000a900460ff1680610c9c5750600860009054906101000a900473ffffffffffffffffffffffffffffffffffffffff1673ffffffffffffffffffffffffffffffffffffffff163373ffffffffffffffffffffffffffffffffffffffff16145b610cdb576040517f08c379a0000000000000000000000000000000000000000000000000000000008152600401610cd290612b19565b60405180910390fd5b60036004811115610cef57610cee612647565b5b6001600083815260200190815260200160002060009054906101000a900460ff166004811115610d2257610d21612647565b5b14610d62576040517f08c379a0000000000000000000000000000000000000000000000000000000008152600401610d59906130cd565b60405180910390fd5b6005600082815260200190815260200160002060009054906101000a900473ffffffffffffffffffffffffffffffffffffffff1673ffffffffffffffffffffffffffffffffffffffff163373ffffffffffffffffffffffffffffffffffffffff1614610e03576040517f08c379a0000000000000000000000000000000000000000000000000000000008152600401610dfa90612ff5565b60405180910390fd5b610e0e816003612241565b60046001600083815260200190815260200160002060006101000a81548160ff02191690836004811115610e4557610e44612647565b5b021790555060026000600480811115610e6157610e60612647565b5b60ff1660ff16815260200190815260200160002080549050600360008381526020019081526020016000208190555060026000600480811115610ea757610ea6612647565b5b60ff1660ff168152602001908152602001600020819080600181540180825580915050600190039060005260206000200160009091909190915055807fbbec0b967a4a7047807d3b3aabef6c5fe63b7284be1a4c4750a5729541e7140760405160405180910390a250565b600860009054906101000a900473ffffffffffffffffffffffffffffffffffffffff1673ffffffffffffffffffffffffffffffffffffffff163373ffffffffffffffffffffffffffffffffffffffff1614610fa2576040517f08c379a0000000000000000000000000000000000000000000000000000000008152600401610f9990612b85565b60405180910390fd5b600960008273ffffffffffffffffffffffffffffffffffffffff1673ffffffffffffffffffffffffffffffffffffffff16815260200190815260200160002060009054906101000a900460ff1661102e576040517f08c379a000000000000000000000000000000000000000000000000000000000815260040161102590613139565b60405180910390fd5b6000600960008373ffffffffffffffffffffffffffffffffffffffff1673ffffffffffffffffffffffffffffffffffffffff16815260200190815260200160002060006101000a81548160ff0219169083151502179055508073ffffffffffffffffffffffffffffffffffffffff167fa1a654053d0241d9a21038d7afc0a939aa3be322b6ab46323ddf73d6fbc1b6e160405160405180910390a250565b600960003373ffffffffffffffffffffffffffffffffffffffff1673ffffffffffffffffffffffffffffffffffffffff16815260200190815260200160002060009054906101000a900460ff16806111715750600860009054906101000a900473ffffffffffffffffffffffffffffffffffffffff1673ffffffffffffffffffffffffffffffffffffffff163373ffffffffffffffffffffffffffffffffffffffff16145b6111b0576040517f08c379a00000000000000000000000000000000000000000000000000000000081526004016111a790612b19565b60405180910390fd5b600160048111156111c4576111c3612647565b5b6001600083815260200190815260200160002060009054906101000a900460ff1660048111156111f7576111f6612647565b5b14611237576040517f08c379a000000000000000000000000000000000000000000000000000000000815260040161122e90612f89565b60405180910390fd5b6004600082815260200190815260200160002060009054906101000a900473ffffffffffffffffffffffffffffffffffffffff1673ffffffffffffffffffffffffffffffffffffffff163373ffffffffffffffffffffffffffffffffffffffff16148061130257506005600082815260200190815260200160002060009054906101000a900473ffffffffffffffffffffffffffffffffffffffff1673ffffffffffffffffffffffffffffffffffffffff163373ffffffffffffffffffffffffffffffffffffffff16145b611341576040517f08c379a0000000000000000000000000000000000000000000000000000000008152600401611338906131a5565b60405180910390fd5b61134c816001612241565b60006001600083815260200190815260200160002060006101000a81548160ff0219169083600481111561138357611382612647565b5b02179055503373ffffffffffffffffffffffffffffffffffffffff16817ff8f487c46f925d49febc3f44f46c89938718875facdb5cd9629da044737e5a4860405160405180910390a350565b60076020528060005260406000206000915090505481565b60046020528060005260406000206000915054906101000a900473ffffffffffffffffffffffffffffffffffffffff1681565b600960003373ffffffffffffffffffffffffffffffffffffffff1673ffffffffffffffffffffffffffffffffffffffff16815260200190815260200160002060009054906101000a900460ff16806114bf5750600860009054906101000a900473ffffffffffffffffffffffffffffffffffffffff1673ffffffffffffffffffffffffffffffffffffffff163373ffffffffffffffffffffffffffffffffffffffff16145b6114fe576040517f08c379a00000000000000000000000000000000000000000000000000000000081526004016114f590612b19565b60405180910390fd5b6002600481111561151257611511612647565b5b6001600083815260200190815260200160002060009054906101000a900460ff16600481111561154557611544612647565b5b14611585576040517f08c379a000000000000000000000000000000000000000000000000000000000815260040161157c90613211565b60405180910390fd5b6004600082815260200190815260200160002060009054906101000a900473ffffffffffffffffffffffffffffffffffffffff1673ffffffffffffffffffffffffffffffffffffffff163373ffffffffffffffffffffffffffffffffffffffff1614611626576040517f08c379a000000000000000000000000000000000000000000000000000000000815260040161161d9061327d565b60405180910390fd5b611631816002612241565b60036001600083815260200190815260200160002060006101000a81548160ff0219169083600481111561166857611667612647565b5b0217905550600260006003600481111561168557611684612647565b5b60ff1660ff16815260200190815260200160002080549050600360008381526020019081526020016000208190555060026000600360048111156116cc576116cb612647565b5b60ff1660ff168152602001908152602001600020819080600181540180825580915050600190039060005260206000200160009091909190915055807f679d820d524425ab4ee5896bd007960ee535fc991a63e905474e17168a99949b60405160405180910390a250565b600960003373ffffffffffffffffffffffffffffffffffffffff1673ffffffffffffffffffffffffffffffffffffffff16815260200190815260200160002060009054906101000a900460ff16806117dc5750600860009054906101000a900473ffffffffffffffffffffffffffffffffffffffff1673ffffffffffffffffffffffffffffffffffffffff163373ffffffffffffffffffffffffffffffffffffffff16145b61181b576040517f08c379a000000000000000000000000000000000000000000000000000000000815260040161181290612b19565b60405180910390fd5b6003600481111561182f5761182e612647565b5b6001600083815260200190815260200160002060009054906101000a900460ff16600481111561186257611861612647565b5b146118a2576040517f08c379a0000000000000000000000000000000000000000000000000000000008152600401611899906130cd565b60405180910390fd5b6004600082815260200190815260200160002060009054906101000a900473ffffffffffffffffffffffffffffffffffffffff1673ffffffffffffffffffffffffffffffffffffffff163373ffffffffffffffffffffffffffffffffffffffff16148061196d57506005600082815260200190815260200160002060009054906101000a900473ffffffffffffffffffffffffffffffffffffffff1673ffffffffffffffffffffffffffffffffffffffff163373ffffffffffffffffffffffffffffffffffffffff16145b6119ac576040517f08c379a00000000000000000000000000000000000000000000000000000000081526004016119a3906131a5565b60405180910390fd5b6119b7816003612241565b60026001600083815260200190815260200160002060006101000a81548160ff021916908360048111156119ee576119ed612647565b5b02179055506002600060026004811115611a0b57611a0a612647565b5b60ff1660ff1681526020019081526020016000208054905060036000838152602001908152602001600020819055506002600060026004811115611a5257611a51612647565b5b60ff1660ff1681526020019081526020016000208190806001815401808255809150506001900390600052602060002001600090919091909150553373ffffffffffffffffffffffffffffffffffffffff16817f5bc8b146f6274f3344ebcb7345433fd42185299a243cbeb91e8f3332aeeadb1360405160405180910390a350565b60096020528060005260406000206000915054906101000a900460ff1681565b600a818051602081018201805184825260208301602085012081835280955050505050506000915090508054611b2990612c28565b80601f0160208091040260200160405190810160405280929190818152602001828054611b5590612c28565b8015611ba25780601f10611b7757610100808354040283529160200191611ba2565b820191906000526020600020905b815481529060010190602001808311611b8557829003601f168201915b505050505081565b606060026000836004811115611bc357611bc2612647565b5b60ff1660ff168152602001908152602001600020805480602002602001604051908101604052809291908181526020018280548015611c2157602002820191906000526020600020905b815481526020019060010190808311611c0d575b50505050509050919050565b60056020528060005260406000206000915054906101000a900473ffffffffffffffffffffffffffffffffffffffff1681565b600860009054906101000a900473ffffffffffffffffffffffffffffffffffffffff1681565b6000600960003373ffffffffffffffffffffffffffffffffffffffff1673ffffffffffffffffffffffffffffffffffffffff16815260200190815260200160002060009054906101000a900460ff1680611d2d5750600860009054906101000a900473ffffffffffffffffffffffffffffffffffffffff1673ffffffffffffffffffffffffffffffffffffffff163373ffffffffffffffffffffffffffffffffffffffff16145b611d6c576040517f08c379a0000000000000000000000000000000000000000000000000000000008152600401611d6390612b19565b60405180910390fd5b60008484905003611db2576040517f08c379a0000000000000000000000000000000000000000000000000000000008152600401611da9906132e9565b60405180910390fd5b6000600a8787604051611dc6929190612bd5565b908152602001604051809103902090506000818054611de490612c28565b905003611e5d578484600a8989604051611dff929190612bd5565b90815260200160405180910390209182611e1a929190612e05565b507f814e0ee4d86911d8252fcf2f504e81549099783d27d63a57e817aa7d157478f487878787604051611e509493929190612f02565b60405180910390a1611ecc565b8484604051611e6d929190613339565b604051809103902081604051611e8391906133ea565b604051809103902014611ecb576040517f08c379a0000000000000000000000000000000000000000000000000000000008152600401611ec29061344d565b60405180910390fd5b5b611f1c898989898080601f016020809104026020016040519081016040528093929190818152602001838380828437600081840152601f19601f8201169050808301925050505050505086611f2a565b915050979650505050505050565b60003373ffffffffffffffffffffffffffffffffffffffff168573ffffffffffffffffffffffffffffffffffffffff1603611f9a576040517f08c379a0000000000000000000000000000000000000000000000000000000008152600401611f91906134b9565b60405180910390fd5b6000600a84604051611fac919061350a565b90815260200160405180910390208054611fc590612c28565b905003612007576040517f08c379a0000000000000000000000000000000000000000000000000000000008152600401611ffe906132e9565b60405180910390fd5b60008081548092919061201990613550565b919050559050336004600083815260200190815260200160002060006101000a81548173ffffffffffffffffffffffffffffffffffffffff021916908373ffffffffffffffffffffffffffffffffffffffff160217905550846005600083815260200190815260200160002060006101000a81548173ffffffffffffffffffffffffffffffffffffffff021916908373ffffffffffffffffffffffffffffffffffffffff160217905550826006600083815260200190815260200160002090816120e39190613598565b50816007600083815260200190815260200160002081905550600180600083815260200190815260200160002060006101000a81548160ff0219169083600481111561213257612131612647565b5b0217905550600260006001600481111561214f5761214e612647565b5b60ff1660ff168152602001908152602001600020805490506003600083815260200190815260200160002081905550600260006001600481111561219657612195612647565b5b60ff1660ff1681526020019081526020016000208190806001815401808255809150506001900390600052602060002001600090919091909150558473ffffffffffffffffffffffffffffffffffffffff163373ffffffffffffffffffffffffffffffffffffffff16827f31ba85b55025ddb5be9fe39085effb86a3e5b63876cf18f1d9e5926f7b84c01a878660405161223192919061366a565b60405180910390a4949350505050565b600081600481111561225657612255612647565b5b90506000600360008581526020019081526020016000205490506000600260008460ff1660ff1681526020019081526020016000209050600081600183805490506122a19190613693565b815481106122b2576122b16136c7565b5b90600052602060002001549050808284815481106122d3576122d26136c7565b5b90600052602060002001819055508260036000838152602001908152602001600020819055508180548061230a576123096136f6565b5b60019003818190600052602060002001600090559055505050505050565b6000604051905090565b600080fd5b600080fd5b600073ffffffffffffffffffffffffffffffffffffffff82169050919050565b60006123678261233c565b9050919050565b6123778161235c565b811461238257600080fd5b50565b6000813590506123948161236e565b92915050565b6000819050919050565b6123ad8161239a565b81146123b857600080fd5b50565b6000813590506123ca816123a4565b92915050565b600080fd5b600080fd5b600080fd5b60008083601f8401126123f5576123f46123d0565b5b8235905067ffffffffffffffff811115612412576124116123d5565b5b60208301915083600182028301111561242e5761242d6123da565b5b9250929050565b60008060008060006080868803121561245157612450612332565b5b600061245f88828901612385565b9550506020612470888289016123bb565b945050604086013567ffffffffffffffff81111561249157612490612337565b5b61249d888289016123df565b935093505060606124b0888289016123bb565b9150509295509295909350565b6124c68161239a565b82525050565b60006020820190506124e160008301846124bd565b92915050565b6000806000806040858703121561250157612500612332565b5b600085013567ffffffffffffffff81111561251f5761251e612337565b5b61252b878288016123df565b9450945050602085013567ffffffffffffffff81111561254e5761254d612337565b5b61255a878288016123df565b925092505092959194509250565b60006020828403121561257e5761257d612332565b5b600061258c848285016123bb565b91505092915050565b600081519050919050565b600082825260208201905092915050565b60005b838110156125cf5780820151818401526020810190506125b4565b60008484015250505050565b6000601f19601f8301169050919050565b60006125f782612595565b61260181856125a0565b93506126118185602086016125b1565b61261a816125db565b840191505092915050565b6000602082019050818103600083015261263f81846125ec565b905092915050565b7f4e487b7100000000000000000000000000000000000000000000000000000000600052602160045260246000fd5b6005811061268757612686612647565b5b50565b600081905061269882612676565b919050565b60006126a88261268a565b9050919050565b6126b88161269d565b82525050565b60006020820190506126d360008301846126af565b92915050565b6000602082840312156126ef576126ee612332565b5b60006126fd84828501612385565b91505092915050565b61270f8161235c565b82525050565b600060208201905061272a6000830184612706565b92915050565b60008115159050919050565b61274581612730565b82525050565b6000602082019050612760600083018461273c565b92915050565b600080fd5b7f4e487b7100000000000000000000000000000000000000000000000000000000600052604160045260246000fd5b6127a3826125db565b810181811067ffffffffffffffff821117156127c2576127c161276b565b5b80604052505050565b60006127d5612328565b90506127e1828261279a565b919050565b600067ffffffffffffffff8211156128015761280061276b565b5b61280a826125db565b9050602081019050919050565b82818337600083830152505050565b6000612839612834846127e6565b6127cb565b90508281526020810184848401111561285557612854612766565b5b612860848285612817565b509392505050565b600082601f83011261287d5761287c6123d0565b5b813561288d848260208601612826565b91505092915050565b6000602082840312156128ac576128ab612332565b5b600082013567ffffffffffffffff8111156128ca576128c9612337565b5b6128d684828501612868565b91505092915050565b600581106128ec57600080fd5b50565b6000813590506128fe816128df565b92915050565b60006020828403121561291a57612919612332565b5b6000612928848285016128ef565b91505092915050565b600081519050919050565b600082825260208201905092915050565b6000819050602082019050919050565b6129668161239a565b82525050565b6000612978838361295d565b60208301905092915050565b6000602082019050919050565b600061299c82612931565b6129a6818561293c565b93506129b18361294d565b8060005b838110156129e25781516129c9888261296c565b97506129d483612984565b9250506001810190506129b5565b5085935050505092915050565b60006020820190508181036000830152612a098184612991565b905092915050565b600080600080600080600060a0888a031215612a3057612a2f612332565b5b6000612a3e8a828b01612385565b9750506020612a4f8a828b016123bb565b965050604088013567ffffffffffffffff811115612a7057612a6f612337565b5b612a7c8a828b016123df565b9550955050606088013567ffffffffffffffff811115612a9f57612a9e612337565b5b612aab8a828b016123df565b93509350506080612abe8a828b016123bb565b91505092959891949750929550565b7f6f6e6c79206163746f7200000000000000000000000000000000000000000000600082015250565b6000612b03600a836125a0565b9150612b0e82612acd565b602082019050919050565b60006020820190508181036000830152612b3281612af6565b9050919050565b7f6f6e6c792061646d696e00000000000000000000000000000000000000000000600082015250565b6000612b6f600a836125a0565b9150612b7a82612b39565b602082019050919050565b60006020820190508181036000830152612b9e81612b62565b9050919050565b600081905092915050565b6000612bbc8385612ba5565b9350612bc9838584612817565b82840190509392505050565b6000612be2828486612bb0565b91508190509392505050565b600082905092915050565b7f4e487b7100000000000000000000000000000000000000000000000000000000600052602260045260246000fd5b60006002820490506001821680612c4057607f821691505b602082108103612c5357612c52612bf9565b5b50919050565b60008190508160005260206000209050919050565b60006020601f8301049050919050565b600082821b905092915050565b600060088302612cbb7fffffffffffffffffffffffffffffffffffffffffffffffffffffffffffffffff82612c7e565b612cc58683612c7e565b95508019841693508086168417925050509392505050565b6000819050919050565b6000612d02612cfd612cf88461239a565b612cdd565b61239a565b9050919050565b6000819050919050565b612d1c83612ce7565b612d30612d2882612d09565b848454612c8b565b825550505050565b600090565b612d45612d38565b612d50818484612d13565b505050565b5b81811015612d7457612d69600082612d3d565b600181019050612d56565b5050565b601f821115612db957612d8a81612c59565b612d9384612c6e565b81016020851015612da2578190505b612db6612dae85612c6e565b830182612d55565b50505b505050565b600082821c905092915050565b6000612ddc60001984600802612dbe565b1980831691505092915050565b6000612df58383612dcb565b9150826002028217905092915050565b612e0f8383612bee565b67ffffffffffffffff811115612e2857612e2761276b565b5b612e328254612c28565b612e3d828285612d78565b6000601f831160018114612e6c5760008415612e5a578287013590505b612e648582612de9565b865550612ecc565b601f198416612e7a86612c59565b60005b82811015612ea257848901358255600182019150602085019450602081019050612e7d565b86831015612ebf5784890135612ebb601f891682612dcb565b8355505b6001600288020188555050505b50505050505050565b6000612ee183856125a0565b9350612eee838584612817565b612ef7836125db565b840190509392505050565b60006040820190508181036000830152612f1d818688612ed5565b90508181036020830152612f32818486612ed5565b905095945050505050565b7f6e6f742070726f706f7365640000000000000000000000000000000000000000600082015250565b6000612f73600c836125a0565b9150612f7e82612f3d565b602082019050919050565b60006020820190508181036000830152612fa281612f66565b9050919050565b7f6f6e6c7920726563697069656e74000000000000000000000000000000000000600082015250565b6000612fdf600e836125a0565b9150612fea82612fa9565b602082019050919050565b6000602082019050818103600083015261300e81612fd2565b9050919050565b7f616c7265616479206163746f7200000000000000000000000000000000000000600082015250565b600061304b600d836125a0565b915061305682613015565b602082019050919050565b6000602082019050818103600083015261307a8161303e565b9050919050565b7f6e6f742073686970706564000000000000000000000000000000000000000000600082015250565b60006130b7600b836125a0565b91506130c282613081565b602082019050919050565b600060208201905081810360008301526130e6816130aa565b9050919050565b7f6e6f74206163746f720000000000000000000000000000000000000000000000600082015250565b60006131236009836125a0565b915061312e826130ed565b602082019050919050565b6000602082019050818103600083015261315281613116565b9050919050565b7f6f6e6c7920706172746965730000000000000000000000000000000000000000600082015250565b600061318f600c836125a0565b915061319a82613159565b602082019050919050565b600060208201905081810360008301526131be81613182565b9050919050565b7f6e6f7420636f6e6669726d656400000000000000000000000000000000000000600082015250565b60006131fb600d836125a0565b9150613206826131c5565b602082019050919050565b6000602082019050818103600083015261322a816131ee565b9050919050565b7f6f6e6c792073656e646572000000000000000000000000000000000000000000600082015250565b6000613267600b836125a0565b915061327282613231565b602082019050919050565b600060208201905081810360008301526132968161325a565b9050919050565b7f6974656d20726571756972656400000000000000000000000000000000000000600082015250565b60006132d3600d836125a0565b91506132de8261329d565b602082019050919050565b60006020820190508181036000830152613302816132c6565b9050919050565b600081905092915050565b60006133208385613309565b935061332d838584612817565b82840190509392505050565b6000613346828486613314565b91508190509392505050565b60008190508160005260206000209050919050565b6000815461337481612c28565b61337e8186613309565b9450600182166000811461339957600181146133ae576133e1565b60ff19831686528115158202860193506133e1565b6133b785613352565b60005b838110156133d9578154818901526001820191506020810190506133ba565b838801955050505b50505092915050565b60006133f68284613367565b915081905092915050565b7f6974656d206d69736d6174636800000000000000000000000000000000000000600082015250565b6000613437600d836125a0565b915061344282613401565b602082019050919050565b600060208201905081810360008301526134668161342a565b9050919050565b7f696e76616c696420726563697069656e74000000000000000000000000000000600082015250565b60006134a36011836125a0565b91506134ae8261346d565b602082019050919050565b600060208201905081810360008301526134d281613496565b9050919050565b60006134e482612595565b6134ee8185612ba5565b93506134fe8185602086016125b1565b80840191505092915050565b600061351682846134d9565b915081905092915050565b7f4e487b7100000000000000000000000000000000000000000000000000000000600052601160045260246000fd5b600061355b8261239a565b91507fffffffffffffffffffffffffffffffffffffffffffffffffffffffffffffffff820361358d5761358c613521565b5b600182019050919050565b6135a182612595565b67ffffffffffffffff8111156135ba576135b961276b565b5b6135c48254612c28565b6135cf828285612d78565b600060209050601f83116001811461360257600084156135f0578287015190505b6135fa8582612de9565b865550613662565b601f19841661361086612c59565b60005b8281101561363857848901518255600182019150602085019450602081019050613613565b868310156136555784890151613651601f891682612dcb565b8355505b6001600288020188555050505b505050505050565b600060408201905061367f60008301856124bd565b61368c60208301846124bd565b9392505050565b600061369e8261239a565b91506136a98361239a565b92508282039050818111156136c1576136c0613521565b5b92915050565b7f4e487b7100000000000000000000000000000000000000000000000000000000600052603260045260246000fd5b7f4e487b7100000000000000000000000000000000000000000000000000000000600052603160045260246000fdfea26469706673582212203802bbe2d21d9b489dbf0467817452e96e58b25c8dcbfc86a785cfe70f804f0d64736f6c63430008140033",
  "linkReferences": {},
  "deployedLinkReferences": {}
}